{
	"Funciones/eventos.sol": {
		"Eventos": {
			"abi": [
				{
					"anonymous": false,
					"inputs": [],
					"name": "abortarmision",
					"type": "event"
				},
				{
					"anonymous": false,
					"inputs": [
						{
							"indexed": false,
							"internalType": "string",
							"name": "_nombrePersona",
							"type": "string"
						}
					],
					"name": "nombre_evento1",
					"type": "event"
				},
				{
					"anonymous": false,
					"inputs": [
						{
							"indexed": false,
							"internalType": "string",
							"name": "_nombrePersona",
							"type": "string"
						},
						{
							"indexed": false,
							"internalType": "uint256",
							"name": "_edadPersona",
							"type": "uint256"
						}
					],
					"name": "nombre_evento2",
					"type": "event"
				},
				{
					"anonymous": false,
					"inputs": [
						{
							"indexed": false,
							"internalType": "string",
							"name": "",
							"type": "string"
						},
						{
							"indexed": false,
							"internalType": "uint256",
							"name": "",
							"type": "uint256"
						},
						{
							"indexed": false,
							"internalType": "address",
							"name": "",
							"type": "address"
						},
						{
							"indexed": false,
							"internalType": "bytes32",
							"name": "",
							"type": "bytes32"
						}
					],
					"name": "nombre_evento3",
					"type": "event"
				},
				{
					"inputs": [],
					"name": "AbortarMision",
					"outputs": [],
					"stateMutability": "nonpayable",
					"type": "function"
				},
				{
					"inputs": [
						{
							"internalType": "string",
							"name": "_nombrePersona",
							"type": "string"
						}
					],
					"name": "EmitirEvento1",
					"outputs": [],
					"stateMutability": "nonpayable",
					"type": "function"
				},
				{
					"inputs": [
						{
							"internalType": "string",
							"name": "_nombrePersona",
							"type": "string"
						},
						{
							"internalType": "uint256",
							"name": "_edad",
							"type": "uint256"
						}
					],
					"name": "EmitirEvento2",
					"outputs": [],
					"stateMutability": "nonpayable",
					"type": "function"
				},
				{
					"inputs": [
						{
							"internalType": "string",
							"name": "_nombrePersona",
							"type": "string"
						},
						{
							"internalType": "uint256",
							"name": "_edad",
							"type": "uint256"
						}
					],
					"name": "EmitirEvento3",
					"outputs": [],
					"stateMutability": "nonpayable",
					"type": "function"
				}
			],
			"devdoc": {
				"kind": "dev",
				"methods": {},
				"version": 1
			},
			"evm": {
				"assembly": "    /* \"Funciones/eventos.sol\":109:994  contract Eventos{\r... */\n  mstore(0x40, 0x80)\n  callvalue\n  dup1\n  iszero\n  tag_1\n  jumpi\n  0x00\n  dup1\n  revert\ntag_1:\n  pop\n  dataSize(sub_0)\n  dup1\n  dataOffset(sub_0)\n  0x00\n  codecopy\n  0x00\n  return\nstop\n\nsub_0: assembly {\n        /* \"Funciones/eventos.sol\":109:994  contract Eventos{\r... */\n      mstore(0x40, 0x80)\n      callvalue\n      dup1\n      iszero\n      tag_1\n      jumpi\n      0x00\n      dup1\n      revert\n    tag_1:\n      pop\n      jumpi(tag_2, lt(calldatasize, 0x04))\n      shr(0xe0, calldataload(0x00))\n      dup1\n      0x1297814e\n      eq\n      tag_3\n      jumpi\n      dup1\n      0x14d07a25\n      eq\n      tag_4\n      jumpi\n      dup1\n      0xabefda81\n      eq\n      tag_5\n      jumpi\n      dup1\n      0xc355a3e5\n      eq\n      tag_6\n      jumpi\n    tag_2:\n      0x00\n      dup1\n      revert\n        /* \"Funciones/eventos.sol\":920:991  function AbortarMision() public {\r... */\n    tag_3:\n      tag_7\n      tag_8\n      jump\t// in\n    tag_7:\n      stop\n        /* \"Funciones/eventos.sol\":663:908  function EmitirEvento3(string memory _nombrePersona, uint _edad) public{\r... */\n    tag_4:\n      tag_9\n      0x04\n      dup1\n      calldatasize\n      sub\n      dup2\n      add\n      swap1\n      tag_10\n      swap2\n      swap1\n      tag_11\n      jump\t// in\n    tag_10:\n      tag_12\n      jump\t// in\n    tag_9:\n      stop\n        /* \"Funciones/eventos.sol\":394:507  function EmitirEvento1(string memory _nombrePersona) public{\r... */\n    tag_5:\n      tag_13\n      0x04\n      dup1\n      calldatasize\n      sub\n      dup2\n      add\n      swap1\n      tag_14\n      swap2\n      swap1\n      tag_15\n      jump\t// in\n    tag_14:\n      tag_16\n      jump\t// in\n    tag_13:\n      stop\n        /* \"Funciones/eventos.sol\":519:651  function EmitirEvento2(string memory _nombrePersona, uint _edad) public{\r... */\n    tag_6:\n      tag_17\n      0x04\n      dup1\n      calldatasize\n      sub\n      dup2\n      add\n      swap1\n      tag_18\n      swap2\n      swap1\n      tag_11\n      jump\t// in\n    tag_18:\n      tag_19\n      jump\t// in\n    tag_17:\n      stop\n        /* \"Funciones/eventos.sol\":920:991  function AbortarMision() public {\r... */\n    tag_8:\n        /* \"Funciones/eventos.sol\":968:983  abortarmision() */\n      0x9f2c8877eeb6e22e94438633d64a43489fefb752521080a2f01e64a03feb270b\n      mload(0x40)\n      mload(0x40)\n      dup1\n      swap2\n      sub\n      swap1\n      log1\n        /* \"Funciones/eventos.sol\":920:991  function AbortarMision() public {\r... */\n      jump\t// out\n        /* \"Funciones/eventos.sol\":663:908  function EmitirEvento3(string memory _nombrePersona, uint _edad) public{\r... */\n    tag_12:\n        /* \"Funciones/eventos.sol\":745:760  bytes32 hash_id */\n      0x00\n        /* \"Funciones/eventos.sol\":790:804  _nombrePersona */\n      dup3\n        /* \"Funciones/eventos.sol\":806:811  _edad */\n      dup3\n        /* \"Funciones/eventos.sol\":813:823  msg.sender */\n      caller\n        /* \"Funciones/eventos.sol\":773:824  abi.encodePacked(_nombrePersona, _edad, msg.sender) */\n      add(0x20, mload(0x40))\n      tag_22\n      swap4\n      swap3\n      swap2\n      swap1\n      tag_23\n      jump\t// in\n    tag_22:\n      mload(0x40)\n      0x20\n      dup2\n      dup4\n      sub\n      sub\n      dup2\n      mstore\n      swap1\n      0x40\n      mstore\n        /* \"Funciones/eventos.sol\":763:825  keccak256(abi.encodePacked(_nombrePersona, _edad, msg.sender)) */\n      dup1\n      mload\n      swap1\n      0x20\n      add\n      keccak256\n        /* \"Funciones/eventos.sol\":745:825  bytes32 hash_id = keccak256(abi.encodePacked(_nombrePersona, _edad, msg.sender)) */\n      swap1\n      pop\n        /* \"Funciones/eventos.sol\":842:900  nombre_evento3(_nombrePersona, _edad, msg.sender, hash_id) */\n      0xd0ff1ee28f2dbf23f694467b91653073187a19cba2610b37edd759ee2e31a871\n        /* \"Funciones/eventos.sol\":857:871  _nombrePersona */\n      dup4\n        /* \"Funciones/eventos.sol\":873:878  _edad */\n      dup4\n        /* \"Funciones/eventos.sol\":880:890  msg.sender */\n      caller\n        /* \"Funciones/eventos.sol\":892:899  hash_id */\n      dup5\n        /* \"Funciones/eventos.sol\":842:900  nombre_evento3(_nombrePersona, _edad, msg.sender, hash_id) */\n      mload(0x40)\n      tag_24\n      swap5\n      swap4\n      swap3\n      swap2\n      swap1\n      tag_25\n      jump\t// in\n    tag_24:\n      mload(0x40)\n      dup1\n      swap2\n      sub\n      swap1\n      log1\n        /* \"Funciones/eventos.sol\":663:908  function EmitirEvento3(string memory _nombrePersona, uint _edad) public{\r... */\n      pop\n      pop\n      pop\n      jump\t// out\n        /* \"Funciones/eventos.sol\":394:507  function EmitirEvento1(string memory _nombrePersona) public{\r... */\n    tag_16:\n        /* \"Funciones/eventos.sol\":469:499  nombre_evento1(_nombrePersona) */\n      0x5007d59453ebcd951519cabd56f016d29fe2390892307189bde962ced3d34094\n        /* \"Funciones/eventos.sol\":484:498  _nombrePersona */\n      dup2\n        /* \"Funciones/eventos.sol\":469:499  nombre_evento1(_nombrePersona) */\n      mload(0x40)\n      tag_27\n      swap2\n      swap1\n      tag_28\n      jump\t// in\n    tag_27:\n      mload(0x40)\n      dup1\n      swap2\n      sub\n      swap1\n      log1\n        /* \"Funciones/eventos.sol\":394:507  function EmitirEvento1(string memory _nombrePersona) public{\r... */\n      pop\n      jump\t// out\n        /* \"Funciones/eventos.sol\":519:651  function EmitirEvento2(string memory _nombrePersona, uint _edad) public{\r... */\n    tag_19:\n        /* \"Funciones/eventos.sol\":606:643  nombre_evento2(_nombrePersona, _edad) */\n      0x7556e8345a443b754c690a14b2cd91df7aec27fbd662a660dd25d647f4732ed1\n        /* \"Funciones/eventos.sol\":621:635  _nombrePersona */\n      dup3\n        /* \"Funciones/eventos.sol\":637:642  _edad */\n      dup3\n        /* \"Funciones/eventos.sol\":606:643  nombre_evento2(_nombrePersona, _edad) */\n      mload(0x40)\n      tag_30\n      swap3\n      swap2\n      swap1\n      tag_31\n      jump\t// in\n    tag_30:\n      mload(0x40)\n      dup1\n      swap2\n      sub\n      swap1\n      log1\n        /* \"Funciones/eventos.sol\":519:651  function EmitirEvento2(string memory _nombrePersona, uint _edad) public{\r... */\n      pop\n      pop\n      jump\t// out\n        /* \"--CODEGEN--\":6:448   */\n    tag_33:\n      0x00\n        /* \"--CODEGEN--\":108:111   */\n      dup3\n        /* \"--CODEGEN--\":101:105   */\n      0x1f\n        /* \"--CODEGEN--\":93:99   */\n      dup4\n        /* \"--CODEGEN--\":89:106   */\n      add\n        /* \"--CODEGEN--\":85:112   */\n      slt\n        /* \"--CODEGEN--\":75:77   */\n      tag_35\n      jumpi\n        /* \"--CODEGEN--\":126:127   */\n      0x00\n        /* \"--CODEGEN--\":123:124   */\n      dup1\n        /* \"--CODEGEN--\":116:128   */\n      revert\n        /* \"--CODEGEN--\":75:77   */\n    tag_35:\n        /* \"--CODEGEN--\":163:169   */\n      dup2\n        /* \"--CODEGEN--\":150:170   */\n      calldataload\n        /* \"--CODEGEN--\":185:250   */\n      tag_36\n        /* \"--CODEGEN--\":200:249   */\n      tag_37\n        /* \"--CODEGEN--\":242:248   */\n      dup3\n        /* \"--CODEGEN--\":200:249   */\n      tag_38\n      jump\t// in\n    tag_37:\n        /* \"--CODEGEN--\":185:250   */\n      tag_39\n      jump\t// in\n    tag_36:\n        /* \"--CODEGEN--\":176:250   */\n      swap2\n      pop\n        /* \"--CODEGEN--\":270:276   */\n      dup1\n        /* \"--CODEGEN--\":263:268   */\n      dup3\n        /* \"--CODEGEN--\":256:277   */\n      mstore\n        /* \"--CODEGEN--\":306:310   */\n      0x20\n        /* \"--CODEGEN--\":298:304   */\n      dup4\n        /* \"--CODEGEN--\":294:311   */\n      add\n        /* \"--CODEGEN--\":339:343   */\n      0x20\n        /* \"--CODEGEN--\":332:337   */\n      dup4\n        /* \"--CODEGEN--\":328:344   */\n      add\n        /* \"--CODEGEN--\":374:377   */\n      dup6\n        /* \"--CODEGEN--\":365:371   */\n      dup4\n        /* \"--CODEGEN--\":360:363   */\n      dup4\n        /* \"--CODEGEN--\":356:372   */\n      add\n        /* \"--CODEGEN--\":353:378   */\n      gt\n        /* \"--CODEGEN--\":350:352   */\n      iszero\n      tag_40\n      jumpi\n        /* \"--CODEGEN--\":391:392   */\n      0x00\n        /* \"--CODEGEN--\":388:389   */\n      dup1\n        /* \"--CODEGEN--\":381:393   */\n      revert\n        /* \"--CODEGEN--\":350:352   */\n    tag_40:\n        /* \"--CODEGEN--\":401:442   */\n      tag_41\n        /* \"--CODEGEN--\":435:441   */\n      dup4\n        /* \"--CODEGEN--\":430:433   */\n      dup3\n        /* \"--CODEGEN--\":425:428   */\n      dup5\n        /* \"--CODEGEN--\":401:442   */\n      tag_42\n      jump\t// in\n    tag_41:\n        /* \"--CODEGEN--\":68:448   */\n      pop\n      pop\n      pop\n      swap3\n      swap2\n      pop\n      pop\n      jump\t// out\n        /* \"--CODEGEN--\":456:586   */\n    tag_43:\n      0x00\n        /* \"--CODEGEN--\":536:542   */\n      dup2\n        /* \"--CODEGEN--\":523:543   */\n      calldataload\n        /* \"--CODEGEN--\":514:543   */\n      swap1\n      pop\n        /* \"--CODEGEN--\":548:581   */\n      tag_45\n        /* \"--CODEGEN--\":575:580   */\n      dup2\n        /* \"--CODEGEN--\":548:581   */\n      tag_46\n      jump\t// in\n    tag_45:\n        /* \"--CODEGEN--\":508:586   */\n      swap3\n      swap2\n      pop\n      pop\n      jump\t// out\n        /* \"--CODEGEN--\":593:940   */\n    tag_15:\n      0x00\n        /* \"--CODEGEN--\":707:709   */\n      0x20\n        /* \"--CODEGEN--\":695:704   */\n      dup3\n        /* \"--CODEGEN--\":686:693   */\n      dup5\n        /* \"--CODEGEN--\":682:705   */\n      sub\n        /* \"--CODEGEN--\":678:710   */\n      slt\n        /* \"--CODEGEN--\":675:677   */\n      iszero\n      tag_48\n      jumpi\n        /* \"--CODEGEN--\":723:724   */\n      0x00\n        /* \"--CODEGEN--\":720:721   */\n      dup1\n        /* \"--CODEGEN--\":713:725   */\n      revert\n        /* \"--CODEGEN--\":675:677   */\n    tag_48:\n        /* \"--CODEGEN--\":786:787   */\n      0x00\n        /* \"--CODEGEN--\":775:784   */\n      dup3\n        /* \"--CODEGEN--\":771:788   */\n      add\n        /* \"--CODEGEN--\":758:789   */\n      calldataload\n        /* \"--CODEGEN--\":809:827   */\n      0xffffffffffffffff\n        /* \"--CODEGEN--\":801:807   */\n      dup2\n        /* \"--CODEGEN--\":798:828   */\n      gt\n        /* \"--CODEGEN--\":795:797   */\n      iszero\n      tag_49\n      jumpi\n        /* \"--CODEGEN--\":841:842   */\n      0x00\n        /* \"--CODEGEN--\":838:839   */\n      dup1\n        /* \"--CODEGEN--\":831:843   */\n      revert\n        /* \"--CODEGEN--\":795:797   */\n    tag_49:\n        /* \"--CODEGEN--\":861:924   */\n      tag_50\n        /* \"--CODEGEN--\":916:923   */\n      dup5\n        /* \"--CODEGEN--\":907:913   */\n      dup3\n        /* \"--CODEGEN--\":896:905   */\n      dup6\n        /* \"--CODEGEN--\":892:914   */\n      add\n        /* \"--CODEGEN--\":861:924   */\n      tag_33\n      jump\t// in\n    tag_50:\n        /* \"--CODEGEN--\":851:924   */\n      swap2\n      pop\n        /* \"--CODEGEN--\":737:930   */\n      pop\n        /* \"--CODEGEN--\":669:940   */\n      swap3\n      swap2\n      pop\n      pop\n      jump\t// out\n        /* \"--CODEGEN--\":947:1419   */\n    tag_11:\n      0x00\n      dup1\n        /* \"--CODEGEN--\":1078:1080   */\n      0x40\n        /* \"--CODEGEN--\":1066:1075   */\n      dup4\n        /* \"--CODEGEN--\":1057:1064   */\n      dup6\n        /* \"--CODEGEN--\":1053:1076   */\n      sub\n        /* \"--CODEGEN--\":1049:1081   */\n      slt\n        /* \"--CODEGEN--\":1046:1048   */\n      iszero\n      tag_52\n      jumpi\n        /* \"--CODEGEN--\":1094:1095   */\n      0x00\n        /* \"--CODEGEN--\":1091:1092   */\n      dup1\n        /* \"--CODEGEN--\":1084:1096   */\n      revert\n        /* \"--CODEGEN--\":1046:1048   */\n    tag_52:\n        /* \"--CODEGEN--\":1157:1158   */\n      0x00\n        /* \"--CODEGEN--\":1146:1155   */\n      dup4\n        /* \"--CODEGEN--\":1142:1159   */\n      add\n        /* \"--CODEGEN--\":1129:1160   */\n      calldataload\n        /* \"--CODEGEN--\":1180:1198   */\n      0xffffffffffffffff\n        /* \"--CODEGEN--\":1172:1178   */\n      dup2\n        /* \"--CODEGEN--\":1169:1199   */\n      gt\n        /* \"--CODEGEN--\":1166:1168   */\n      iszero\n      tag_53\n      jumpi\n        /* \"--CODEGEN--\":1212:1213   */\n      0x00\n        /* \"--CODEGEN--\":1209:1210   */\n      dup1\n        /* \"--CODEGEN--\":1202:1214   */\n      revert\n        /* \"--CODEGEN--\":1166:1168   */\n    tag_53:\n        /* \"--CODEGEN--\":1232:1295   */\n      tag_54\n        /* \"--CODEGEN--\":1287:1294   */\n      dup6\n        /* \"--CODEGEN--\":1278:1284   */\n      dup3\n        /* \"--CODEGEN--\":1267:1276   */\n      dup7\n        /* \"--CODEGEN--\":1263:1285   */\n      add\n        /* \"--CODEGEN--\":1232:1295   */\n      tag_33\n      jump\t// in\n    tag_54:\n        /* \"--CODEGEN--\":1222:1295   */\n      swap3\n      pop\n        /* \"--CODEGEN--\":1108:1301   */\n      pop\n        /* \"--CODEGEN--\":1332:1334   */\n      0x20\n        /* \"--CODEGEN--\":1350:1403   */\n      tag_55\n        /* \"--CODEGEN--\":1395:1402   */\n      dup6\n        /* \"--CODEGEN--\":1386:1392   */\n      dup3\n        /* \"--CODEGEN--\":1375:1384   */\n      dup7\n        /* \"--CODEGEN--\":1371:1393   */\n      add\n        /* \"--CODEGEN--\":1350:1403   */\n      tag_43\n      jump\t// in\n    tag_55:\n        /* \"--CODEGEN--\":1340:1403   */\n      swap2\n      pop\n        /* \"--CODEGEN--\":1311:1409   */\n      pop\n        /* \"--CODEGEN--\":1040:1419   */\n      swap3\n      pop\n      swap3\n      swap1\n      pop\n      jump\t// out\n        /* \"--CODEGEN--\":1426:1568   */\n    tag_56:\n        /* \"--CODEGEN--\":1517:1562   */\n      tag_58\n        /* \"--CODEGEN--\":1556:1561   */\n      dup2\n        /* \"--CODEGEN--\":1517:1562   */\n      tag_59\n      jump\t// in\n    tag_58:\n        /* \"--CODEGEN--\":1512:1515   */\n      dup3\n        /* \"--CODEGEN--\":1505:1563   */\n      mstore\n        /* \"--CODEGEN--\":1499:1568   */\n      pop\n      pop\n      jump\t// out\n        /* \"--CODEGEN--\":1575:1759   */\n    tag_60:\n        /* \"--CODEGEN--\":1692:1753   */\n      tag_62\n        /* \"--CODEGEN--\":1720:1752   */\n      tag_63\n        /* \"--CODEGEN--\":1746:1751   */\n      dup3\n        /* \"--CODEGEN--\":1720:1752   */\n      tag_64\n      jump\t// in\n    tag_63:\n        /* \"--CODEGEN--\":1692:1753   */\n      tag_65\n      jump\t// in\n    tag_62:\n        /* \"--CODEGEN--\":1687:1690   */\n      dup3\n        /* \"--CODEGEN--\":1680:1754   */\n      mstore\n        /* \"--CODEGEN--\":1674:1759   */\n      pop\n      pop\n      jump\t// out\n        /* \"--CODEGEN--\":1766:1879   */\n    tag_66:\n        /* \"--CODEGEN--\":1849:1873   */\n      tag_68\n        /* \"--CODEGEN--\":1867:1872   */\n      dup2\n        /* \"--CODEGEN--\":1849:1873   */\n      tag_69\n      jump\t// in\n    tag_68:\n        /* \"--CODEGEN--\":1844:1847   */\n      dup3\n        /* \"--CODEGEN--\":1837:1874   */\n      mstore\n        /* \"--CODEGEN--\":1831:1879   */\n      pop\n      pop\n      jump\t// out\n        /* \"--CODEGEN--\":1886:2233   */\n    tag_70:\n      0x00\n        /* \"--CODEGEN--\":1998:2037   */\n      tag_72\n        /* \"--CODEGEN--\":2031:2036   */\n      dup3\n        /* \"--CODEGEN--\":1998:2037   */\n      tag_73\n      jump\t// in\n    tag_72:\n        /* \"--CODEGEN--\":2049:2120   */\n      tag_74\n        /* \"--CODEGEN--\":2113:2119   */\n      dup2\n        /* \"--CODEGEN--\":2108:2111   */\n      dup6\n        /* \"--CODEGEN--\":2049:2120   */\n      tag_75\n      jump\t// in\n    tag_74:\n        /* \"--CODEGEN--\":2042:2120   */\n      swap4\n      pop\n        /* \"--CODEGEN--\":2125:2177   */\n      tag_76\n        /* \"--CODEGEN--\":2170:2176   */\n      dup2\n        /* \"--CODEGEN--\":2165:2168   */\n      dup6\n        /* \"--CODEGEN--\":2158:2162   */\n      0x20\n        /* \"--CODEGEN--\":2151:2156   */\n      dup7\n        /* \"--CODEGEN--\":2147:2163   */\n      add\n        /* \"--CODEGEN--\":2125:2177   */\n      tag_77\n      jump\t// in\n    tag_76:\n        /* \"--CODEGEN--\":2198:2227   */\n      tag_78\n        /* \"--CODEGEN--\":2220:2226   */\n      dup2\n        /* \"--CODEGEN--\":2198:2227   */\n      tag_79\n      jump\t// in\n    tag_78:\n        /* \"--CODEGEN--\":2193:2196   */\n      dup5\n        /* \"--CODEGEN--\":2189:2228   */\n      add\n        /* \"--CODEGEN--\":2182:2228   */\n      swap2\n      pop\n        /* \"--CODEGEN--\":1978:2233   */\n      pop\n      swap3\n      swap2\n      pop\n      pop\n      jump\t// out\n        /* \"--CODEGEN--\":2240:2600   */\n    tag_80:\n      0x00\n        /* \"--CODEGEN--\":2370:2409   */\n      tag_82\n        /* \"--CODEGEN--\":2403:2408   */\n      dup3\n        /* \"--CODEGEN--\":2370:2409   */\n      tag_73\n      jump\t// in\n    tag_82:\n        /* \"--CODEGEN--\":2421:2510   */\n      tag_83\n        /* \"--CODEGEN--\":2503:2509   */\n      dup2\n        /* \"--CODEGEN--\":2498:2501   */\n      dup6\n        /* \"--CODEGEN--\":2421:2510   */\n      tag_84\n      jump\t// in\n    tag_83:\n        /* \"--CODEGEN--\":2414:2510   */\n      swap4\n      pop\n        /* \"--CODEGEN--\":2515:2567   */\n      tag_85\n        /* \"--CODEGEN--\":2560:2566   */\n      dup2\n        /* \"--CODEGEN--\":2555:2558   */\n      dup6\n        /* \"--CODEGEN--\":2548:2552   */\n      0x20\n        /* \"--CODEGEN--\":2541:2546   */\n      dup7\n        /* \"--CODEGEN--\":2537:2553   */\n      add\n        /* \"--CODEGEN--\":2515:2567   */\n      tag_77\n      jump\t// in\n    tag_85:\n        /* \"--CODEGEN--\":2588:2594   */\n      dup1\n        /* \"--CODEGEN--\":2583:2586   */\n      dup5\n        /* \"--CODEGEN--\":2579:2595   */\n      add\n        /* \"--CODEGEN--\":2572:2595   */\n      swap2\n      pop\n        /* \"--CODEGEN--\":2350:2600   */\n      pop\n      swap3\n      swap2\n      pop\n      pop\n      jump\t// out\n        /* \"--CODEGEN--\":2607:2720   */\n    tag_86:\n        /* \"--CODEGEN--\":2690:2714   */\n      tag_88\n        /* \"--CODEGEN--\":2708:2713   */\n      dup2\n        /* \"--CODEGEN--\":2690:2714   */\n      tag_89\n      jump\t// in\n    tag_88:\n        /* \"--CODEGEN--\":2685:2688   */\n      dup3\n        /* \"--CODEGEN--\":2678:2715   */\n      mstore\n        /* \"--CODEGEN--\":2672:2720   */\n      pop\n      pop\n      jump\t// out\n        /* \"--CODEGEN--\":2727:2879   */\n    tag_90:\n        /* \"--CODEGEN--\":2828:2873   */\n      tag_92\n        /* \"--CODEGEN--\":2848:2872   */\n      tag_93\n        /* \"--CODEGEN--\":2866:2871   */\n      dup3\n        /* \"--CODEGEN--\":2848:2872   */\n      tag_89\n      jump\t// in\n    tag_93:\n        /* \"--CODEGEN--\":2828:2873   */\n      tag_94\n      jump\t// in\n    tag_92:\n        /* \"--CODEGEN--\":2823:2826   */\n      dup3\n        /* \"--CODEGEN--\":2816:2874   */\n      mstore\n        /* \"--CODEGEN--\":2810:2879   */\n      pop\n      pop\n      jump\t// out\n        /* \"--CODEGEN--\":2886:3471   */\n    tag_23:\n      0x00\n        /* \"--CODEGEN--\":3113:3208   */\n      tag_96\n        /* \"--CODEGEN--\":3204:3207   */\n      dup3\n        /* \"--CODEGEN--\":3195:3201   */\n      dup7\n        /* \"--CODEGEN--\":3113:3208   */\n      tag_80\n      jump\t// in\n    tag_96:\n        /* \"--CODEGEN--\":3106:3208   */\n      swap2\n      pop\n        /* \"--CODEGEN--\":3219:3294   */\n      tag_97\n        /* \"--CODEGEN--\":3290:3293   */\n      dup3\n        /* \"--CODEGEN--\":3281:3287   */\n      dup6\n        /* \"--CODEGEN--\":3219:3294   */\n      tag_90\n      jump\t// in\n    tag_97:\n        /* \"--CODEGEN--\":3316:3318   */\n      0x20\n        /* \"--CODEGEN--\":3311:3314   */\n      dup3\n        /* \"--CODEGEN--\":3307:3319   */\n      add\n        /* \"--CODEGEN--\":3300:3319   */\n      swap2\n      pop\n        /* \"--CODEGEN--\":3330:3421   */\n      tag_98\n        /* \"--CODEGEN--\":3417:3420   */\n      dup3\n        /* \"--CODEGEN--\":3408:3414   */\n      dup5\n        /* \"--CODEGEN--\":3330:3421   */\n      tag_60\n      jump\t// in\n    tag_98:\n        /* \"--CODEGEN--\":3443:3445   */\n      0x14\n        /* \"--CODEGEN--\":3438:3441   */\n      dup3\n        /* \"--CODEGEN--\":3434:3446   */\n      add\n        /* \"--CODEGEN--\":3427:3446   */\n      swap2\n      pop\n        /* \"--CODEGEN--\":3463:3466   */\n      dup2\n        /* \"--CODEGEN--\":3456:3466   */\n      swap1\n      pop\n        /* \"--CODEGEN--\":3094:3471   */\n      swap5\n      swap4\n      pop\n      pop\n      pop\n      pop\n      jump\t// out\n        /* \"--CODEGEN--\":3478:3788   */\n    tag_28:\n      0x00\n        /* \"--CODEGEN--\":3625:3627   */\n      0x20\n        /* \"--CODEGEN--\":3614:3623   */\n      dup3\n        /* \"--CODEGEN--\":3610:3628   */\n      add\n        /* \"--CODEGEN--\":3602:3628   */\n      swap1\n      pop\n        /* \"--CODEGEN--\":3675:3684   */\n      dup2\n        /* \"--CODEGEN--\":3669:3673   */\n      dup2\n        /* \"--CODEGEN--\":3665:3685   */\n      sub\n        /* \"--CODEGEN--\":3661:3662   */\n      0x00\n        /* \"--CODEGEN--\":3650:3659   */\n      dup4\n        /* \"--CODEGEN--\":3646:3663   */\n      add\n        /* \"--CODEGEN--\":3639:3686   */\n      mstore\n        /* \"--CODEGEN--\":3700:3778   */\n      tag_100\n        /* \"--CODEGEN--\":3773:3777   */\n      dup2\n        /* \"--CODEGEN--\":3764:3770   */\n      dup5\n        /* \"--CODEGEN--\":3700:3778   */\n      tag_70\n      jump\t// in\n    tag_100:\n        /* \"--CODEGEN--\":3692:3778   */\n      swap1\n      pop\n        /* \"--CODEGEN--\":3596:3788   */\n      swap3\n      swap2\n      pop\n      pop\n      jump\t// out\n        /* \"--CODEGEN--\":3795:4216   */\n    tag_31:\n      0x00\n        /* \"--CODEGEN--\":3970:3972   */\n      0x40\n        /* \"--CODEGEN--\":3959:3968   */\n      dup3\n        /* \"--CODEGEN--\":3955:3973   */\n      add\n        /* \"--CODEGEN--\":3947:3973   */\n      swap1\n      pop\n        /* \"--CODEGEN--\":4020:4029   */\n      dup2\n        /* \"--CODEGEN--\":4014:4018   */\n      dup2\n        /* \"--CODEGEN--\":4010:4030   */\n      sub\n        /* \"--CODEGEN--\":4006:4007   */\n      0x00\n        /* \"--CODEGEN--\":3995:4004   */\n      dup4\n        /* \"--CODEGEN--\":3991:4008   */\n      add\n        /* \"--CODEGEN--\":3984:4031   */\n      mstore\n        /* \"--CODEGEN--\":4045:4123   */\n      tag_102\n        /* \"--CODEGEN--\":4118:4122   */\n      dup2\n        /* \"--CODEGEN--\":4109:4115   */\n      dup6\n        /* \"--CODEGEN--\":4045:4123   */\n      tag_70\n      jump\t// in\n    tag_102:\n        /* \"--CODEGEN--\":4037:4123   */\n      swap1\n      pop\n        /* \"--CODEGEN--\":4134:4206   */\n      tag_103\n        /* \"--CODEGEN--\":4202:4204   */\n      0x20\n        /* \"--CODEGEN--\":4191:4200   */\n      dup4\n        /* \"--CODEGEN--\":4187:4205   */\n      add\n        /* \"--CODEGEN--\":4178:4184   */\n      dup5\n        /* \"--CODEGEN--\":4134:4206   */\n      tag_86\n      jump\t// in\n    tag_103:\n        /* \"--CODEGEN--\":3941:4216   */\n      swap4\n      swap3\n      pop\n      pop\n      pop\n      jump\t// out\n        /* \"--CODEGEN--\":4223:4883   */\n    tag_25:\n      0x00\n        /* \"--CODEGEN--\":4462:4465   */\n      0x80\n        /* \"--CODEGEN--\":4451:4460   */\n      dup3\n        /* \"--CODEGEN--\":4447:4466   */\n      add\n        /* \"--CODEGEN--\":4439:4466   */\n      swap1\n      pop\n        /* \"--CODEGEN--\":4513:4522   */\n      dup2\n        /* \"--CODEGEN--\":4507:4511   */\n      dup2\n        /* \"--CODEGEN--\":4503:4523   */\n      sub\n        /* \"--CODEGEN--\":4499:4500   */\n      0x00\n        /* \"--CODEGEN--\":4488:4497   */\n      dup4\n        /* \"--CODEGEN--\":4484:4501   */\n      add\n        /* \"--CODEGEN--\":4477:4524   */\n      mstore\n        /* \"--CODEGEN--\":4538:4616   */\n      tag_105\n        /* \"--CODEGEN--\":4611:4615   */\n      dup2\n        /* \"--CODEGEN--\":4602:4608   */\n      dup8\n        /* \"--CODEGEN--\":4538:4616   */\n      tag_70\n      jump\t// in\n    tag_105:\n        /* \"--CODEGEN--\":4530:4616   */\n      swap1\n      pop\n        /* \"--CODEGEN--\":4627:4699   */\n      tag_106\n        /* \"--CODEGEN--\":4695:4697   */\n      0x20\n        /* \"--CODEGEN--\":4684:4693   */\n      dup4\n        /* \"--CODEGEN--\":4680:4698   */\n      add\n        /* \"--CODEGEN--\":4671:4677   */\n      dup7\n        /* \"--CODEGEN--\":4627:4699   */\n      tag_86\n      jump\t// in\n    tag_106:\n        /* \"--CODEGEN--\":4710:4790   */\n      tag_107\n        /* \"--CODEGEN--\":4786:4788   */\n      0x40\n        /* \"--CODEGEN--\":4775:4784   */\n      dup4\n        /* \"--CODEGEN--\":4771:4789   */\n      add\n        /* \"--CODEGEN--\":4762:4768   */\n      dup6\n        /* \"--CODEGEN--\":4710:4790   */\n      tag_56\n      jump\t// in\n    tag_107:\n        /* \"--CODEGEN--\":4801:4873   */\n      tag_108\n        /* \"--CODEGEN--\":4869:4871   */\n      0x60\n        /* \"--CODEGEN--\":4858:4867   */\n      dup4\n        /* \"--CODEGEN--\":4854:4872   */\n      add\n        /* \"--CODEGEN--\":4845:4851   */\n      dup5\n        /* \"--CODEGEN--\":4801:4873   */\n      tag_66\n      jump\t// in\n    tag_108:\n        /* \"--CODEGEN--\":4433:4883   */\n      swap6\n      swap5\n      pop\n      pop\n      pop\n      pop\n      pop\n      jump\t// out\n        /* \"--CODEGEN--\":4890:5146   */\n    tag_39:\n      0x00\n        /* \"--CODEGEN--\":4952:4954   */\n      0x40\n        /* \"--CODEGEN--\":4946:4955   */\n      mload\n        /* \"--CODEGEN--\":4936:4955   */\n      swap1\n      pop\n        /* \"--CODEGEN--\":4990:4994   */\n      dup2\n        /* \"--CODEGEN--\":4982:4988   */\n      dup2\n        /* \"--CODEGEN--\":4978:4995   */\n      add\n        /* \"--CODEGEN--\":5089:5095   */\n      dup2\n        /* \"--CODEGEN--\":5077:5087   */\n      dup2\n        /* \"--CODEGEN--\":5074:5096   */\n      lt\n        /* \"--CODEGEN--\":5053:5071   */\n      0xffffffffffffffff\n        /* \"--CODEGEN--\":5041:5051   */\n      dup3\n        /* \"--CODEGEN--\":5038:5072   */\n      gt\n        /* \"--CODEGEN--\":5035:5097   */\n      or\n        /* \"--CODEGEN--\":5032:5034   */\n      iszero\n      tag_110\n      jumpi\n        /* \"--CODEGEN--\":5110:5111   */\n      0x00\n        /* \"--CODEGEN--\":5107:5108   */\n      dup1\n        /* \"--CODEGEN--\":5100:5112   */\n      revert\n        /* \"--CODEGEN--\":5032:5034   */\n    tag_110:\n        /* \"--CODEGEN--\":5130:5140   */\n      dup1\n        /* \"--CODEGEN--\":5126:5128   */\n      0x40\n        /* \"--CODEGEN--\":5119:5141   */\n      mstore\n        /* \"--CODEGEN--\":4930:5146   */\n      pop\n      swap2\n      swap1\n      pop\n      jump\t// out\n        /* \"--CODEGEN--\":5153:5475   */\n    tag_38:\n      0x00\n        /* \"--CODEGEN--\":5297:5315   */\n      0xffffffffffffffff\n        /* \"--CODEGEN--\":5289:5295   */\n      dup3\n        /* \"--CODEGEN--\":5286:5316   */\n      gt\n        /* \"--CODEGEN--\":5283:5285   */\n      iszero\n      tag_112\n      jumpi\n        /* \"--CODEGEN--\":5329:5330   */\n      0x00\n        /* \"--CODEGEN--\":5326:5327   */\n      dup1\n        /* \"--CODEGEN--\":5319:5331   */\n      revert\n        /* \"--CODEGEN--\":5283:5285   */\n    tag_112:\n        /* \"--CODEGEN--\":5396:5400   */\n      0x1f\n        /* \"--CODEGEN--\":5392:5401   */\n      not\n        /* \"--CODEGEN--\":5385:5389   */\n      0x1f\n        /* \"--CODEGEN--\":5377:5383   */\n      dup4\n        /* \"--CODEGEN--\":5373:5390   */\n      add\n        /* \"--CODEGEN--\":5369:5402   */\n      and\n        /* \"--CODEGEN--\":5361:5402   */\n      swap1\n      pop\n        /* \"--CODEGEN--\":5460:5464   */\n      0x20\n        /* \"--CODEGEN--\":5454:5458   */\n      dup2\n        /* \"--CODEGEN--\":5450:5465   */\n      add\n        /* \"--CODEGEN--\":5442:5465   */\n      swap1\n      pop\n        /* \"--CODEGEN--\":5220:5475   */\n      swap2\n      swap1\n      pop\n      jump\t// out\n        /* \"--CODEGEN--\":5482:5604   */\n    tag_73:\n      0x00\n        /* \"--CODEGEN--\":5576:5581   */\n      dup2\n        /* \"--CODEGEN--\":5570:5582   */\n      mload\n        /* \"--CODEGEN--\":5560:5582   */\n      swap1\n      pop\n        /* \"--CODEGEN--\":5541:5604   */\n      swap2\n      swap1\n      pop\n      jump\t// out\n        /* \"--CODEGEN--\":5612:5775   */\n    tag_75:\n      0x00\n        /* \"--CODEGEN--\":5727:5733   */\n      dup3\n        /* \"--CODEGEN--\":5722:5725   */\n      dup3\n        /* \"--CODEGEN--\":5715:5734   */\n      mstore\n        /* \"--CODEGEN--\":5764:5768   */\n      0x20\n        /* \"--CODEGEN--\":5759:5762   */\n      dup3\n        /* \"--CODEGEN--\":5755:5769   */\n      add\n        /* \"--CODEGEN--\":5740:5769   */\n      swap1\n      pop\n        /* \"--CODEGEN--\":5708:5775   */\n      swap3\n      swap2\n      pop\n      pop\n      jump\t// out\n        /* \"--CODEGEN--\":5784:5929   */\n    tag_84:\n      0x00\n        /* \"--CODEGEN--\":5920:5923   */\n      dup2\n        /* \"--CODEGEN--\":5905:5923   */\n      swap1\n      pop\n        /* \"--CODEGEN--\":5898:5929   */\n      swap3\n      swap2\n      pop\n      pop\n      jump\t// out\n        /* \"--CODEGEN--\":5937:6036   */\n    tag_64:\n      0x00\n        /* \"--CODEGEN--\":6007:6031   */\n      tag_117\n        /* \"--CODEGEN--\":6025:6030   */\n      dup3\n        /* \"--CODEGEN--\":6007:6031   */\n      tag_118\n      jump\t// in\n    tag_117:\n        /* \"--CODEGEN--\":5996:6031   */\n      swap1\n      pop\n        /* \"--CODEGEN--\":5990:6036   */\n      swap2\n      swap1\n      pop\n      jump\t// out\n        /* \"--CODEGEN--\":6043:6115   */\n    tag_69:\n      0x00\n        /* \"--CODEGEN--\":6105:6110   */\n      dup2\n        /* \"--CODEGEN--\":6094:6110   */\n      swap1\n      pop\n        /* \"--CODEGEN--\":6088:6115   */\n      swap2\n      swap1\n      pop\n      jump\t// out\n        /* \"--CODEGEN--\":6122:6243   */\n    tag_118:\n      0x00\n        /* \"--CODEGEN--\":6195:6237   */\n      0xffffffffffffffffffffffffffffffffffffffff\n        /* \"--CODEGEN--\":6188:6193   */\n      dup3\n        /* \"--CODEGEN--\":6184:6238   */\n      and\n        /* \"--CODEGEN--\":6173:6238   */\n      swap1\n      pop\n        /* \"--CODEGEN--\":6167:6243   */\n      swap2\n      swap1\n      pop\n      jump\t// out\n        /* \"--CODEGEN--\":6250:6322   */\n    tag_89:\n      0x00\n        /* \"--CODEGEN--\":6312:6317   */\n      dup2\n        /* \"--CODEGEN--\":6301:6317   */\n      swap1\n      pop\n        /* \"--CODEGEN--\":6295:6322   */\n      swap2\n      swap1\n      pop\n      jump\t// out\n        /* \"--CODEGEN--\":6329:6458   */\n    tag_59:\n      0x00\n        /* \"--CODEGEN--\":6416:6453   */\n      tag_123\n        /* \"--CODEGEN--\":6447:6452   */\n      dup3\n        /* \"--CODEGEN--\":6416:6453   */\n      tag_124\n      jump\t// in\n    tag_123:\n        /* \"--CODEGEN--\":6403:6453   */\n      swap1\n      pop\n        /* \"--CODEGEN--\":6397:6458   */\n      swap2\n      swap1\n      pop\n      jump\t// out\n        /* \"--CODEGEN--\":6465:6586   */\n    tag_124:\n      0x00\n        /* \"--CODEGEN--\":6544:6581   */\n      tag_126\n        /* \"--CODEGEN--\":6575:6580   */\n      dup3\n        /* \"--CODEGEN--\":6544:6581   */\n      tag_127\n      jump\t// in\n    tag_126:\n        /* \"--CODEGEN--\":6531:6581   */\n      swap1\n      pop\n        /* \"--CODEGEN--\":6525:6586   */\n      swap2\n      swap1\n      pop\n      jump\t// out\n        /* \"--CODEGEN--\":6593:6701   */\n    tag_127:\n      0x00\n        /* \"--CODEGEN--\":6672:6696   */\n      tag_129\n        /* \"--CODEGEN--\":6690:6695   */\n      dup3\n        /* \"--CODEGEN--\":6672:6696   */\n      tag_118\n      jump\t// in\n    tag_129:\n        /* \"--CODEGEN--\":6659:6696   */\n      swap1\n      pop\n        /* \"--CODEGEN--\":6653:6701   */\n      swap2\n      swap1\n      pop\n      jump\t// out\n        /* \"--CODEGEN--\":6709:6854   */\n    tag_42:\n        /* \"--CODEGEN--\":6790:6796   */\n      dup3\n        /* \"--CODEGEN--\":6785:6788   */\n      dup2\n        /* \"--CODEGEN--\":6780:6783   */\n      dup4\n        /* \"--CODEGEN--\":6767:6797   */\n      calldatacopy\n        /* \"--CODEGEN--\":6846:6847   */\n      0x00\n        /* \"--CODEGEN--\":6837:6843   */\n      dup4\n        /* \"--CODEGEN--\":6832:6835   */\n      dup4\n        /* \"--CODEGEN--\":6828:6844   */\n      add\n        /* \"--CODEGEN--\":6821:6848   */\n      mstore\n        /* \"--CODEGEN--\":6760:6854   */\n      pop\n      pop\n      pop\n      jump\t// out\n        /* \"--CODEGEN--\":6863:7131   */\n    tag_77:\n        /* \"--CODEGEN--\":6928:6929   */\n      0x00\n        /* \"--CODEGEN--\":6935:7036   */\n    tag_132:\n        /* \"--CODEGEN--\":6949:6955   */\n      dup4\n        /* \"--CODEGEN--\":6946:6947   */\n      dup2\n        /* \"--CODEGEN--\":6943:6956   */\n      lt\n        /* \"--CODEGEN--\":6935:7036   */\n      iszero\n      tag_134\n      jumpi\n        /* \"--CODEGEN--\":7025:7026   */\n      dup1\n        /* \"--CODEGEN--\":7020:7023   */\n      dup3\n        /* \"--CODEGEN--\":7016:7027   */\n      add\n        /* \"--CODEGEN--\":7010:7028   */\n      mload\n        /* \"--CODEGEN--\":7006:7007   */\n      dup2\n        /* \"--CODEGEN--\":7001:7004   */\n      dup5\n        /* \"--CODEGEN--\":6997:7008   */\n      add\n        /* \"--CODEGEN--\":6990:7029   */\n      mstore\n        /* \"--CODEGEN--\":6971:6973   */\n      0x20\n        /* \"--CODEGEN--\":6968:6969   */\n      dup2\n        /* \"--CODEGEN--\":6964:6974   */\n      add\n        /* \"--CODEGEN--\":6959:6974   */\n      swap1\n      pop\n        /* \"--CODEGEN--\":6935:7036   */\n      jump(tag_132)\n    tag_134:\n        /* \"--CODEGEN--\":7051:7057   */\n      dup4\n        /* \"--CODEGEN--\":7048:7049   */\n      dup2\n        /* \"--CODEGEN--\":7045:7058   */\n      gt\n        /* \"--CODEGEN--\":7042:7044   */\n      iszero\n      tag_135\n      jumpi\n        /* \"--CODEGEN--\":7116:7117   */\n      0x00\n        /* \"--CODEGEN--\":7107:7113   */\n      dup5\n        /* \"--CODEGEN--\":7102:7105   */\n      dup5\n        /* \"--CODEGEN--\":7098:7114   */\n      add\n        /* \"--CODEGEN--\":7091:7118   */\n      mstore\n        /* \"--CODEGEN--\":7042:7044   */\n    tag_135:\n        /* \"--CODEGEN--\":6912:7131   */\n      pop\n      pop\n      pop\n      pop\n      jump\t// out\n        /* \"--CODEGEN--\":7139:7242   */\n    tag_65:\n      0x00\n        /* \"--CODEGEN--\":7211:7237   */\n      tag_137\n        /* \"--CODEGEN--\":7231:7236   */\n      dup3\n        /* \"--CODEGEN--\":7211:7237   */\n      tag_138\n      jump\t// in\n    tag_137:\n        /* \"--CODEGEN--\":7200:7237   */\n      swap1\n      pop\n        /* \"--CODEGEN--\":7194:7242   */\n      swap2\n      swap1\n      pop\n      jump\t// out\n        /* \"--CODEGEN--\":7249:7338   */\n    tag_138:\n      0x00\n        /* \"--CODEGEN--\":7313:7333   */\n      tag_140\n        /* \"--CODEGEN--\":7327:7332   */\n      dup3\n        /* \"--CODEGEN--\":7313:7333   */\n      tag_141\n      jump\t// in\n    tag_140:\n        /* \"--CODEGEN--\":7302:7333   */\n      swap1\n      pop\n        /* \"--CODEGEN--\":7296:7338   */\n      swap2\n      swap1\n      pop\n      jump\t// out\n        /* \"--CODEGEN--\":7345:7419   */\n    tag_94:\n      0x00\n        /* \"--CODEGEN--\":7409:7414   */\n      dup2\n        /* \"--CODEGEN--\":7398:7414   */\n      swap1\n      pop\n        /* \"--CODEGEN--\":7392:7419   */\n      swap2\n      swap1\n      pop\n      jump\t// out\n        /* \"--CODEGEN--\":7426:7523   */\n    tag_79:\n      0x00\n        /* \"--CODEGEN--\":7514:7516   */\n      0x1f\n        /* \"--CODEGEN--\":7510:7517   */\n      not\n        /* \"--CODEGEN--\":7505:7507   */\n      0x1f\n        /* \"--CODEGEN--\":7498:7503   */\n      dup4\n        /* \"--CODEGEN--\":7494:7508   */\n      add\n        /* \"--CODEGEN--\":7490:7518   */\n      and\n        /* \"--CODEGEN--\":7480:7518   */\n      swap1\n      pop\n        /* \"--CODEGEN--\":7474:7523   */\n      swap2\n      swap1\n      pop\n      jump\t// out\n        /* \"--CODEGEN--\":7531:7625   */\n    tag_141:\n      0x00\n        /* \"--CODEGEN--\":7609:7614   */\n      dup2\n        /* \"--CODEGEN--\":7605:7607   */\n      0x60\n        /* \"--CODEGEN--\":7601:7615   */\n      shl\n        /* \"--CODEGEN--\":7579:7615   */\n      swap1\n      pop\n        /* \"--CODEGEN--\":7573:7625   */\n      swap2\n      swap1\n      pop\n      jump\t// out\n        /* \"--CODEGEN--\":7633:7750   */\n    tag_46:\n        /* \"--CODEGEN--\":7702:7726   */\n      tag_146\n        /* \"--CODEGEN--\":7720:7725   */\n      dup2\n        /* \"--CODEGEN--\":7702:7726   */\n      tag_89\n      jump\t// in\n    tag_146:\n        /* \"--CODEGEN--\":7695:7700   */\n      dup2\n        /* \"--CODEGEN--\":7692:7727   */\n      eq\n        /* \"--CODEGEN--\":7682:7684   */\n      tag_147\n      jumpi\n        /* \"--CODEGEN--\":7741:7742   */\n      0x00\n        /* \"--CODEGEN--\":7738:7739   */\n      dup1\n        /* \"--CODEGEN--\":7731:7743   */\n      revert\n        /* \"--CODEGEN--\":7682:7684   */\n    tag_147:\n        /* \"--CODEGEN--\":7676:7750   */\n      pop\n      jump\t// out\n\n    auxdata: 0xa2646970667358221220af5a873221957c6bd55d36e1e779c05d22cffb12ab6adf6f59f2ad689863cdd964736f6c634300060c0033\n}\n",
				"bytecode": {
					"linkReferences": {},
					"object": "608060405234801561001057600080fd5b50610636806100206000396000f3fe608060405234801561001057600080fd5b506004361061004c5760003560e01c80631297814e1461005157806314d07a251461005b578063abefda8114610077578063c355a3e514610093575b600080fd5b6100596100af565b005b6100756004803603810190610070919061026f565b6100dd565b005b610091600480360381019061008c919061022e565b61014e565b005b6100ad60048036038101906100a8919061026f565b610188565b005b7f9f2c8877eeb6e22e94438633d64a43489fefb752521080a2f01e64a03feb270b60405160405180910390a1565b60008282336040516020016100f493929190610388565b6040516020818303038152906040528051906020012090507fd0ff1ee28f2dbf23f694467b91653073187a19cba2610b37edd759ee2e31a871838333846040516101419493929190610413565b60405180910390a1505050565b7f5007d59453ebcd951519cabd56f016d29fe2390892307189bde962ced3d340948160405161017d91906103c1565b60405180910390a150565b7f7556e8345a443b754c690a14b2cd91df7aec27fbd662a660dd25d647f4732ed182826040516101b99291906103e3565b60405180910390a15050565b600082601f8301126101d657600080fd5b81356101e96101e48261048c565b61045f565b9150808252602083016020830185838301111561020557600080fd5b61021083828461055b565b50505092915050565b600081359050610228816105e9565b92915050565b60006020828403121561024057600080fd5b600082013567ffffffffffffffff81111561025a57600080fd5b610266848285016101c5565b91505092915050565b6000806040838503121561028257600080fd5b600083013567ffffffffffffffff81111561029c57600080fd5b6102a8858286016101c5565b92505060206102b985828601610219565b9150509250929050565b6102cc81610525565b82525050565b6102e36102de826104df565b61059d565b82525050565b6102f2816104f1565b82525050565b6000610303826104b8565b61030d81856104c3565b935061031d81856020860161056a565b610326816105cb565b840191505092915050565b600061033c826104b8565b61034681856104d4565b935061035681856020860161056a565b80840191505092915050565b61036b8161051b565b82525050565b61038261037d8261051b565b6105c1565b82525050565b60006103948286610331565b91506103a08285610371565b6020820191506103b082846102d2565b601482019150819050949350505050565b600060208201905081810360008301526103db81846102f8565b905092915050565b600060408201905081810360008301526103fd81856102f8565b905061040c6020830184610362565b9392505050565b6000608082019050818103600083015261042d81876102f8565b905061043c6020830186610362565b61044960408301856102c3565b61045660608301846102e9565b95945050505050565b6000604051905081810181811067ffffffffffffffff8211171561048257600080fd5b8060405250919050565b600067ffffffffffffffff8211156104a357600080fd5b601f19601f8301169050602081019050919050565b600081519050919050565b600082825260208201905092915050565b600081905092915050565b60006104ea826104fb565b9050919050565b6000819050919050565b600073ffffffffffffffffffffffffffffffffffffffff82169050919050565b6000819050919050565b600061053082610537565b9050919050565b600061054282610549565b9050919050565b6000610554826104fb565b9050919050565b82818337600083830152505050565b60005b8381101561058857808201518184015260208101905061056d565b83811115610597576000848401525b50505050565b60006105a8826105af565b9050919050565b60006105ba826105dc565b9050919050565b6000819050919050565b6000601f19601f8301169050919050565b60008160601b9050919050565b6105f28161051b565b81146105fd57600080fd5b5056fea2646970667358221220af5a873221957c6bd55d36e1e779c05d22cffb12ab6adf6f59f2ad689863cdd964736f6c634300060c0033",
					"opcodes": "PUSH1 0x80 PUSH1 0x40 MSTORE CALLVALUE DUP1 ISZERO PUSH2 0x10 JUMPI PUSH1 0x0 DUP1 REVERT JUMPDEST POP PUSH2 0x636 DUP1 PUSH2 0x20 PUSH1 0x0 CODECOPY PUSH1 0x0 RETURN INVALID PUSH1 0x80 PUSH1 0x40 MSTORE CALLVALUE DUP1 ISZERO PUSH2 0x10 JUMPI PUSH1 0x0 DUP1 REVERT JUMPDEST POP PUSH1 0x4 CALLDATASIZE LT PUSH2 0x4C JUMPI PUSH1 0x0 CALLDATALOAD PUSH1 0xE0 SHR DUP1 PUSH4 0x1297814E EQ PUSH2 0x51 JUMPI DUP1 PUSH4 0x14D07A25 EQ PUSH2 0x5B JUMPI DUP1 PUSH4 0xABEFDA81 EQ PUSH2 0x77 JUMPI DUP1 PUSH4 0xC355A3E5 EQ PUSH2 0x93 JUMPI JUMPDEST PUSH1 0x0 DUP1 REVERT JUMPDEST PUSH2 0x59 PUSH2 0xAF JUMP JUMPDEST STOP JUMPDEST PUSH2 0x75 PUSH1 0x4 DUP1 CALLDATASIZE SUB DUP2 ADD SWAP1 PUSH2 0x70 SWAP2 SWAP1 PUSH2 0x26F JUMP JUMPDEST PUSH2 0xDD JUMP JUMPDEST STOP JUMPDEST PUSH2 0x91 PUSH1 0x4 DUP1 CALLDATASIZE SUB DUP2 ADD SWAP1 PUSH2 0x8C SWAP2 SWAP1 PUSH2 0x22E JUMP JUMPDEST PUSH2 0x14E JUMP JUMPDEST STOP JUMPDEST PUSH2 0xAD PUSH1 0x4 DUP1 CALLDATASIZE SUB DUP2 ADD SWAP1 PUSH2 0xA8 SWAP2 SWAP1 PUSH2 0x26F JUMP JUMPDEST PUSH2 0x188 JUMP JUMPDEST STOP JUMPDEST PUSH32 0x9F2C8877EEB6E22E94438633D64A43489FEFB752521080A2F01E64A03FEB270B PUSH1 0x40 MLOAD PUSH1 0x40 MLOAD DUP1 SWAP2 SUB SWAP1 LOG1 JUMP JUMPDEST PUSH1 0x0 DUP3 DUP3 CALLER PUSH1 0x40 MLOAD PUSH1 0x20 ADD PUSH2 0xF4 SWAP4 SWAP3 SWAP2 SWAP1 PUSH2 0x388 JUMP JUMPDEST PUSH1 0x40 MLOAD PUSH1 0x20 DUP2 DUP4 SUB SUB DUP2 MSTORE SWAP1 PUSH1 0x40 MSTORE DUP1 MLOAD SWAP1 PUSH1 0x20 ADD KECCAK256 SWAP1 POP PUSH32 0xD0FF1EE28F2DBF23F694467B91653073187A19CBA2610B37EDD759EE2E31A871 DUP4 DUP4 CALLER DUP5 PUSH1 0x40 MLOAD PUSH2 0x141 SWAP5 SWAP4 SWAP3 SWAP2 SWAP1 PUSH2 0x413 JUMP JUMPDEST PUSH1 0x40 MLOAD DUP1 SWAP2 SUB SWAP1 LOG1 POP POP POP JUMP JUMPDEST PUSH32 0x5007D59453EBCD951519CABD56F016D29FE2390892307189BDE962CED3D34094 DUP2 PUSH1 0x40 MLOAD PUSH2 0x17D SWAP2 SWAP1 PUSH2 0x3C1 JUMP JUMPDEST PUSH1 0x40 MLOAD DUP1 SWAP2 SUB SWAP1 LOG1 POP JUMP JUMPDEST PUSH32 0x7556E8345A443B754C690A14B2CD91DF7AEC27FBD662A660DD25D647F4732ED1 DUP3 DUP3 PUSH1 0x40 MLOAD PUSH2 0x1B9 SWAP3 SWAP2 SWAP1 PUSH2 0x3E3 JUMP JUMPDEST PUSH1 0x40 MLOAD DUP1 SWAP2 SUB SWAP1 LOG1 POP POP JUMP JUMPDEST PUSH1 0x0 DUP3 PUSH1 0x1F DUP4 ADD SLT PUSH2 0x1D6 JUMPI PUSH1 0x0 DUP1 REVERT JUMPDEST DUP2 CALLDATALOAD PUSH2 0x1E9 PUSH2 0x1E4 DUP3 PUSH2 0x48C JUMP JUMPDEST PUSH2 0x45F JUMP JUMPDEST SWAP2 POP DUP1 DUP3 MSTORE PUSH1 0x20 DUP4 ADD PUSH1 0x20 DUP4 ADD DUP6 DUP4 DUP4 ADD GT ISZERO PUSH2 0x205 JUMPI PUSH1 0x0 DUP1 REVERT JUMPDEST PUSH2 0x210 DUP4 DUP3 DUP5 PUSH2 0x55B JUMP JUMPDEST POP POP POP SWAP3 SWAP2 POP POP JUMP JUMPDEST PUSH1 0x0 DUP2 CALLDATALOAD SWAP1 POP PUSH2 0x228 DUP2 PUSH2 0x5E9 JUMP JUMPDEST SWAP3 SWAP2 POP POP JUMP JUMPDEST PUSH1 0x0 PUSH1 0x20 DUP3 DUP5 SUB SLT ISZERO PUSH2 0x240 JUMPI PUSH1 0x0 DUP1 REVERT JUMPDEST PUSH1 0x0 DUP3 ADD CALLDATALOAD PUSH8 0xFFFFFFFFFFFFFFFF DUP2 GT ISZERO PUSH2 0x25A JUMPI PUSH1 0x0 DUP1 REVERT JUMPDEST PUSH2 0x266 DUP5 DUP3 DUP6 ADD PUSH2 0x1C5 JUMP JUMPDEST SWAP2 POP POP SWAP3 SWAP2 POP POP JUMP JUMPDEST PUSH1 0x0 DUP1 PUSH1 0x40 DUP4 DUP6 SUB SLT ISZERO PUSH2 0x282 JUMPI PUSH1 0x0 DUP1 REVERT JUMPDEST PUSH1 0x0 DUP4 ADD CALLDATALOAD PUSH8 0xFFFFFFFFFFFFFFFF DUP2 GT ISZERO PUSH2 0x29C JUMPI PUSH1 0x0 DUP1 REVERT JUMPDEST PUSH2 0x2A8 DUP6 DUP3 DUP7 ADD PUSH2 0x1C5 JUMP JUMPDEST SWAP3 POP POP PUSH1 0x20 PUSH2 0x2B9 DUP6 DUP3 DUP7 ADD PUSH2 0x219 JUMP JUMPDEST SWAP2 POP POP SWAP3 POP SWAP3 SWAP1 POP JUMP JUMPDEST PUSH2 0x2CC DUP2 PUSH2 0x525 JUMP JUMPDEST DUP3 MSTORE POP POP JUMP JUMPDEST PUSH2 0x2E3 PUSH2 0x2DE DUP3 PUSH2 0x4DF JUMP JUMPDEST PUSH2 0x59D JUMP JUMPDEST DUP3 MSTORE POP POP JUMP JUMPDEST PUSH2 0x2F2 DUP2 PUSH2 0x4F1 JUMP JUMPDEST DUP3 MSTORE POP POP JUMP JUMPDEST PUSH1 0x0 PUSH2 0x303 DUP3 PUSH2 0x4B8 JUMP JUMPDEST PUSH2 0x30D DUP2 DUP6 PUSH2 0x4C3 JUMP JUMPDEST SWAP4 POP PUSH2 0x31D DUP2 DUP6 PUSH1 0x20 DUP7 ADD PUSH2 0x56A JUMP JUMPDEST PUSH2 0x326 DUP2 PUSH2 0x5CB JUMP JUMPDEST DUP5 ADD SWAP2 POP POP SWAP3 SWAP2 POP POP JUMP JUMPDEST PUSH1 0x0 PUSH2 0x33C DUP3 PUSH2 0x4B8 JUMP JUMPDEST PUSH2 0x346 DUP2 DUP6 PUSH2 0x4D4 JUMP JUMPDEST SWAP4 POP PUSH2 0x356 DUP2 DUP6 PUSH1 0x20 DUP7 ADD PUSH2 0x56A JUMP JUMPDEST DUP1 DUP5 ADD SWAP2 POP POP SWAP3 SWAP2 POP POP JUMP JUMPDEST PUSH2 0x36B DUP2 PUSH2 0x51B JUMP JUMPDEST DUP3 MSTORE POP POP JUMP JUMPDEST PUSH2 0x382 PUSH2 0x37D DUP3 PUSH2 0x51B JUMP JUMPDEST PUSH2 0x5C1 JUMP JUMPDEST DUP3 MSTORE POP POP JUMP JUMPDEST PUSH1 0x0 PUSH2 0x394 DUP3 DUP7 PUSH2 0x331 JUMP JUMPDEST SWAP2 POP PUSH2 0x3A0 DUP3 DUP6 PUSH2 0x371 JUMP JUMPDEST PUSH1 0x20 DUP3 ADD SWAP2 POP PUSH2 0x3B0 DUP3 DUP5 PUSH2 0x2D2 JUMP JUMPDEST PUSH1 0x14 DUP3 ADD SWAP2 POP DUP2 SWAP1 POP SWAP5 SWAP4 POP POP POP POP JUMP JUMPDEST PUSH1 0x0 PUSH1 0x20 DUP3 ADD SWAP1 POP DUP2 DUP2 SUB PUSH1 0x0 DUP4 ADD MSTORE PUSH2 0x3DB DUP2 DUP5 PUSH2 0x2F8 JUMP JUMPDEST SWAP1 POP SWAP3 SWAP2 POP POP JUMP JUMPDEST PUSH1 0x0 PUSH1 0x40 DUP3 ADD SWAP1 POP DUP2 DUP2 SUB PUSH1 0x0 DUP4 ADD MSTORE PUSH2 0x3FD DUP2 DUP6 PUSH2 0x2F8 JUMP JUMPDEST SWAP1 POP PUSH2 0x40C PUSH1 0x20 DUP4 ADD DUP5 PUSH2 0x362 JUMP JUMPDEST SWAP4 SWAP3 POP POP POP JUMP JUMPDEST PUSH1 0x0 PUSH1 0x80 DUP3 ADD SWAP1 POP DUP2 DUP2 SUB PUSH1 0x0 DUP4 ADD MSTORE PUSH2 0x42D DUP2 DUP8 PUSH2 0x2F8 JUMP JUMPDEST SWAP1 POP PUSH2 0x43C PUSH1 0x20 DUP4 ADD DUP7 PUSH2 0x362 JUMP JUMPDEST PUSH2 0x449 PUSH1 0x40 DUP4 ADD DUP6 PUSH2 0x2C3 JUMP JUMPDEST PUSH2 0x456 PUSH1 0x60 DUP4 ADD DUP5 PUSH2 0x2E9 JUMP JUMPDEST SWAP6 SWAP5 POP POP POP POP POP JUMP JUMPDEST PUSH1 0x0 PUSH1 0x40 MLOAD SWAP1 POP DUP2 DUP2 ADD DUP2 DUP2 LT PUSH8 0xFFFFFFFFFFFFFFFF DUP3 GT OR ISZERO PUSH2 0x482 JUMPI PUSH1 0x0 DUP1 REVERT JUMPDEST DUP1 PUSH1 0x40 MSTORE POP SWAP2 SWAP1 POP JUMP JUMPDEST PUSH1 0x0 PUSH8 0xFFFFFFFFFFFFFFFF DUP3 GT ISZERO PUSH2 0x4A3 JUMPI PUSH1 0x0 DUP1 REVERT JUMPDEST PUSH1 0x1F NOT PUSH1 0x1F DUP4 ADD AND SWAP1 POP PUSH1 0x20 DUP2 ADD SWAP1 POP SWAP2 SWAP1 POP JUMP JUMPDEST PUSH1 0x0 DUP2 MLOAD SWAP1 POP SWAP2 SWAP1 POP JUMP JUMPDEST PUSH1 0x0 DUP3 DUP3 MSTORE PUSH1 0x20 DUP3 ADD SWAP1 POP SWAP3 SWAP2 POP POP JUMP JUMPDEST PUSH1 0x0 DUP2 SWAP1 POP SWAP3 SWAP2 POP POP JUMP JUMPDEST PUSH1 0x0 PUSH2 0x4EA DUP3 PUSH2 0x4FB JUMP JUMPDEST SWAP1 POP SWAP2 SWAP1 POP JUMP JUMPDEST PUSH1 0x0 DUP2 SWAP1 POP SWAP2 SWAP1 POP JUMP JUMPDEST PUSH1 0x0 PUSH20 0xFFFFFFFFFFFFFFFFFFFFFFFFFFFFFFFFFFFFFFFF DUP3 AND SWAP1 POP SWAP2 SWAP1 POP JUMP JUMPDEST PUSH1 0x0 DUP2 SWAP1 POP SWAP2 SWAP1 POP JUMP JUMPDEST PUSH1 0x0 PUSH2 0x530 DUP3 PUSH2 0x537 JUMP JUMPDEST SWAP1 POP SWAP2 SWAP1 POP JUMP JUMPDEST PUSH1 0x0 PUSH2 0x542 DUP3 PUSH2 0x549 JUMP JUMPDEST SWAP1 POP SWAP2 SWAP1 POP JUMP JUMPDEST PUSH1 0x0 PUSH2 0x554 DUP3 PUSH2 0x4FB JUMP JUMPDEST SWAP1 POP SWAP2 SWAP1 POP JUMP JUMPDEST DUP3 DUP2 DUP4 CALLDATACOPY PUSH1 0x0 DUP4 DUP4 ADD MSTORE POP POP POP JUMP JUMPDEST PUSH1 0x0 JUMPDEST DUP4 DUP2 LT ISZERO PUSH2 0x588 JUMPI DUP1 DUP3 ADD MLOAD DUP2 DUP5 ADD MSTORE PUSH1 0x20 DUP2 ADD SWAP1 POP PUSH2 0x56D JUMP JUMPDEST DUP4 DUP2 GT ISZERO PUSH2 0x597 JUMPI PUSH1 0x0 DUP5 DUP5 ADD MSTORE JUMPDEST POP POP POP POP JUMP JUMPDEST PUSH1 0x0 PUSH2 0x5A8 DUP3 PUSH2 0x5AF JUMP JUMPDEST SWAP1 POP SWAP2 SWAP1 POP JUMP JUMPDEST PUSH1 0x0 PUSH2 0x5BA DUP3 PUSH2 0x5DC JUMP JUMPDEST SWAP1 POP SWAP2 SWAP1 POP JUMP JUMPDEST PUSH1 0x0 DUP2 SWAP1 POP SWAP2 SWAP1 POP JUMP JUMPDEST PUSH1 0x0 PUSH1 0x1F NOT PUSH1 0x1F DUP4 ADD AND SWAP1 POP SWAP2 SWAP1 POP JUMP JUMPDEST PUSH1 0x0 DUP2 PUSH1 0x60 SHL SWAP1 POP SWAP2 SWAP1 POP JUMP JUMPDEST PUSH2 0x5F2 DUP2 PUSH2 0x51B JUMP JUMPDEST DUP2 EQ PUSH2 0x5FD JUMPI PUSH1 0x0 DUP1 REVERT JUMPDEST POP JUMP INVALID LOG2 PUSH5 0x6970667358 0x22 SLT KECCAK256 0xAF GAS DUP8 ORIGIN 0x21 SWAP6 PUSH29 0x6BD55D36E1E779C05D22CFFB12AB6ADF6F59F2AD689863CDD964736F6C PUSH4 0x4300060C STOP CALLER "
				},
				"gasEstimates": {
					"creation": {
						"codeDepositCost": "318000",
						"executionCost": "355",
						"totalCost": "318355"
					},
					"external": {
						"AbortarMision()": "899",
						"EmitirEvento1(string)": "infinite",
						"EmitirEvento2(string,uint256)": "infinite",
						"EmitirEvento3(string,uint256)": "infinite"
					}
				},
				"methodIdentifiers": {
					"AbortarMision()": "1297814e",
					"EmitirEvento1(string)": "abefda81",
					"EmitirEvento2(string,uint256)": "c355a3e5",
					"EmitirEvento3(string,uint256)": "14d07a25"
				}
			},
			"storageLayout": {
				"storage": [],
				"types": null
			},
			"userdoc": {
				"kind": "user",
				"methods": {},
				"version": 1
			}
		}
	}
}