{
	"Propiedades de transacciones y bloques/funciones_globales.sol": {
		"hash": {
			"abi": [
				{
					"inputs": [
						{
							"internalType": "string",
							"name": "_cadena",
							"type": "string"
						},
						{
							"internalType": "uint256",
							"name": "_k",
							"type": "uint256"
						},
						{
							"internalType": "address",
							"name": "_direccion",
							"type": "address"
						}
					],
					"name": "calcular_hash",
					"outputs": [
						{
							"internalType": "bytes32",
							"name": "",
							"type": "bytes32"
						}
					],
					"stateMutability": "pure",
					"type": "function"
				},
				{
					"inputs": [
						{
							"internalType": "string",
							"name": "_cadena",
							"type": "string"
						}
					],
					"name": "calcular_hash",
					"outputs": [
						{
							"internalType": "bytes32",
							"name": "",
							"type": "bytes32"
						}
					],
					"stateMutability": "pure",
					"type": "function"
				}
			],
			"devdoc": {
				"kind": "dev",
				"methods": {},
				"version": 1
			},
			"evm": {
				"assembly": "    /* \"Propiedades de transacciones y bloques/funciones_globales.sol\":529:885  contract hash{\r... */\n  mstore(0x40, 0x80)\n  callvalue\n  dup1\n  iszero\n  tag_1\n  jumpi\n  0x00\n  dup1\n  revert\ntag_1:\n  pop\n  dataSize(sub_0)\n  dup1\n  dataOffset(sub_0)\n  0x00\n  codecopy\n  0x00\n  return\nstop\n\nsub_0: assembly {\n        /* \"Propiedades de transacciones y bloques/funciones_globales.sol\":529:885  contract hash{\r... */\n      mstore(0x40, 0x80)\n      callvalue\n      dup1\n      iszero\n      tag_1\n      jumpi\n      0x00\n      dup1\n      revert\n    tag_1:\n      pop\n      jumpi(tag_2, lt(calldatasize, 0x04))\n      shr(0xe0, calldataload(0x00))\n      dup1\n      0x60ff4196\n      eq\n      tag_3\n      jumpi\n      dup1\n      0x9629feb5\n      eq\n      tag_4\n      jumpi\n    tag_2:\n      0x00\n      dup1\n      revert\n        /* \"Propiedades de transacciones y bloques/funciones_globales.sol\":700:882  function calcular_hash(string memory _cadena, uint _k, address _direccion) public pure returns (bytes32){\r... */\n    tag_3:\n      tag_5\n      0x04\n      dup1\n      calldatasize\n      sub\n      dup2\n      add\n      swap1\n      tag_6\n      swap2\n      swap1\n      tag_7\n      jump\t// in\n    tag_6:\n      tag_8\n      jump\t// in\n    tag_5:\n      mload(0x40)\n      tag_9\n      swap2\n      swap1\n      tag_10\n      jump\t// in\n    tag_9:\n      mload(0x40)\n      dup1\n      swap2\n      sub\n      swap1\n      return\n        /* \"Propiedades de transacciones y bloques/funciones_globales.sol\":551:688  function calcular_hash(string memory _cadena) public pure returns (bytes32){\r... */\n    tag_4:\n      tag_11\n      0x04\n      dup1\n      calldatasize\n      sub\n      dup2\n      add\n      swap1\n      tag_12\n      swap2\n      swap1\n      tag_13\n      jump\t// in\n    tag_12:\n      tag_14\n      jump\t// in\n    tag_11:\n      mload(0x40)\n      tag_15\n      swap2\n      swap1\n      tag_10\n      jump\t// in\n    tag_15:\n      mload(0x40)\n      dup1\n      swap2\n      sub\n      swap1\n      return\n        /* \"Propiedades de transacciones y bloques/funciones_globales.sol\":700:882  function calcular_hash(string memory _cadena, uint _k, address _direccion) public pure returns (bytes32){\r... */\n    tag_8:\n        /* \"Propiedades de transacciones y bloques/funciones_globales.sol\":796:803  bytes32 */\n      0x00\n        /* \"Propiedades de transacciones y bloques/funciones_globales.sol\":849:856  _cadena */\n      dup4\n        /* \"Propiedades de transacciones y bloques/funciones_globales.sol\":858:860  _k */\n      dup4\n        /* \"Propiedades de transacciones y bloques/funciones_globales.sol\":862:872  _direccion */\n      dup4\n        /* \"Propiedades de transacciones y bloques/funciones_globales.sol\":832:873  abi.encodePacked(_cadena, _k, _direccion) */\n      add(0x20, mload(0x40))\n      tag_17\n      swap4\n      swap3\n      swap2\n      swap1\n      tag_18\n      jump\t// in\n    tag_17:\n      mload(0x40)\n      0x20\n      dup2\n      dup4\n      sub\n      sub\n      dup2\n      mstore\n      swap1\n      0x40\n      mstore\n        /* \"Propiedades de transacciones y bloques/funciones_globales.sol\":822:874  keccak256(abi.encodePacked(_cadena, _k, _direccion)) */\n      dup1\n      mload\n      swap1\n      0x20\n      add\n      keccak256\n        /* \"Propiedades de transacciones y bloques/funciones_globales.sol\":815:874  return keccak256(abi.encodePacked(_cadena, _k, _direccion)) */\n      swap1\n      pop\n        /* \"Propiedades de transacciones y bloques/funciones_globales.sol\":700:882  function calcular_hash(string memory _cadena, uint _k, address _direccion) public pure returns (bytes32){\r... */\n      swap4\n      swap3\n      pop\n      pop\n      pop\n      jump\t// out\n        /* \"Propiedades de transacciones y bloques/funciones_globales.sol\":551:688  function calcular_hash(string memory _cadena) public pure returns (bytes32){\r... */\n    tag_14:\n        /* \"Propiedades de transacciones y bloques/funciones_globales.sol\":618:625  bytes32 */\n      0x00\n        /* \"Propiedades de transacciones y bloques/funciones_globales.sol\":671:678  _cadena */\n      dup2\n        /* \"Propiedades de transacciones y bloques/funciones_globales.sol\":654:679  abi.encodePacked(_cadena) */\n      add(0x20, mload(0x40))\n      tag_20\n      swap2\n      swap1\n      tag_21\n      jump\t// in\n    tag_20:\n      mload(0x40)\n      0x20\n      dup2\n      dup4\n      sub\n      sub\n      dup2\n      mstore\n      swap1\n      0x40\n      mstore\n        /* \"Propiedades de transacciones y bloques/funciones_globales.sol\":644:680  keccak256(abi.encodePacked(_cadena)) */\n      dup1\n      mload\n      swap1\n      0x20\n      add\n      keccak256\n        /* \"Propiedades de transacciones y bloques/funciones_globales.sol\":637:680  return keccak256(abi.encodePacked(_cadena)) */\n      swap1\n      pop\n        /* \"Propiedades de transacciones y bloques/funciones_globales.sol\":551:688  function calcular_hash(string memory _cadena) public pure returns (bytes32){\r... */\n      swap2\n      swap1\n      pop\n      jump\t// out\n        /* \"--CODEGEN--\":5:135   */\n    tag_23:\n      0x00\n        /* \"--CODEGEN--\":85:91   */\n      dup2\n        /* \"--CODEGEN--\":72:92   */\n      calldataload\n        /* \"--CODEGEN--\":63:92   */\n      swap1\n      pop\n        /* \"--CODEGEN--\":97:130   */\n      tag_25\n        /* \"--CODEGEN--\":124:129   */\n      dup2\n        /* \"--CODEGEN--\":97:130   */\n      tag_26\n      jump\t// in\n    tag_25:\n        /* \"--CODEGEN--\":57:135   */\n      swap3\n      swap2\n      pop\n      pop\n      jump\t// out\n        /* \"--CODEGEN--\":143:585   */\n    tag_27:\n      0x00\n        /* \"--CODEGEN--\":245:248   */\n      dup3\n        /* \"--CODEGEN--\":238:242   */\n      0x1f\n        /* \"--CODEGEN--\":230:236   */\n      dup4\n        /* \"--CODEGEN--\":226:243   */\n      add\n        /* \"--CODEGEN--\":222:249   */\n      slt\n        /* \"--CODEGEN--\":212:214   */\n      tag_29\n      jumpi\n        /* \"--CODEGEN--\":263:264   */\n      0x00\n        /* \"--CODEGEN--\":260:261   */\n      dup1\n        /* \"--CODEGEN--\":253:265   */\n      revert\n        /* \"--CODEGEN--\":212:214   */\n    tag_29:\n        /* \"--CODEGEN--\":300:306   */\n      dup2\n        /* \"--CODEGEN--\":287:307   */\n      calldataload\n        /* \"--CODEGEN--\":322:387   */\n      tag_30\n        /* \"--CODEGEN--\":337:386   */\n      tag_31\n        /* \"--CODEGEN--\":379:385   */\n      dup3\n        /* \"--CODEGEN--\":337:386   */\n      tag_32\n      jump\t// in\n    tag_31:\n        /* \"--CODEGEN--\":322:387   */\n      tag_33\n      jump\t// in\n    tag_30:\n        /* \"--CODEGEN--\":313:387   */\n      swap2\n      pop\n        /* \"--CODEGEN--\":407:413   */\n      dup1\n        /* \"--CODEGEN--\":400:405   */\n      dup3\n        /* \"--CODEGEN--\":393:414   */\n      mstore\n        /* \"--CODEGEN--\":443:447   */\n      0x20\n        /* \"--CODEGEN--\":435:441   */\n      dup4\n        /* \"--CODEGEN--\":431:448   */\n      add\n        /* \"--CODEGEN--\":476:480   */\n      0x20\n        /* \"--CODEGEN--\":469:474   */\n      dup4\n        /* \"--CODEGEN--\":465:481   */\n      add\n        /* \"--CODEGEN--\":511:514   */\n      dup6\n        /* \"--CODEGEN--\":502:508   */\n      dup4\n        /* \"--CODEGEN--\":497:500   */\n      dup4\n        /* \"--CODEGEN--\":493:509   */\n      add\n        /* \"--CODEGEN--\":490:515   */\n      gt\n        /* \"--CODEGEN--\":487:489   */\n      iszero\n      tag_34\n      jumpi\n        /* \"--CODEGEN--\":528:529   */\n      0x00\n        /* \"--CODEGEN--\":525:526   */\n      dup1\n        /* \"--CODEGEN--\":518:530   */\n      revert\n        /* \"--CODEGEN--\":487:489   */\n    tag_34:\n        /* \"--CODEGEN--\":538:579   */\n      tag_35\n        /* \"--CODEGEN--\":572:578   */\n      dup4\n        /* \"--CODEGEN--\":567:570   */\n      dup3\n        /* \"--CODEGEN--\":562:565   */\n      dup5\n        /* \"--CODEGEN--\":538:579   */\n      tag_36\n      jump\t// in\n    tag_35:\n        /* \"--CODEGEN--\":205:585   */\n      pop\n      pop\n      pop\n      swap3\n      swap2\n      pop\n      pop\n      jump\t// out\n        /* \"--CODEGEN--\":593:723   */\n    tag_37:\n      0x00\n        /* \"--CODEGEN--\":673:679   */\n      dup2\n        /* \"--CODEGEN--\":660:680   */\n      calldataload\n        /* \"--CODEGEN--\":651:680   */\n      swap1\n      pop\n        /* \"--CODEGEN--\":685:718   */\n      tag_39\n        /* \"--CODEGEN--\":712:717   */\n      dup2\n        /* \"--CODEGEN--\":685:718   */\n      tag_40\n      jump\t// in\n    tag_39:\n        /* \"--CODEGEN--\":645:723   */\n      swap3\n      swap2\n      pop\n      pop\n      jump\t// out\n        /* \"--CODEGEN--\":730:1077   */\n    tag_13:\n      0x00\n        /* \"--CODEGEN--\":844:846   */\n      0x20\n        /* \"--CODEGEN--\":832:841   */\n      dup3\n        /* \"--CODEGEN--\":823:830   */\n      dup5\n        /* \"--CODEGEN--\":819:842   */\n      sub\n        /* \"--CODEGEN--\":815:847   */\n      slt\n        /* \"--CODEGEN--\":812:814   */\n      iszero\n      tag_42\n      jumpi\n        /* \"--CODEGEN--\":860:861   */\n      0x00\n        /* \"--CODEGEN--\":857:858   */\n      dup1\n        /* \"--CODEGEN--\":850:862   */\n      revert\n        /* \"--CODEGEN--\":812:814   */\n    tag_42:\n        /* \"--CODEGEN--\":923:924   */\n      0x00\n        /* \"--CODEGEN--\":912:921   */\n      dup3\n        /* \"--CODEGEN--\":908:925   */\n      add\n        /* \"--CODEGEN--\":895:926   */\n      calldataload\n        /* \"--CODEGEN--\":946:964   */\n      0xffffffffffffffff\n        /* \"--CODEGEN--\":938:944   */\n      dup2\n        /* \"--CODEGEN--\":935:965   */\n      gt\n        /* \"--CODEGEN--\":932:934   */\n      iszero\n      tag_43\n      jumpi\n        /* \"--CODEGEN--\":978:979   */\n      0x00\n        /* \"--CODEGEN--\":975:976   */\n      dup1\n        /* \"--CODEGEN--\":968:980   */\n      revert\n        /* \"--CODEGEN--\":932:934   */\n    tag_43:\n        /* \"--CODEGEN--\":998:1061   */\n      tag_44\n        /* \"--CODEGEN--\":1053:1060   */\n      dup5\n        /* \"--CODEGEN--\":1044:1050   */\n      dup3\n        /* \"--CODEGEN--\":1033:1042   */\n      dup6\n        /* \"--CODEGEN--\":1029:1051   */\n      add\n        /* \"--CODEGEN--\":998:1061   */\n      tag_27\n      jump\t// in\n    tag_44:\n        /* \"--CODEGEN--\":988:1061   */\n      swap2\n      pop\n        /* \"--CODEGEN--\":874:1067   */\n      pop\n        /* \"--CODEGEN--\":806:1077   */\n      swap3\n      swap2\n      pop\n      pop\n      jump\t// out\n        /* \"--CODEGEN--\":1084:1681   */\n    tag_7:\n      0x00\n      dup1\n      0x00\n        /* \"--CODEGEN--\":1232:1234   */\n      0x60\n        /* \"--CODEGEN--\":1220:1229   */\n      dup5\n        /* \"--CODEGEN--\":1211:1218   */\n      dup7\n        /* \"--CODEGEN--\":1207:1230   */\n      sub\n        /* \"--CODEGEN--\":1203:1235   */\n      slt\n        /* \"--CODEGEN--\":1200:1202   */\n      iszero\n      tag_46\n      jumpi\n        /* \"--CODEGEN--\":1248:1249   */\n      0x00\n        /* \"--CODEGEN--\":1245:1246   */\n      dup1\n        /* \"--CODEGEN--\":1238:1250   */\n      revert\n        /* \"--CODEGEN--\":1200:1202   */\n    tag_46:\n        /* \"--CODEGEN--\":1311:1312   */\n      0x00\n        /* \"--CODEGEN--\":1300:1309   */\n      dup5\n        /* \"--CODEGEN--\":1296:1313   */\n      add\n        /* \"--CODEGEN--\":1283:1314   */\n      calldataload\n        /* \"--CODEGEN--\":1334:1352   */\n      0xffffffffffffffff\n        /* \"--CODEGEN--\":1326:1332   */\n      dup2\n        /* \"--CODEGEN--\":1323:1353   */\n      gt\n        /* \"--CODEGEN--\":1320:1322   */\n      iszero\n      tag_47\n      jumpi\n        /* \"--CODEGEN--\":1366:1367   */\n      0x00\n        /* \"--CODEGEN--\":1363:1364   */\n      dup1\n        /* \"--CODEGEN--\":1356:1368   */\n      revert\n        /* \"--CODEGEN--\":1320:1322   */\n    tag_47:\n        /* \"--CODEGEN--\":1386:1449   */\n      tag_48\n        /* \"--CODEGEN--\":1441:1448   */\n      dup7\n        /* \"--CODEGEN--\":1432:1438   */\n      dup3\n        /* \"--CODEGEN--\":1421:1430   */\n      dup8\n        /* \"--CODEGEN--\":1417:1439   */\n      add\n        /* \"--CODEGEN--\":1386:1449   */\n      tag_27\n      jump\t// in\n    tag_48:\n        /* \"--CODEGEN--\":1376:1449   */\n      swap4\n      pop\n        /* \"--CODEGEN--\":1262:1455   */\n      pop\n        /* \"--CODEGEN--\":1486:1488   */\n      0x20\n        /* \"--CODEGEN--\":1504:1557   */\n      tag_49\n        /* \"--CODEGEN--\":1549:1556   */\n      dup7\n        /* \"--CODEGEN--\":1540:1546   */\n      dup3\n        /* \"--CODEGEN--\":1529:1538   */\n      dup8\n        /* \"--CODEGEN--\":1525:1547   */\n      add\n        /* \"--CODEGEN--\":1504:1557   */\n      tag_37\n      jump\t// in\n    tag_49:\n        /* \"--CODEGEN--\":1494:1557   */\n      swap3\n      pop\n        /* \"--CODEGEN--\":1465:1563   */\n      pop\n        /* \"--CODEGEN--\":1594:1596   */\n      0x40\n        /* \"--CODEGEN--\":1612:1665   */\n      tag_50\n        /* \"--CODEGEN--\":1657:1664   */\n      dup7\n        /* \"--CODEGEN--\":1648:1654   */\n      dup3\n        /* \"--CODEGEN--\":1637:1646   */\n      dup8\n        /* \"--CODEGEN--\":1633:1655   */\n      add\n        /* \"--CODEGEN--\":1612:1665   */\n      tag_23\n      jump\t// in\n    tag_50:\n        /* \"--CODEGEN--\":1602:1665   */\n      swap2\n      pop\n        /* \"--CODEGEN--\":1573:1671   */\n      pop\n        /* \"--CODEGEN--\":1194:1681   */\n      swap3\n      pop\n      swap3\n      pop\n      swap3\n      jump\t// out\n        /* \"--CODEGEN--\":1688:1840   */\n    tag_51:\n        /* \"--CODEGEN--\":1789:1834   */\n      tag_53\n        /* \"--CODEGEN--\":1809:1833   */\n      tag_54\n        /* \"--CODEGEN--\":1827:1832   */\n      dup3\n        /* \"--CODEGEN--\":1809:1833   */\n      tag_55\n      jump\t// in\n    tag_54:\n        /* \"--CODEGEN--\":1789:1834   */\n      tag_56\n      jump\t// in\n    tag_53:\n        /* \"--CODEGEN--\":1784:1787   */\n      dup3\n        /* \"--CODEGEN--\":1777:1835   */\n      mstore\n        /* \"--CODEGEN--\":1771:1840   */\n      pop\n      pop\n      jump\t// out\n        /* \"--CODEGEN--\":1847:1960   */\n    tag_57:\n        /* \"--CODEGEN--\":1930:1954   */\n      tag_59\n        /* \"--CODEGEN--\":1948:1953   */\n      dup2\n        /* \"--CODEGEN--\":1930:1954   */\n      tag_60\n      jump\t// in\n    tag_59:\n        /* \"--CODEGEN--\":1925:1928   */\n      dup3\n        /* \"--CODEGEN--\":1918:1955   */\n      mstore\n        /* \"--CODEGEN--\":1912:1960   */\n      pop\n      pop\n      jump\t// out\n        /* \"--CODEGEN--\":1967:2327   */\n    tag_61:\n      0x00\n        /* \"--CODEGEN--\":2097:2136   */\n      tag_63\n        /* \"--CODEGEN--\":2130:2135   */\n      dup3\n        /* \"--CODEGEN--\":2097:2136   */\n      tag_64\n      jump\t// in\n    tag_63:\n        /* \"--CODEGEN--\":2148:2237   */\n      tag_65\n        /* \"--CODEGEN--\":2230:2236   */\n      dup2\n        /* \"--CODEGEN--\":2225:2228   */\n      dup6\n        /* \"--CODEGEN--\":2148:2237   */\n      tag_66\n      jump\t// in\n    tag_65:\n        /* \"--CODEGEN--\":2141:2237   */\n      swap4\n      pop\n        /* \"--CODEGEN--\":2242:2294   */\n      tag_67\n        /* \"--CODEGEN--\":2287:2293   */\n      dup2\n        /* \"--CODEGEN--\":2282:2285   */\n      dup6\n        /* \"--CODEGEN--\":2275:2279   */\n      0x20\n        /* \"--CODEGEN--\":2268:2273   */\n      dup7\n        /* \"--CODEGEN--\":2264:2280   */\n      add\n        /* \"--CODEGEN--\":2242:2294   */\n      tag_68\n      jump\t// in\n    tag_67:\n        /* \"--CODEGEN--\":2315:2321   */\n      dup1\n        /* \"--CODEGEN--\":2310:2313   */\n      dup5\n        /* \"--CODEGEN--\":2306:2322   */\n      add\n        /* \"--CODEGEN--\":2299:2322   */\n      swap2\n      pop\n        /* \"--CODEGEN--\":2077:2327   */\n      pop\n      swap3\n      swap2\n      pop\n      pop\n      jump\t// out\n        /* \"--CODEGEN--\":2334:2486   */\n    tag_69:\n        /* \"--CODEGEN--\":2435:2480   */\n      tag_71\n        /* \"--CODEGEN--\":2455:2479   */\n      tag_72\n        /* \"--CODEGEN--\":2473:2478   */\n      dup3\n        /* \"--CODEGEN--\":2455:2479   */\n      tag_73\n      jump\t// in\n    tag_72:\n        /* \"--CODEGEN--\":2435:2480   */\n      tag_74\n      jump\t// in\n    tag_71:\n        /* \"--CODEGEN--\":2430:2433   */\n      dup3\n        /* \"--CODEGEN--\":2423:2481   */\n      mstore\n        /* \"--CODEGEN--\":2417:2486   */\n      pop\n      pop\n      jump\t// out\n        /* \"--CODEGEN--\":2493:2768   */\n    tag_21:\n      0x00\n        /* \"--CODEGEN--\":2648:2743   */\n      tag_76\n        /* \"--CODEGEN--\":2739:2742   */\n      dup3\n        /* \"--CODEGEN--\":2730:2736   */\n      dup5\n        /* \"--CODEGEN--\":2648:2743   */\n      tag_61\n      jump\t// in\n    tag_76:\n        /* \"--CODEGEN--\":2641:2743   */\n      swap2\n      pop\n        /* \"--CODEGEN--\":2760:2763   */\n      dup2\n        /* \"--CODEGEN--\":2753:2763   */\n      swap1\n      pop\n        /* \"--CODEGEN--\":2629:2768   */\n      swap3\n      swap2\n      pop\n      pop\n      jump\t// out\n        /* \"--CODEGEN--\":2775:3328   */\n    tag_18:\n      0x00\n        /* \"--CODEGEN--\":2986:3081   */\n      tag_78\n        /* \"--CODEGEN--\":3077:3080   */\n      dup3\n        /* \"--CODEGEN--\":3068:3074   */\n      dup7\n        /* \"--CODEGEN--\":2986:3081   */\n      tag_61\n      jump\t// in\n    tag_78:\n        /* \"--CODEGEN--\":2979:3081   */\n      swap2\n      pop\n        /* \"--CODEGEN--\":3092:3167   */\n      tag_79\n        /* \"--CODEGEN--\":3163:3166   */\n      dup3\n        /* \"--CODEGEN--\":3154:3160   */\n      dup6\n        /* \"--CODEGEN--\":3092:3167   */\n      tag_69\n      jump\t// in\n    tag_79:\n        /* \"--CODEGEN--\":3189:3191   */\n      0x20\n        /* \"--CODEGEN--\":3184:3187   */\n      dup3\n        /* \"--CODEGEN--\":3180:3192   */\n      add\n        /* \"--CODEGEN--\":3173:3192   */\n      swap2\n      pop\n        /* \"--CODEGEN--\":3203:3278   */\n      tag_80\n        /* \"--CODEGEN--\":3274:3277   */\n      dup3\n        /* \"--CODEGEN--\":3265:3271   */\n      dup5\n        /* \"--CODEGEN--\":3203:3278   */\n      tag_51\n      jump\t// in\n    tag_80:\n        /* \"--CODEGEN--\":3300:3302   */\n      0x14\n        /* \"--CODEGEN--\":3295:3298   */\n      dup3\n        /* \"--CODEGEN--\":3291:3303   */\n      add\n        /* \"--CODEGEN--\":3284:3303   */\n      swap2\n      pop\n        /* \"--CODEGEN--\":3320:3323   */\n      dup2\n        /* \"--CODEGEN--\":3313:3323   */\n      swap1\n      pop\n        /* \"--CODEGEN--\":2967:3328   */\n      swap5\n      swap4\n      pop\n      pop\n      pop\n      pop\n      jump\t// out\n        /* \"--CODEGEN--\":3335:3557   */\n    tag_10:\n      0x00\n        /* \"--CODEGEN--\":3462:3464   */\n      0x20\n        /* \"--CODEGEN--\":3451:3460   */\n      dup3\n        /* \"--CODEGEN--\":3447:3465   */\n      add\n        /* \"--CODEGEN--\":3439:3465   */\n      swap1\n      pop\n        /* \"--CODEGEN--\":3476:3547   */\n      tag_82\n        /* \"--CODEGEN--\":3544:3545   */\n      0x00\n        /* \"--CODEGEN--\":3533:3542   */\n      dup4\n        /* \"--CODEGEN--\":3529:3546   */\n      add\n        /* \"--CODEGEN--\":3520:3526   */\n      dup5\n        /* \"--CODEGEN--\":3476:3547   */\n      tag_57\n      jump\t// in\n    tag_82:\n        /* \"--CODEGEN--\":3433:3557   */\n      swap3\n      swap2\n      pop\n      pop\n      jump\t// out\n        /* \"--CODEGEN--\":3564:3820   */\n    tag_33:\n      0x00\n        /* \"--CODEGEN--\":3626:3628   */\n      0x40\n        /* \"--CODEGEN--\":3620:3629   */\n      mload\n        /* \"--CODEGEN--\":3610:3629   */\n      swap1\n      pop\n        /* \"--CODEGEN--\":3664:3668   */\n      dup2\n        /* \"--CODEGEN--\":3656:3662   */\n      dup2\n        /* \"--CODEGEN--\":3652:3669   */\n      add\n        /* \"--CODEGEN--\":3763:3769   */\n      dup2\n        /* \"--CODEGEN--\":3751:3761   */\n      dup2\n        /* \"--CODEGEN--\":3748:3770   */\n      lt\n        /* \"--CODEGEN--\":3727:3745   */\n      0xffffffffffffffff\n        /* \"--CODEGEN--\":3715:3725   */\n      dup3\n        /* \"--CODEGEN--\":3712:3746   */\n      gt\n        /* \"--CODEGEN--\":3709:3771   */\n      or\n        /* \"--CODEGEN--\":3706:3708   */\n      iszero\n      tag_84\n      jumpi\n        /* \"--CODEGEN--\":3784:3785   */\n      0x00\n        /* \"--CODEGEN--\":3781:3782   */\n      dup1\n        /* \"--CODEGEN--\":3774:3786   */\n      revert\n        /* \"--CODEGEN--\":3706:3708   */\n    tag_84:\n        /* \"--CODEGEN--\":3804:3814   */\n      dup1\n        /* \"--CODEGEN--\":3800:3802   */\n      0x40\n        /* \"--CODEGEN--\":3793:3815   */\n      mstore\n        /* \"--CODEGEN--\":3604:3820   */\n      pop\n      swap2\n      swap1\n      pop\n      jump\t// out\n        /* \"--CODEGEN--\":3827:4149   */\n    tag_32:\n      0x00\n        /* \"--CODEGEN--\":3971:3989   */\n      0xffffffffffffffff\n        /* \"--CODEGEN--\":3963:3969   */\n      dup3\n        /* \"--CODEGEN--\":3960:3990   */\n      gt\n        /* \"--CODEGEN--\":3957:3959   */\n      iszero\n      tag_86\n      jumpi\n        /* \"--CODEGEN--\":4003:4004   */\n      0x00\n        /* \"--CODEGEN--\":4000:4001   */\n      dup1\n        /* \"--CODEGEN--\":3993:4005   */\n      revert\n        /* \"--CODEGEN--\":3957:3959   */\n    tag_86:\n        /* \"--CODEGEN--\":4070:4074   */\n      0x1f\n        /* \"--CODEGEN--\":4066:4075   */\n      not\n        /* \"--CODEGEN--\":4059:4063   */\n      0x1f\n        /* \"--CODEGEN--\":4051:4057   */\n      dup4\n        /* \"--CODEGEN--\":4047:4064   */\n      add\n        /* \"--CODEGEN--\":4043:4076   */\n      and\n        /* \"--CODEGEN--\":4035:4076   */\n      swap1\n      pop\n        /* \"--CODEGEN--\":4134:4138   */\n      0x20\n        /* \"--CODEGEN--\":4128:4132   */\n      dup2\n        /* \"--CODEGEN--\":4124:4139   */\n      add\n        /* \"--CODEGEN--\":4116:4139   */\n      swap1\n      pop\n        /* \"--CODEGEN--\":3894:4149   */\n      swap2\n      swap1\n      pop\n      jump\t// out\n        /* \"--CODEGEN--\":4156:4278   */\n    tag_64:\n      0x00\n        /* \"--CODEGEN--\":4250:4255   */\n      dup2\n        /* \"--CODEGEN--\":4244:4256   */\n      mload\n        /* \"--CODEGEN--\":4234:4256   */\n      swap1\n      pop\n        /* \"--CODEGEN--\":4215:4278   */\n      swap2\n      swap1\n      pop\n      jump\t// out\n        /* \"--CODEGEN--\":4286:4431   */\n    tag_66:\n      0x00\n        /* \"--CODEGEN--\":4422:4425   */\n      dup2\n        /* \"--CODEGEN--\":4407:4425   */\n      swap1\n      pop\n        /* \"--CODEGEN--\":4400:4431   */\n      swap3\n      swap2\n      pop\n      pop\n      jump\t// out\n        /* \"--CODEGEN--\":4439:4530   */\n    tag_55:\n      0x00\n        /* \"--CODEGEN--\":4501:4525   */\n      tag_90\n        /* \"--CODEGEN--\":4519:4524   */\n      dup3\n        /* \"--CODEGEN--\":4501:4525   */\n      tag_91\n      jump\t// in\n    tag_90:\n        /* \"--CODEGEN--\":4490:4525   */\n      swap1\n      pop\n        /* \"--CODEGEN--\":4484:4530   */\n      swap2\n      swap1\n      pop\n      jump\t// out\n        /* \"--CODEGEN--\":4537:4609   */\n    tag_60:\n      0x00\n        /* \"--CODEGEN--\":4599:4604   */\n      dup2\n        /* \"--CODEGEN--\":4588:4604   */\n      swap1\n      pop\n        /* \"--CODEGEN--\":4582:4609   */\n      swap2\n      swap1\n      pop\n      jump\t// out\n        /* \"--CODEGEN--\":4616:4737   */\n    tag_91:\n      0x00\n        /* \"--CODEGEN--\":4689:4731   */\n      0xffffffffffffffffffffffffffffffffffffffff\n        /* \"--CODEGEN--\":4682:4687   */\n      dup3\n        /* \"--CODEGEN--\":4678:4732   */\n      and\n        /* \"--CODEGEN--\":4667:4732   */\n      swap1\n      pop\n        /* \"--CODEGEN--\":4661:4737   */\n      swap2\n      swap1\n      pop\n      jump\t// out\n        /* \"--CODEGEN--\":4744:4816   */\n    tag_73:\n      0x00\n        /* \"--CODEGEN--\":4806:4811   */\n      dup2\n        /* \"--CODEGEN--\":4795:4811   */\n      swap1\n      pop\n        /* \"--CODEGEN--\":4789:4816   */\n      swap2\n      swap1\n      pop\n      jump\t// out\n        /* \"--CODEGEN--\":4824:4969   */\n    tag_36:\n        /* \"--CODEGEN--\":4905:4911   */\n      dup3\n        /* \"--CODEGEN--\":4900:4903   */\n      dup2\n        /* \"--CODEGEN--\":4895:4898   */\n      dup4\n        /* \"--CODEGEN--\":4882:4912   */\n      calldatacopy\n        /* \"--CODEGEN--\":4961:4962   */\n      0x00\n        /* \"--CODEGEN--\":4952:4958   */\n      dup4\n        /* \"--CODEGEN--\":4947:4950   */\n      dup4\n        /* \"--CODEGEN--\":4943:4959   */\n      add\n        /* \"--CODEGEN--\":4936:4963   */\n      mstore\n        /* \"--CODEGEN--\":4875:4969   */\n      pop\n      pop\n      pop\n      jump\t// out\n        /* \"--CODEGEN--\":4978:5246   */\n    tag_68:\n        /* \"--CODEGEN--\":5043:5044   */\n      0x00\n        /* \"--CODEGEN--\":5050:5151   */\n    tag_97:\n        /* \"--CODEGEN--\":5064:5070   */\n      dup4\n        /* \"--CODEGEN--\":5061:5062   */\n      dup2\n        /* \"--CODEGEN--\":5058:5071   */\n      lt\n        /* \"--CODEGEN--\":5050:5151   */\n      iszero\n      tag_99\n      jumpi\n        /* \"--CODEGEN--\":5140:5141   */\n      dup1\n        /* \"--CODEGEN--\":5135:5138   */\n      dup3\n        /* \"--CODEGEN--\":5131:5142   */\n      add\n        /* \"--CODEGEN--\":5125:5143   */\n      mload\n        /* \"--CODEGEN--\":5121:5122   */\n      dup2\n        /* \"--CODEGEN--\":5116:5119   */\n      dup5\n        /* \"--CODEGEN--\":5112:5123   */\n      add\n        /* \"--CODEGEN--\":5105:5144   */\n      mstore\n        /* \"--CODEGEN--\":5086:5088   */\n      0x20\n        /* \"--CODEGEN--\":5083:5084   */\n      dup2\n        /* \"--CODEGEN--\":5079:5089   */\n      add\n        /* \"--CODEGEN--\":5074:5089   */\n      swap1\n      pop\n        /* \"--CODEGEN--\":5050:5151   */\n      jump(tag_97)\n    tag_99:\n        /* \"--CODEGEN--\":5166:5172   */\n      dup4\n        /* \"--CODEGEN--\":5163:5164   */\n      dup2\n        /* \"--CODEGEN--\":5160:5173   */\n      gt\n        /* \"--CODEGEN--\":5157:5159   */\n      iszero\n      tag_100\n      jumpi\n        /* \"--CODEGEN--\":5231:5232   */\n      0x00\n        /* \"--CODEGEN--\":5222:5228   */\n      dup5\n        /* \"--CODEGEN--\":5217:5220   */\n      dup5\n        /* \"--CODEGEN--\":5213:5229   */\n      add\n        /* \"--CODEGEN--\":5206:5233   */\n      mstore\n        /* \"--CODEGEN--\":5157:5159   */\n    tag_100:\n        /* \"--CODEGEN--\":5027:5246   */\n      pop\n      pop\n      pop\n      pop\n      jump\t// out\n        /* \"--CODEGEN--\":5254:5349   */\n    tag_56:\n      0x00\n        /* \"--CODEGEN--\":5318:5344   */\n      tag_102\n        /* \"--CODEGEN--\":5338:5343   */\n      dup3\n        /* \"--CODEGEN--\":5318:5344   */\n      tag_103\n      jump\t// in\n    tag_102:\n        /* \"--CODEGEN--\":5307:5344   */\n      swap1\n      pop\n        /* \"--CODEGEN--\":5301:5349   */\n      swap2\n      swap1\n      pop\n      jump\t// out\n        /* \"--CODEGEN--\":5356:5445   */\n    tag_103:\n      0x00\n        /* \"--CODEGEN--\":5420:5440   */\n      tag_105\n        /* \"--CODEGEN--\":5434:5439   */\n      dup3\n        /* \"--CODEGEN--\":5420:5440   */\n      tag_106\n      jump\t// in\n    tag_105:\n        /* \"--CODEGEN--\":5409:5440   */\n      swap1\n      pop\n        /* \"--CODEGEN--\":5403:5445   */\n      swap2\n      swap1\n      pop\n      jump\t// out\n        /* \"--CODEGEN--\":5452:5526   */\n    tag_74:\n      0x00\n        /* \"--CODEGEN--\":5516:5521   */\n      dup2\n        /* \"--CODEGEN--\":5505:5521   */\n      swap1\n      pop\n        /* \"--CODEGEN--\":5499:5526   */\n      swap2\n      swap1\n      pop\n      jump\t// out\n        /* \"--CODEGEN--\":5533:5627   */\n    tag_106:\n      0x00\n        /* \"--CODEGEN--\":5611:5616   */\n      dup2\n        /* \"--CODEGEN--\":5607:5609   */\n      0x60\n        /* \"--CODEGEN--\":5603:5617   */\n      shl\n        /* \"--CODEGEN--\":5581:5617   */\n      swap1\n      pop\n        /* \"--CODEGEN--\":5575:5627   */\n      swap2\n      swap1\n      pop\n      jump\t// out\n        /* \"--CODEGEN--\":5635:5752   */\n    tag_26:\n        /* \"--CODEGEN--\":5704:5728   */\n      tag_110\n        /* \"--CODEGEN--\":5722:5727   */\n      dup2\n        /* \"--CODEGEN--\":5704:5728   */\n      tag_55\n      jump\t// in\n    tag_110:\n        /* \"--CODEGEN--\":5697:5702   */\n      dup2\n        /* \"--CODEGEN--\":5694:5729   */\n      eq\n        /* \"--CODEGEN--\":5684:5686   */\n      tag_111\n      jumpi\n        /* \"--CODEGEN--\":5743:5744   */\n      0x00\n        /* \"--CODEGEN--\":5740:5741   */\n      dup1\n        /* \"--CODEGEN--\":5733:5745   */\n      revert\n        /* \"--CODEGEN--\":5684:5686   */\n    tag_111:\n        /* \"--CODEGEN--\":5678:5752   */\n      pop\n      jump\t// out\n        /* \"--CODEGEN--\":5759:5876   */\n    tag_40:\n        /* \"--CODEGEN--\":5828:5852   */\n      tag_113\n        /* \"--CODEGEN--\":5846:5851   */\n      dup2\n        /* \"--CODEGEN--\":5828:5852   */\n      tag_73\n      jump\t// in\n    tag_113:\n        /* \"--CODEGEN--\":5821:5826   */\n      dup2\n        /* \"--CODEGEN--\":5818:5853   */\n      eq\n        /* \"--CODEGEN--\":5808:5810   */\n      tag_114\n      jumpi\n        /* \"--CODEGEN--\":5867:5868   */\n      0x00\n        /* \"--CODEGEN--\":5864:5865   */\n      dup1\n        /* \"--CODEGEN--\":5857:5869   */\n      revert\n        /* \"--CODEGEN--\":5808:5810   */\n    tag_114:\n        /* \"--CODEGEN--\":5802:5876   */\n      pop\n      jump\t// out\n\n    auxdata: 0xa264697066735822122018eda18671ee613ee6185ebea257564a4a4eee0447486ccf9029a24596634cf564736f6c634300060c0033\n}\n",
				"bytecode": {
					"linkReferences": {},
					"object": "608060405234801561001057600080fd5b50610496806100206000396000f3fe608060405234801561001057600080fd5b50600436106100365760003560e01c806360ff41961461003b5780639629feb51461006b575b600080fd5b610055600480360381019061005091906101c0565b61009b565b60405161006291906102e5565b60405180910390f35b6100856004803603810190610080919061017f565b6100d1565b60405161009291906102e5565b60405180910390f35b60008383836040516020016100b2939291906102ac565b6040516020818303038152906040528051906020012090509392505050565b6000816040516020016100e49190610295565b604051602081830303815290604052805190602001209050919050565b60008135905061011081610432565b92915050565b600082601f83011261012757600080fd5b813561013a6101358261032d565b610300565b9150808252602083016020830185838301111561015657600080fd5b6101618382846103b5565b50505092915050565b60008135905061017981610449565b92915050565b60006020828403121561019157600080fd5b600082013567ffffffffffffffff8111156101ab57600080fd5b6101b784828501610116565b91505092915050565b6000806000606084860312156101d557600080fd5b600084013567ffffffffffffffff8111156101ef57600080fd5b6101fb86828701610116565b935050602061020c8682870161016a565b925050604061021d86828701610101565b9150509250925092565b6102386102338261036f565b6103f7565b82525050565b61024781610381565b82525050565b600061025882610359565b6102628185610364565b93506102728185602086016103c4565b80840191505092915050565b61028f61028a826103ab565b61041b565b82525050565b60006102a1828461024d565b915081905092915050565b60006102b8828661024d565b91506102c4828561027e565b6020820191506102d48284610227565b601482019150819050949350505050565b60006020820190506102fa600083018461023e565b92915050565b6000604051905081810181811067ffffffffffffffff8211171561032357600080fd5b8060405250919050565b600067ffffffffffffffff82111561034457600080fd5b601f19601f8301169050602081019050919050565b600081519050919050565b600081905092915050565b600061037a8261038b565b9050919050565b6000819050919050565b600073ffffffffffffffffffffffffffffffffffffffff82169050919050565b6000819050919050565b82818337600083830152505050565b60005b838110156103e25780820151818401526020810190506103c7565b838111156103f1576000848401525b50505050565b600061040282610409565b9050919050565b600061041482610425565b9050919050565b6000819050919050565b60008160601b9050919050565b61043b8161036f565b811461044657600080fd5b50565b610452816103ab565b811461045d57600080fd5b5056fea264697066735822122018eda18671ee613ee6185ebea257564a4a4eee0447486ccf9029a24596634cf564736f6c634300060c0033",
					"opcodes": "PUSH1 0x80 PUSH1 0x40 MSTORE CALLVALUE DUP1 ISZERO PUSH2 0x10 JUMPI PUSH1 0x0 DUP1 REVERT JUMPDEST POP PUSH2 0x496 DUP1 PUSH2 0x20 PUSH1 0x0 CODECOPY PUSH1 0x0 RETURN INVALID PUSH1 0x80 PUSH1 0x40 MSTORE CALLVALUE DUP1 ISZERO PUSH2 0x10 JUMPI PUSH1 0x0 DUP1 REVERT JUMPDEST POP PUSH1 0x4 CALLDATASIZE LT PUSH2 0x36 JUMPI PUSH1 0x0 CALLDATALOAD PUSH1 0xE0 SHR DUP1 PUSH4 0x60FF4196 EQ PUSH2 0x3B JUMPI DUP1 PUSH4 0x9629FEB5 EQ PUSH2 0x6B JUMPI JUMPDEST PUSH1 0x0 DUP1 REVERT JUMPDEST PUSH2 0x55 PUSH1 0x4 DUP1 CALLDATASIZE SUB DUP2 ADD SWAP1 PUSH2 0x50 SWAP2 SWAP1 PUSH2 0x1C0 JUMP JUMPDEST PUSH2 0x9B JUMP JUMPDEST PUSH1 0x40 MLOAD PUSH2 0x62 SWAP2 SWAP1 PUSH2 0x2E5 JUMP JUMPDEST PUSH1 0x40 MLOAD DUP1 SWAP2 SUB SWAP1 RETURN JUMPDEST PUSH2 0x85 PUSH1 0x4 DUP1 CALLDATASIZE SUB DUP2 ADD SWAP1 PUSH2 0x80 SWAP2 SWAP1 PUSH2 0x17F JUMP JUMPDEST PUSH2 0xD1 JUMP JUMPDEST PUSH1 0x40 MLOAD PUSH2 0x92 SWAP2 SWAP1 PUSH2 0x2E5 JUMP JUMPDEST PUSH1 0x40 MLOAD DUP1 SWAP2 SUB SWAP1 RETURN JUMPDEST PUSH1 0x0 DUP4 DUP4 DUP4 PUSH1 0x40 MLOAD PUSH1 0x20 ADD PUSH2 0xB2 SWAP4 SWAP3 SWAP2 SWAP1 PUSH2 0x2AC JUMP JUMPDEST PUSH1 0x40 MLOAD PUSH1 0x20 DUP2 DUP4 SUB SUB DUP2 MSTORE SWAP1 PUSH1 0x40 MSTORE DUP1 MLOAD SWAP1 PUSH1 0x20 ADD KECCAK256 SWAP1 POP SWAP4 SWAP3 POP POP POP JUMP JUMPDEST PUSH1 0x0 DUP2 PUSH1 0x40 MLOAD PUSH1 0x20 ADD PUSH2 0xE4 SWAP2 SWAP1 PUSH2 0x295 JUMP JUMPDEST PUSH1 0x40 MLOAD PUSH1 0x20 DUP2 DUP4 SUB SUB DUP2 MSTORE SWAP1 PUSH1 0x40 MSTORE DUP1 MLOAD SWAP1 PUSH1 0x20 ADD KECCAK256 SWAP1 POP SWAP2 SWAP1 POP JUMP JUMPDEST PUSH1 0x0 DUP2 CALLDATALOAD SWAP1 POP PUSH2 0x110 DUP2 PUSH2 0x432 JUMP JUMPDEST SWAP3 SWAP2 POP POP JUMP JUMPDEST PUSH1 0x0 DUP3 PUSH1 0x1F DUP4 ADD SLT PUSH2 0x127 JUMPI PUSH1 0x0 DUP1 REVERT JUMPDEST DUP2 CALLDATALOAD PUSH2 0x13A PUSH2 0x135 DUP3 PUSH2 0x32D JUMP JUMPDEST PUSH2 0x300 JUMP JUMPDEST SWAP2 POP DUP1 DUP3 MSTORE PUSH1 0x20 DUP4 ADD PUSH1 0x20 DUP4 ADD DUP6 DUP4 DUP4 ADD GT ISZERO PUSH2 0x156 JUMPI PUSH1 0x0 DUP1 REVERT JUMPDEST PUSH2 0x161 DUP4 DUP3 DUP5 PUSH2 0x3B5 JUMP JUMPDEST POP POP POP SWAP3 SWAP2 POP POP JUMP JUMPDEST PUSH1 0x0 DUP2 CALLDATALOAD SWAP1 POP PUSH2 0x179 DUP2 PUSH2 0x449 JUMP JUMPDEST SWAP3 SWAP2 POP POP JUMP JUMPDEST PUSH1 0x0 PUSH1 0x20 DUP3 DUP5 SUB SLT ISZERO PUSH2 0x191 JUMPI PUSH1 0x0 DUP1 REVERT JUMPDEST PUSH1 0x0 DUP3 ADD CALLDATALOAD PUSH8 0xFFFFFFFFFFFFFFFF DUP2 GT ISZERO PUSH2 0x1AB JUMPI PUSH1 0x0 DUP1 REVERT JUMPDEST PUSH2 0x1B7 DUP5 DUP3 DUP6 ADD PUSH2 0x116 JUMP JUMPDEST SWAP2 POP POP SWAP3 SWAP2 POP POP JUMP JUMPDEST PUSH1 0x0 DUP1 PUSH1 0x0 PUSH1 0x60 DUP5 DUP7 SUB SLT ISZERO PUSH2 0x1D5 JUMPI PUSH1 0x0 DUP1 REVERT JUMPDEST PUSH1 0x0 DUP5 ADD CALLDATALOAD PUSH8 0xFFFFFFFFFFFFFFFF DUP2 GT ISZERO PUSH2 0x1EF JUMPI PUSH1 0x0 DUP1 REVERT JUMPDEST PUSH2 0x1FB DUP7 DUP3 DUP8 ADD PUSH2 0x116 JUMP JUMPDEST SWAP4 POP POP PUSH1 0x20 PUSH2 0x20C DUP7 DUP3 DUP8 ADD PUSH2 0x16A JUMP JUMPDEST SWAP3 POP POP PUSH1 0x40 PUSH2 0x21D DUP7 DUP3 DUP8 ADD PUSH2 0x101 JUMP JUMPDEST SWAP2 POP POP SWAP3 POP SWAP3 POP SWAP3 JUMP JUMPDEST PUSH2 0x238 PUSH2 0x233 DUP3 PUSH2 0x36F JUMP JUMPDEST PUSH2 0x3F7 JUMP JUMPDEST DUP3 MSTORE POP POP JUMP JUMPDEST PUSH2 0x247 DUP2 PUSH2 0x381 JUMP JUMPDEST DUP3 MSTORE POP POP JUMP JUMPDEST PUSH1 0x0 PUSH2 0x258 DUP3 PUSH2 0x359 JUMP JUMPDEST PUSH2 0x262 DUP2 DUP6 PUSH2 0x364 JUMP JUMPDEST SWAP4 POP PUSH2 0x272 DUP2 DUP6 PUSH1 0x20 DUP7 ADD PUSH2 0x3C4 JUMP JUMPDEST DUP1 DUP5 ADD SWAP2 POP POP SWAP3 SWAP2 POP POP JUMP JUMPDEST PUSH2 0x28F PUSH2 0x28A DUP3 PUSH2 0x3AB JUMP JUMPDEST PUSH2 0x41B JUMP JUMPDEST DUP3 MSTORE POP POP JUMP JUMPDEST PUSH1 0x0 PUSH2 0x2A1 DUP3 DUP5 PUSH2 0x24D JUMP JUMPDEST SWAP2 POP DUP2 SWAP1 POP SWAP3 SWAP2 POP POP JUMP JUMPDEST PUSH1 0x0 PUSH2 0x2B8 DUP3 DUP7 PUSH2 0x24D JUMP JUMPDEST SWAP2 POP PUSH2 0x2C4 DUP3 DUP6 PUSH2 0x27E JUMP JUMPDEST PUSH1 0x20 DUP3 ADD SWAP2 POP PUSH2 0x2D4 DUP3 DUP5 PUSH2 0x227 JUMP JUMPDEST PUSH1 0x14 DUP3 ADD SWAP2 POP DUP2 SWAP1 POP SWAP5 SWAP4 POP POP POP POP JUMP JUMPDEST PUSH1 0x0 PUSH1 0x20 DUP3 ADD SWAP1 POP PUSH2 0x2FA PUSH1 0x0 DUP4 ADD DUP5 PUSH2 0x23E JUMP JUMPDEST SWAP3 SWAP2 POP POP JUMP JUMPDEST PUSH1 0x0 PUSH1 0x40 MLOAD SWAP1 POP DUP2 DUP2 ADD DUP2 DUP2 LT PUSH8 0xFFFFFFFFFFFFFFFF DUP3 GT OR ISZERO PUSH2 0x323 JUMPI PUSH1 0x0 DUP1 REVERT JUMPDEST DUP1 PUSH1 0x40 MSTORE POP SWAP2 SWAP1 POP JUMP JUMPDEST PUSH1 0x0 PUSH8 0xFFFFFFFFFFFFFFFF DUP3 GT ISZERO PUSH2 0x344 JUMPI PUSH1 0x0 DUP1 REVERT JUMPDEST PUSH1 0x1F NOT PUSH1 0x1F DUP4 ADD AND SWAP1 POP PUSH1 0x20 DUP2 ADD SWAP1 POP SWAP2 SWAP1 POP JUMP JUMPDEST PUSH1 0x0 DUP2 MLOAD SWAP1 POP SWAP2 SWAP1 POP JUMP JUMPDEST PUSH1 0x0 DUP2 SWAP1 POP SWAP3 SWAP2 POP POP JUMP JUMPDEST PUSH1 0x0 PUSH2 0x37A DUP3 PUSH2 0x38B JUMP JUMPDEST SWAP1 POP SWAP2 SWAP1 POP JUMP JUMPDEST PUSH1 0x0 DUP2 SWAP1 POP SWAP2 SWAP1 POP JUMP JUMPDEST PUSH1 0x0 PUSH20 0xFFFFFFFFFFFFFFFFFFFFFFFFFFFFFFFFFFFFFFFF DUP3 AND SWAP1 POP SWAP2 SWAP1 POP JUMP JUMPDEST PUSH1 0x0 DUP2 SWAP1 POP SWAP2 SWAP1 POP JUMP JUMPDEST DUP3 DUP2 DUP4 CALLDATACOPY PUSH1 0x0 DUP4 DUP4 ADD MSTORE POP POP POP JUMP JUMPDEST PUSH1 0x0 JUMPDEST DUP4 DUP2 LT ISZERO PUSH2 0x3E2 JUMPI DUP1 DUP3 ADD MLOAD DUP2 DUP5 ADD MSTORE PUSH1 0x20 DUP2 ADD SWAP1 POP PUSH2 0x3C7 JUMP JUMPDEST DUP4 DUP2 GT ISZERO PUSH2 0x3F1 JUMPI PUSH1 0x0 DUP5 DUP5 ADD MSTORE JUMPDEST POP POP POP POP JUMP JUMPDEST PUSH1 0x0 PUSH2 0x402 DUP3 PUSH2 0x409 JUMP JUMPDEST SWAP1 POP SWAP2 SWAP1 POP JUMP JUMPDEST PUSH1 0x0 PUSH2 0x414 DUP3 PUSH2 0x425 JUMP JUMPDEST SWAP1 POP SWAP2 SWAP1 POP JUMP JUMPDEST PUSH1 0x0 DUP2 SWAP1 POP SWAP2 SWAP1 POP JUMP JUMPDEST PUSH1 0x0 DUP2 PUSH1 0x60 SHL SWAP1 POP SWAP2 SWAP1 POP JUMP JUMPDEST PUSH2 0x43B DUP2 PUSH2 0x36F JUMP JUMPDEST DUP2 EQ PUSH2 0x446 JUMPI PUSH1 0x0 DUP1 REVERT JUMPDEST POP JUMP JUMPDEST PUSH2 0x452 DUP2 PUSH2 0x3AB JUMP JUMPDEST DUP2 EQ PUSH2 0x45D JUMPI PUSH1 0x0 DUP1 REVERT JUMPDEST POP JUMP INVALID LOG2 PUSH5 0x6970667358 0x22 SLT KECCAK256 XOR 0xED LOG1 DUP7 PUSH18 0xEE613EE6185EBEA257564A4A4EEE0447486C 0xCF SWAP1 0x29 LOG2 GASLIMIT SWAP7 PUSH4 0x4CF56473 PUSH16 0x6C634300060C00330000000000000000 "
				},
				"gasEstimates": {
					"creation": {
						"codeDepositCost": "234800",
						"executionCost": "275",
						"totalCost": "235075"
					},
					"external": {
						"calcular_hash(string)": "infinite",
						"calcular_hash(string,uint256,address)": "infinite"
					}
				},
				"methodIdentifiers": {
					"calcular_hash(string)": "9629feb5",
					"calcular_hash(string,uint256,address)": "60ff4196"
				}
			},
			"storageLayout": {
				"storage": [],
				"types": null
			},
			"userdoc": {
				"kind": "user",
				"methods": {},
				"version": 1
			}
		}
	}
}