{
	"Propiedades de transacciones y bloques/funciones_globales.sol": {
		"funciones_globales": {
			"abi": [
				{
					"inputs": [],
					"name": "BlockCoinbase",
					"outputs": [
						{
							"internalType": "address",
							"name": "",
							"type": "address"
						}
					],
					"stateMutability": "view",
					"type": "function"
				},
				{
					"inputs": [],
					"name": "BlockDifficulty",
					"outputs": [
						{
							"internalType": "uint256",
							"name": "",
							"type": "uint256"
						}
					],
					"stateMutability": "view",
					"type": "function"
				},
				{
					"inputs": [],
					"name": "MsgSender",
					"outputs": [
						{
							"internalType": "address",
							"name": "",
							"type": "address"
						}
					],
					"stateMutability": "view",
					"type": "function"
				},
				{
					"inputs": [],
					"name": "Now",
					"outputs": [
						{
							"internalType": "uint256",
							"name": "",
							"type": "uint256"
						}
					],
					"stateMutability": "view",
					"type": "function"
				}
			],
			"devdoc": {
				"kind": "dev",
				"methods": {},
				"version": 1
			},
			"evm": {
				"assembly": "    /* \"Propiedades de transacciones y bloques/funciones_globales.sol\":109:525  contract funciones_globales{\r... */\n  mstore(0x40, 0x80)\n  callvalue\n  dup1\n  iszero\n  tag_1\n  jumpi\n  0x00\n  dup1\n  revert\ntag_1:\n  pop\n  dataSize(sub_0)\n  dup1\n  dataOffset(sub_0)\n  0x00\n  codecopy\n  0x00\n  return\nstop\n\nsub_0: assembly {\n        /* \"Propiedades de transacciones y bloques/funciones_globales.sol\":109:525  contract funciones_globales{\r... */\n      mstore(0x40, 0x80)\n      callvalue\n      dup1\n      iszero\n      tag_1\n      jumpi\n      0x00\n      dup1\n      revert\n    tag_1:\n      pop\n      jumpi(tag_2, lt(calldatasize, 0x04))\n      shr(0xe0, calldataload(0x00))\n      dup1\n      0x0a649267\n      eq\n      tag_3\n      jumpi\n      dup1\n      0x44d4fd19\n      eq\n      tag_4\n      jumpi\n      dup1\n      0x84d63e12\n      eq\n      tag_5\n      jumpi\n      dup1\n      0xe6c595c0\n      eq\n      tag_6\n      jumpi\n    tag_2:\n      0x00\n      dup1\n      revert\n        /* \"Propiedades de transacciones y bloques/funciones_globales.sol\":321:415  function BlockCoinbase() public view returns (address){\r... */\n    tag_3:\n      tag_7\n      tag_8\n      jump\t// in\n    tag_7:\n      mload(0x40)\n      tag_9\n      swap2\n      swap1\n      tag_10\n      jump\t// in\n    tag_9:\n      mload(0x40)\n      dup1\n      swap2\n      sub\n      swap1\n      return\n        /* \"Propiedades de transacciones y bloques/funciones_globales.sol\":243:313  function Now() public view returns (uint){\r... */\n    tag_4:\n      tag_11\n      tag_12\n      jump\t// in\n    tag_11:\n      mload(0x40)\n      tag_13\n      swap2\n      swap1\n      tag_14\n      jump\t// in\n    tag_13:\n      mload(0x40)\n      dup1\n      swap2\n      sub\n      swap1\n      return\n        /* \"Propiedades de transacciones y bloques/funciones_globales.sol\":145:231  function MsgSender() public view returns (address){\r... */\n    tag_5:\n      tag_15\n      tag_16\n      jump\t// in\n    tag_15:\n      mload(0x40)\n      tag_17\n      swap2\n      swap1\n      tag_10\n      jump\t// in\n    tag_17:\n      mload(0x40)\n      dup1\n      swap2\n      sub\n      swap1\n      return\n        /* \"Propiedades de transacciones y bloques/funciones_globales.sol\":423:518  function BlockDifficulty() public view returns (uint){\r... */\n    tag_6:\n      tag_18\n      tag_19\n      jump\t// in\n    tag_18:\n      mload(0x40)\n      tag_20\n      swap2\n      swap1\n      tag_14\n      jump\t// in\n    tag_20:\n      mload(0x40)\n      dup1\n      swap2\n      sub\n      swap1\n      return\n        /* \"Propiedades de transacciones y bloques/funciones_globales.sol\":321:415  function BlockCoinbase() public view returns (address){\r... */\n    tag_8:\n        /* \"Propiedades de transacciones y bloques/funciones_globales.sol\":367:374  address */\n      0x00\n        /* \"Propiedades de transacciones y bloques/funciones_globales.sol\":393:407  block.coinbase */\n      coinbase\n        /* \"Propiedades de transacciones y bloques/funciones_globales.sol\":386:407  return block.coinbase */\n      swap1\n      pop\n        /* \"Propiedades de transacciones y bloques/funciones_globales.sol\":321:415  function BlockCoinbase() public view returns (address){\r... */\n      swap1\n      jump\t// out\n        /* \"Propiedades de transacciones y bloques/funciones_globales.sol\":243:313  function Now() public view returns (uint){\r... */\n    tag_12:\n        /* \"Propiedades de transacciones y bloques/funciones_globales.sol\":279:283  uint */\n      0x00\n        /* \"Propiedades de transacciones y bloques/funciones_globales.sol\":302:305  now */\n      timestamp\n        /* \"Propiedades de transacciones y bloques/funciones_globales.sol\":295:305  return now */\n      swap1\n      pop\n        /* \"Propiedades de transacciones y bloques/funciones_globales.sol\":243:313  function Now() public view returns (uint){\r... */\n      swap1\n      jump\t// out\n        /* \"Propiedades de transacciones y bloques/funciones_globales.sol\":145:231  function MsgSender() public view returns (address){\r... */\n    tag_16:\n        /* \"Propiedades de transacciones y bloques/funciones_globales.sol\":187:194  address */\n      0x00\n        /* \"Propiedades de transacciones y bloques/funciones_globales.sol\":213:223  msg.sender */\n      caller\n        /* \"Propiedades de transacciones y bloques/funciones_globales.sol\":206:223  return msg.sender */\n      swap1\n      pop\n        /* \"Propiedades de transacciones y bloques/funciones_globales.sol\":145:231  function MsgSender() public view returns (address){\r... */\n      swap1\n      jump\t// out\n        /* \"Propiedades de transacciones y bloques/funciones_globales.sol\":423:518  function BlockDifficulty() public view returns (uint){\r... */\n    tag_19:\n        /* \"Propiedades de transacciones y bloques/funciones_globales.sol\":471:475  uint */\n      0x00\n        /* \"Propiedades de transacciones y bloques/funciones_globales.sol\":494:510  block.difficulty */\n      difficulty\n        /* \"Propiedades de transacciones y bloques/funciones_globales.sol\":487:510  return block.difficulty */\n      swap1\n      pop\n        /* \"Propiedades de transacciones y bloques/funciones_globales.sol\":423:518  function BlockDifficulty() public view returns (uint){\r... */\n      swap1\n      jump\t// out\n        /* \"--CODEGEN--\":5:118   */\n    tag_26:\n        /* \"--CODEGEN--\":88:112   */\n      tag_28\n        /* \"--CODEGEN--\":106:111   */\n      dup2\n        /* \"--CODEGEN--\":88:112   */\n      tag_29\n      jump\t// in\n    tag_28:\n        /* \"--CODEGEN--\":83:86   */\n      dup3\n        /* \"--CODEGEN--\":76:113   */\n      mstore\n        /* \"--CODEGEN--\":70:118   */\n      pop\n      pop\n      jump\t// out\n        /* \"--CODEGEN--\":125:238   */\n    tag_30:\n        /* \"--CODEGEN--\":208:232   */\n      tag_32\n        /* \"--CODEGEN--\":226:231   */\n      dup2\n        /* \"--CODEGEN--\":208:232   */\n      tag_33\n      jump\t// in\n    tag_32:\n        /* \"--CODEGEN--\":203:206   */\n      dup3\n        /* \"--CODEGEN--\":196:233   */\n      mstore\n        /* \"--CODEGEN--\":190:238   */\n      pop\n      pop\n      jump\t// out\n        /* \"--CODEGEN--\":245:467   */\n    tag_10:\n      0x00\n        /* \"--CODEGEN--\":372:374   */\n      0x20\n        /* \"--CODEGEN--\":361:370   */\n      dup3\n        /* \"--CODEGEN--\":357:375   */\n      add\n        /* \"--CODEGEN--\":349:375   */\n      swap1\n      pop\n        /* \"--CODEGEN--\":386:457   */\n      tag_35\n        /* \"--CODEGEN--\":454:455   */\n      0x00\n        /* \"--CODEGEN--\":443:452   */\n      dup4\n        /* \"--CODEGEN--\":439:456   */\n      add\n        /* \"--CODEGEN--\":430:436   */\n      dup5\n        /* \"--CODEGEN--\":386:457   */\n      tag_26\n      jump\t// in\n    tag_35:\n        /* \"--CODEGEN--\":343:467   */\n      swap3\n      swap2\n      pop\n      pop\n      jump\t// out\n        /* \"--CODEGEN--\":474:696   */\n    tag_14:\n      0x00\n        /* \"--CODEGEN--\":601:603   */\n      0x20\n        /* \"--CODEGEN--\":590:599   */\n      dup3\n        /* \"--CODEGEN--\":586:604   */\n      add\n        /* \"--CODEGEN--\":578:604   */\n      swap1\n      pop\n        /* \"--CODEGEN--\":615:686   */\n      tag_37\n        /* \"--CODEGEN--\":683:684   */\n      0x00\n        /* \"--CODEGEN--\":672:681   */\n      dup4\n        /* \"--CODEGEN--\":668:685   */\n      add\n        /* \"--CODEGEN--\":659:665   */\n      dup5\n        /* \"--CODEGEN--\":615:686   */\n      tag_30\n      jump\t// in\n    tag_37:\n        /* \"--CODEGEN--\":572:696   */\n      swap3\n      swap2\n      pop\n      pop\n      jump\t// out\n        /* \"--CODEGEN--\":703:794   */\n    tag_29:\n      0x00\n        /* \"--CODEGEN--\":765:789   */\n      tag_39\n        /* \"--CODEGEN--\":783:788   */\n      dup3\n        /* \"--CODEGEN--\":765:789   */\n      tag_40\n      jump\t// in\n    tag_39:\n        /* \"--CODEGEN--\":754:789   */\n      swap1\n      pop\n        /* \"--CODEGEN--\":748:794   */\n      swap2\n      swap1\n      pop\n      jump\t// out\n        /* \"--CODEGEN--\":801:922   */\n    tag_40:\n      0x00\n        /* \"--CODEGEN--\":874:916   */\n      0xffffffffffffffffffffffffffffffffffffffff\n        /* \"--CODEGEN--\":867:872   */\n      dup3\n        /* \"--CODEGEN--\":863:917   */\n      and\n        /* \"--CODEGEN--\":852:917   */\n      swap1\n      pop\n        /* \"--CODEGEN--\":846:922   */\n      swap2\n      swap1\n      pop\n      jump\t// out\n        /* \"--CODEGEN--\":929:1001   */\n    tag_33:\n      0x00\n        /* \"--CODEGEN--\":991:996   */\n      dup2\n        /* \"--CODEGEN--\":980:996   */\n      swap1\n      pop\n        /* \"--CODEGEN--\":974:1001   */\n      swap2\n      swap1\n      pop\n      jump\t// out\n\n    auxdata: 0xa2646970667358221220cb9e2b16386294d643ae76b0ff03da64046bf14d06c1ca004a34fadce182c3bc64736f6c634300060c0033\n}\n",
				"bytecode": {
					"linkReferences": {},
					"object": "608060405234801561001057600080fd5b506101af806100206000396000f3fe608060405234801561001057600080fd5b506004361061004c5760003560e01c80630a6492671461005157806344d4fd191461006f57806384d63e121461008d578063e6c595c0146100ab575b600080fd5b6100596100c9565b6040516100669190610107565b60405180910390f35b6100776100d1565b6040516100849190610122565b60405180910390f35b6100956100d9565b6040516100a29190610107565b60405180910390f35b6100b36100e1565b6040516100c09190610122565b60405180910390f35b600041905090565b600042905090565b600033905090565b600044905090565b6100f28161013d565b82525050565b6101018161016f565b82525050565b600060208201905061011c60008301846100e9565b92915050565b600060208201905061013760008301846100f8565b92915050565b60006101488261014f565b9050919050565b600073ffffffffffffffffffffffffffffffffffffffff82169050919050565b600081905091905056fea2646970667358221220cb9e2b16386294d643ae76b0ff03da64046bf14d06c1ca004a34fadce182c3bc64736f6c634300060c0033",
					"opcodes": "PUSH1 0x80 PUSH1 0x40 MSTORE CALLVALUE DUP1 ISZERO PUSH2 0x10 JUMPI PUSH1 0x0 DUP1 REVERT JUMPDEST POP PUSH2 0x1AF DUP1 PUSH2 0x20 PUSH1 0x0 CODECOPY PUSH1 0x0 RETURN INVALID PUSH1 0x80 PUSH1 0x40 MSTORE CALLVALUE DUP1 ISZERO PUSH2 0x10 JUMPI PUSH1 0x0 DUP1 REVERT JUMPDEST POP PUSH1 0x4 CALLDATASIZE LT PUSH2 0x4C JUMPI PUSH1 0x0 CALLDATALOAD PUSH1 0xE0 SHR DUP1 PUSH4 0xA649267 EQ PUSH2 0x51 JUMPI DUP1 PUSH4 0x44D4FD19 EQ PUSH2 0x6F JUMPI DUP1 PUSH4 0x84D63E12 EQ PUSH2 0x8D JUMPI DUP1 PUSH4 0xE6C595C0 EQ PUSH2 0xAB JUMPI JUMPDEST PUSH1 0x0 DUP1 REVERT JUMPDEST PUSH2 0x59 PUSH2 0xC9 JUMP JUMPDEST PUSH1 0x40 MLOAD PUSH2 0x66 SWAP2 SWAP1 PUSH2 0x107 JUMP JUMPDEST PUSH1 0x40 MLOAD DUP1 SWAP2 SUB SWAP1 RETURN JUMPDEST PUSH2 0x77 PUSH2 0xD1 JUMP JUMPDEST PUSH1 0x40 MLOAD PUSH2 0x84 SWAP2 SWAP1 PUSH2 0x122 JUMP JUMPDEST PUSH1 0x40 MLOAD DUP1 SWAP2 SUB SWAP1 RETURN JUMPDEST PUSH2 0x95 PUSH2 0xD9 JUMP JUMPDEST PUSH1 0x40 MLOAD PUSH2 0xA2 SWAP2 SWAP1 PUSH2 0x107 JUMP JUMPDEST PUSH1 0x40 MLOAD DUP1 SWAP2 SUB SWAP1 RETURN JUMPDEST PUSH2 0xB3 PUSH2 0xE1 JUMP JUMPDEST PUSH1 0x40 MLOAD PUSH2 0xC0 SWAP2 SWAP1 PUSH2 0x122 JUMP JUMPDEST PUSH1 0x40 MLOAD DUP1 SWAP2 SUB SWAP1 RETURN JUMPDEST PUSH1 0x0 COINBASE SWAP1 POP SWAP1 JUMP JUMPDEST PUSH1 0x0 TIMESTAMP SWAP1 POP SWAP1 JUMP JUMPDEST PUSH1 0x0 CALLER SWAP1 POP SWAP1 JUMP JUMPDEST PUSH1 0x0 DIFFICULTY SWAP1 POP SWAP1 JUMP JUMPDEST PUSH2 0xF2 DUP2 PUSH2 0x13D JUMP JUMPDEST DUP3 MSTORE POP POP JUMP JUMPDEST PUSH2 0x101 DUP2 PUSH2 0x16F JUMP JUMPDEST DUP3 MSTORE POP POP JUMP JUMPDEST PUSH1 0x0 PUSH1 0x20 DUP3 ADD SWAP1 POP PUSH2 0x11C PUSH1 0x0 DUP4 ADD DUP5 PUSH2 0xE9 JUMP JUMPDEST SWAP3 SWAP2 POP POP JUMP JUMPDEST PUSH1 0x0 PUSH1 0x20 DUP3 ADD SWAP1 POP PUSH2 0x137 PUSH1 0x0 DUP4 ADD DUP5 PUSH2 0xF8 JUMP JUMPDEST SWAP3 SWAP2 POP POP JUMP JUMPDEST PUSH1 0x0 PUSH2 0x148 DUP3 PUSH2 0x14F JUMP JUMPDEST SWAP1 POP SWAP2 SWAP1 POP JUMP JUMPDEST PUSH1 0x0 PUSH20 0xFFFFFFFFFFFFFFFFFFFFFFFFFFFFFFFFFFFFFFFF DUP3 AND SWAP1 POP SWAP2 SWAP1 POP JUMP JUMPDEST PUSH1 0x0 DUP2 SWAP1 POP SWAP2 SWAP1 POP JUMP INVALID LOG2 PUSH5 0x6970667358 0x22 SLT KECCAK256 0xCB SWAP15 0x2B AND CODESIZE PUSH3 0x94D643 0xAE PUSH23 0xB0FF03DA64046BF14D06C1CA004A34FADCE182C3BC6473 PUSH16 0x6C634300060C00330000000000000000 "
				},
				"gasEstimates": {
					"creation": {
						"codeDepositCost": "86200",
						"executionCost": "135",
						"totalCost": "86335"
					},
					"external": {
						"BlockCoinbase()": "363",
						"BlockDifficulty()": "380",
						"MsgSender()": "407",
						"Now()": "336"
					}
				},
				"methodIdentifiers": {
					"BlockCoinbase()": "0a649267",
					"BlockDifficulty()": "e6c595c0",
					"MsgSender()": "84d63e12",
					"Now()": "44d4fd19"
				}
			},
			"storageLayout": {
				"storage": [],
				"types": null
			},
			"userdoc": {
				"kind": "user",
				"methods": {},
				"version": 1
			}
		}
	}
}