{
	"DISNEY/ERC20.sol": {
		"ERC20Basic": {
			"abi": [
				{
					"inputs": [
						{
							"internalType": "uint256",
							"name": "initialAmount",
							"type": "uint256"
						}
					],
					"stateMutability": "nonpayable",
					"type": "constructor"
				},
				{
					"anonymous": false,
					"inputs": [
						{
							"indexed": true,
							"internalType": "address",
							"name": "_from",
							"type": "address"
						},
						{
							"indexed": true,
							"internalType": "address",
							"name": "_spender",
							"type": "address"
						},
						{
							"indexed": false,
							"internalType": "uint256",
							"name": "_tokens",
							"type": "uint256"
						}
					],
					"name": "Approval",
					"type": "event"
				},
				{
					"anonymous": false,
					"inputs": [
						{
							"indexed": true,
							"internalType": "address",
							"name": "_from",
							"type": "address"
						},
						{
							"indexed": true,
							"internalType": "address",
							"name": "_to",
							"type": "address"
						},
						{
							"indexed": false,
							"internalType": "uint256",
							"name": "_tokens",
							"type": "uint256"
						}
					],
					"name": "Transfer",
					"type": "event"
				},
				{
					"inputs": [
						{
							"internalType": "address",
							"name": "_owner",
							"type": "address"
						},
						{
							"internalType": "address",
							"name": "_delegate",
							"type": "address"
						}
					],
					"name": "allowance",
					"outputs": [
						{
							"internalType": "uint256",
							"name": "",
							"type": "uint256"
						}
					],
					"stateMutability": "view",
					"type": "function"
				},
				{
					"inputs": [
						{
							"internalType": "address",
							"name": "_delegate",
							"type": "address"
						},
						{
							"internalType": "uint256",
							"name": "_amount",
							"type": "uint256"
						}
					],
					"name": "approve",
					"outputs": [
						{
							"internalType": "bool",
							"name": "",
							"type": "bool"
						}
					],
					"stateMutability": "nonpayable",
					"type": "function"
				},
				{
					"inputs": [
						{
							"internalType": "address",
							"name": "_tokenOwner",
							"type": "address"
						}
					],
					"name": "balanceOf",
					"outputs": [
						{
							"internalType": "uint256",
							"name": "",
							"type": "uint256"
						}
					],
					"stateMutability": "view",
					"type": "function"
				},
				{
					"inputs": [],
					"name": "decimals",
					"outputs": [
						{
							"internalType": "uint8",
							"name": "",
							"type": "uint8"
						}
					],
					"stateMutability": "view",
					"type": "function"
				},
				{
					"inputs": [
						{
							"internalType": "uint256",
							"name": "_newTokensAmount",
							"type": "uint256"
						}
					],
					"name": "increaseTotalSupply",
					"outputs": [],
					"stateMutability": "nonpayable",
					"type": "function"
				},
				{
					"inputs": [],
					"name": "name",
					"outputs": [
						{
							"internalType": "string",
							"name": "",
							"type": "string"
						}
					],
					"stateMutability": "view",
					"type": "function"
				},
				{
					"inputs": [],
					"name": "symbol",
					"outputs": [
						{
							"internalType": "string",
							"name": "",
							"type": "string"
						}
					],
					"stateMutability": "view",
					"type": "function"
				},
				{
					"inputs": [],
					"name": "totalSupply",
					"outputs": [
						{
							"internalType": "uint256",
							"name": "",
							"type": "uint256"
						}
					],
					"stateMutability": "view",
					"type": "function"
				},
				{
					"inputs": [
						{
							"internalType": "address",
							"name": "_recipient",
							"type": "address"
						},
						{
							"internalType": "uint256",
							"name": "_amount",
							"type": "uint256"
						}
					],
					"name": "transfer",
					"outputs": [
						{
							"internalType": "bool",
							"name": "",
							"type": "bool"
						}
					],
					"stateMutability": "nonpayable",
					"type": "function"
				},
				{
					"inputs": [
						{
							"internalType": "address",
							"name": "_owner",
							"type": "address"
						},
						{
							"internalType": "address",
							"name": "_buyer",
							"type": "address"
						},
						{
							"internalType": "uint256",
							"name": "_amount",
							"type": "uint256"
						}
					],
					"name": "transferFrom",
					"outputs": [
						{
							"internalType": "bool",
							"name": "",
							"type": "bool"
						}
					],
					"stateMutability": "nonpayable",
					"type": "function"
				}
			],
			"devdoc": {
				"kind": "dev",
				"methods": {},
				"version": 1
			},
			"evm": {
				"assembly": "    /* \"DISNEY/ERC20.sol\":1268:3685  contract ERC20Basic is IERC20{\r... */\n  mstore(0x40, 0x80)\n    /* \"DISNEY/ERC20.sol\":1826:2001  constructor (uint initialAmount) public{\r... */\n  callvalue\n  dup1\n  iszero\n  tag_1\n  jumpi\n  0x00\n  dup1\n  revert\ntag_1:\n  pop\n  mload(0x40)\n  sub(codesize, bytecodeSize)\n  dup1\n  bytecodeSize\n  dup4\n  codecopy\n  dup2\n  dup2\n  add\n  0x40\n  mstore\n  dup2\n  add\n  swap1\n  tag_2\n  swap2\n  swap1\n  tag_3\n  jump\t// in\ntag_2:\n    /* \"DISNEY/ERC20.sol\":1891:1904  initialAmount */\n  dup1\n    /* \"DISNEY/ERC20.sol\":1876:1888  _totalSupply */\n  0x02\n    /* \"DISNEY/ERC20.sol\":1876:1904  _totalSupply = initialAmount */\n  dup2\n  swap1\n  sstore\n  pop\n    /* \"DISNEY/ERC20.sol\":1938:1951  initialAmount */\n  dup1\n    /* \"DISNEY/ERC20.sol\":1915:1923  balances */\n  0x00\n    /* \"DISNEY/ERC20.sol\":1915:1935  balances[msg.sender] */\n  dup1\n    /* \"DISNEY/ERC20.sol\":1924:1934  msg.sender */\n  caller\n    /* \"DISNEY/ERC20.sol\":1915:1935  balances[msg.sender] */\n  0xffffffffffffffffffffffffffffffffffffffff\n  and\n  0xffffffffffffffffffffffffffffffffffffffff\n  and\n  dup2\n  mstore\n  0x20\n  add\n  swap1\n  dup2\n  mstore\n  0x20\n  add\n  0x00\n  keccak256\n    /* \"DISNEY/ERC20.sol\":1915:1951  balances[msg.sender] = initialAmount */\n  dup2\n  swap1\n  sstore\n  pop\n    /* \"DISNEY/ERC20.sol\":1826:2001  constructor (uint initialAmount) public{\r... */\n  pop\n    /* \"DISNEY/ERC20.sol\":1268:3685  contract ERC20Basic is IERC20{\r... */\n  jump(tag_6)\n    /* \"--CODEGEN--\":5:139   */\ntag_8:\n  0x00\n    /* \"--CODEGEN--\":89:95   */\n  dup2\n    /* \"--CODEGEN--\":83:96   */\n  mload\n    /* \"--CODEGEN--\":74:96   */\n  swap1\n  pop\n    /* \"--CODEGEN--\":101:134   */\n  tag_10\n    /* \"--CODEGEN--\":128:133   */\n  dup2\n    /* \"--CODEGEN--\":101:134   */\n  tag_11\n  jump\t// in\ntag_10:\n    /* \"--CODEGEN--\":68:139   */\n  swap3\n  swap2\n  pop\n  pop\n  jump\t// out\n    /* \"--CODEGEN--\":146:409   */\ntag_3:\n  0x00\n    /* \"--CODEGEN--\":261:263   */\n  0x20\n    /* \"--CODEGEN--\":249:258   */\n  dup3\n    /* \"--CODEGEN--\":240:247   */\n  dup5\n    /* \"--CODEGEN--\":236:259   */\n  sub\n    /* \"--CODEGEN--\":232:264   */\n  slt\n    /* \"--CODEGEN--\":229:231   */\n  iszero\n  tag_13\n  jumpi\n    /* \"--CODEGEN--\":277:278   */\n  0x00\n    /* \"--CODEGEN--\":274:275   */\n  dup1\n    /* \"--CODEGEN--\":267:279   */\n  revert\n    /* \"--CODEGEN--\":229:231   */\ntag_13:\n    /* \"--CODEGEN--\":312:313   */\n  0x00\n    /* \"--CODEGEN--\":329:393   */\n  tag_14\n    /* \"--CODEGEN--\":385:392   */\n  dup5\n    /* \"--CODEGEN--\":376:382   */\n  dup3\n    /* \"--CODEGEN--\":365:374   */\n  dup6\n    /* \"--CODEGEN--\":361:383   */\n  add\n    /* \"--CODEGEN--\":329:393   */\n  tag_8\n  jump\t// in\ntag_14:\n    /* \"--CODEGEN--\":319:393   */\n  swap2\n  pop\n    /* \"--CODEGEN--\":291:399   */\n  pop\n    /* \"--CODEGEN--\":223:409   */\n  swap3\n  swap2\n  pop\n  pop\n  jump\t// out\n    /* \"--CODEGEN--\":416:488   */\ntag_15:\n  0x00\n    /* \"--CODEGEN--\":478:483   */\n  dup2\n    /* \"--CODEGEN--\":467:483   */\n  swap1\n  pop\n    /* \"--CODEGEN--\":461:488   */\n  swap2\n  swap1\n  pop\n  jump\t// out\n    /* \"--CODEGEN--\":495:612   */\ntag_11:\n    /* \"--CODEGEN--\":564:588   */\n  tag_18\n    /* \"--CODEGEN--\":582:587   */\n  dup2\n    /* \"--CODEGEN--\":564:588   */\n  tag_15\n  jump\t// in\ntag_18:\n    /* \"--CODEGEN--\":557:562   */\n  dup2\n    /* \"--CODEGEN--\":554:589   */\n  eq\n    /* \"--CODEGEN--\":544:546   */\n  tag_19\n  jumpi\n    /* \"--CODEGEN--\":603:604   */\n  0x00\n    /* \"--CODEGEN--\":600:601   */\n  dup1\n    /* \"--CODEGEN--\":593:605   */\n  revert\n    /* \"--CODEGEN--\":544:546   */\ntag_19:\n    /* \"--CODEGEN--\":538:612   */\n  pop\n  jump\t// out\n    /* \"DISNEY/ERC20.sol\":1268:3685  contract ERC20Basic is IERC20{\r... */\ntag_6:\n  dataSize(sub_0)\n  dup1\n  dataOffset(sub_0)\n  0x00\n  codecopy\n  0x00\n  return\nstop\n\nsub_0: assembly {\n        /* \"DISNEY/ERC20.sol\":1268:3685  contract ERC20Basic is IERC20{\r... */\n      mstore(0x40, 0x80)\n      callvalue\n      dup1\n      iszero\n      tag_1\n      jumpi\n      0x00\n      dup1\n      revert\n    tag_1:\n      pop\n      jumpi(tag_2, lt(calldatasize, 0x04))\n      shr(0xe0, calldataload(0x00))\n      dup1\n      0x313ce567\n      gt\n      tag_13\n      jumpi\n      dup1\n      0x313ce567\n      eq\n      tag_8\n      jumpi\n      dup1\n      0x70a08231\n      eq\n      tag_9\n      jumpi\n      dup1\n      0x95d89b41\n      eq\n      tag_10\n      jumpi\n      dup1\n      0xa9059cbb\n      eq\n      tag_11\n      jumpi\n      dup1\n      0xdd62ed3e\n      eq\n      tag_12\n      jumpi\n      jump(tag_2)\n    tag_13:\n      dup1\n      0x06fdde03\n      eq\n      tag_3\n      jumpi\n      dup1\n      0x095ea7b3\n      eq\n      tag_4\n      jumpi\n      dup1\n      0x18160ddd\n      eq\n      tag_5\n      jumpi\n      dup1\n      0x1d43cc98\n      eq\n      tag_6\n      jumpi\n      dup1\n      0x23b872dd\n      eq\n      tag_7\n      jumpi\n    tag_2:\n      0x00\n      dup1\n      revert\n        /* \"DISNEY/ERC20.sol\":1306:1347  string public constant name = \"GUGUICOIN\" */\n    tag_3:\n      tag_14\n      tag_15\n      jump\t// in\n    tag_14:\n      mload(0x40)\n      tag_16\n      swap2\n      swap1\n      tag_17\n      jump\t// in\n    tag_16:\n      mload(0x40)\n      dup1\n      swap2\n      sub\n      swap1\n      return\n        /* \"DISNEY/ERC20.sol\":2970:3189  function approve(address _delegate, uint256 _amount) public override returns(bool){\r... */\n    tag_4:\n      tag_18\n      0x04\n      dup1\n      calldatasize\n      sub\n      dup2\n      add\n      swap1\n      tag_19\n      swap2\n      swap1\n      tag_20\n      jump\t// in\n    tag_19:\n      tag_21\n      jump\t// in\n    tag_18:\n      mload(0x40)\n      tag_22\n      swap2\n      swap1\n      tag_23\n      jump\t// in\n    tag_22:\n      mload(0x40)\n      dup1\n      swap2\n      sub\n      swap1\n      return\n        /* \"DISNEY/ERC20.sol\":2009:2107  function totalSupply() public view override returns(uint256){\r... */\n    tag_5:\n      tag_24\n      tag_25\n      jump\t// in\n    tag_24:\n      mload(0x40)\n      tag_26\n      swap2\n      swap1\n      tag_27\n      jump\t// in\n    tag_26:\n      mload(0x40)\n      dup1\n      swap2\n      sub\n      swap1\n      return\n        /* \"DISNEY/ERC20.sol\":2115:2319  function increaseTotalSupply (uint _newTokensAmount) public {\r... */\n    tag_6:\n      tag_28\n      0x04\n      dup1\n      calldatasize\n      sub\n      dup2\n      add\n      swap1\n      tag_29\n      swap2\n      swap1\n      tag_30\n      jump\t// in\n    tag_29:\n      tag_31\n      jump\t// in\n    tag_28:\n      stop\n        /* \"DISNEY/ERC20.sol\":3197:3682  function transferFrom(address _owner, address _buyer, uint256 _amount) external override returns(bool){\r... */\n    tag_7:\n      tag_32\n      0x04\n      dup1\n      calldatasize\n      sub\n      dup2\n      add\n      swap1\n      tag_33\n      swap2\n      swap1\n      tag_34\n      jump\t// in\n    tag_33:\n      tag_35\n      jump\t// in\n    tag_32:\n      mload(0x40)\n      tag_36\n      swap2\n      swap1\n      tag_23\n      jump\t// in\n    tag_36:\n      mload(0x40)\n      dup1\n      swap2\n      sub\n      swap1\n      return\n        /* \"DISNEY/ERC20.sol\":1397:1431  uint8 public constant decimals = 2 */\n    tag_8:\n      tag_37\n      tag_38\n      jump\t// in\n    tag_37:\n      mload(0x40)\n      tag_39\n      swap2\n      swap1\n      tag_40\n      jump\t// in\n    tag_39:\n      mload(0x40)\n      dup1\n      swap2\n      sub\n      swap1\n      return\n        /* \"DISNEY/ERC20.sol\":2327:2451  function balanceOf(address _tokenOwner) public view override returns(uint256){\r... */\n    tag_9:\n      tag_41\n      0x04\n      dup1\n      calldatasize\n      sub\n      dup2\n      add\n      swap1\n      tag_42\n      swap2\n      swap1\n      tag_43\n      jump\t// in\n    tag_42:\n      tag_44\n      jump\t// in\n    tag_41:\n      mload(0x40)\n      tag_45\n      swap2\n      swap1\n      tag_27\n      jump\t// in\n    tag_45:\n      mload(0x40)\n      dup1\n      swap2\n      sub\n      swap1\n      return\n        /* \"DISNEY/ERC20.sol\":1354:1390  string public constant symbol = \"GC\" */\n    tag_10:\n      tag_46\n      tag_47\n      jump\t// in\n    tag_46:\n      mload(0x40)\n      tag_48\n      swap2\n      swap1\n      tag_17\n      jump\t// in\n    tag_48:\n      mload(0x40)\n      dup1\n      swap2\n      sub\n      swap1\n      return\n        /* \"DISNEY/ERC20.sol\":2610:2962  function transfer(address _recipient, uint _amount) public override returns(bool) {\r... */\n    tag_11:\n      tag_49\n      0x04\n      dup1\n      calldatasize\n      sub\n      dup2\n      add\n      swap1\n      tag_50\n      swap2\n      swap1\n      tag_20\n      jump\t// in\n    tag_50:\n      tag_51\n      jump\t// in\n    tag_49:\n      mload(0x40)\n      tag_52\n      swap2\n      swap1\n      tag_23\n      jump\t// in\n    tag_52:\n      mload(0x40)\n      dup1\n      swap2\n      sub\n      swap1\n      return\n        /* \"DISNEY/ERC20.sol\":2459:2602  function allowance(address _owner, address _delegate) public view override returns(uint256){\r... */\n    tag_12:\n      tag_53\n      0x04\n      dup1\n      calldatasize\n      sub\n      dup2\n      add\n      swap1\n      tag_54\n      swap2\n      swap1\n      tag_55\n      jump\t// in\n    tag_54:\n      tag_56\n      jump\t// in\n    tag_53:\n      mload(0x40)\n      tag_57\n      swap2\n      swap1\n      tag_27\n      jump\t// in\n    tag_57:\n      mload(0x40)\n      dup1\n      swap2\n      sub\n      swap1\n      return\n        /* \"DISNEY/ERC20.sol\":1306:1347  string public constant name = \"GUGUICOIN\" */\n    tag_15:\n      mload(0x40)\n      dup1\n      0x40\n      add\n      0x40\n      mstore\n      dup1\n      0x09\n      dup2\n      mstore\n      0x20\n      add\n      0x4755475549434f494e0000000000000000000000000000000000000000000000\n      dup2\n      mstore\n      pop\n      dup2\n      jump\t// out\n        /* \"DISNEY/ERC20.sol\":2970:3189  function approve(address _delegate, uint256 _amount) public override returns(bool){\r... */\n    tag_21:\n        /* \"DISNEY/ERC20.sol\":3047:3051  bool */\n      0x00\n        /* \"DISNEY/ERC20.sol\":3096:3103  _amount */\n      dup2\n        /* \"DISNEY/ERC20.sol\":3063:3070  allowed */\n      0x01\n        /* \"DISNEY/ERC20.sol\":3063:3082  allowed[msg.sender] */\n      0x00\n        /* \"DISNEY/ERC20.sol\":3071:3081  msg.sender */\n      caller\n        /* \"DISNEY/ERC20.sol\":3063:3082  allowed[msg.sender] */\n      0xffffffffffffffffffffffffffffffffffffffff\n      and\n      0xffffffffffffffffffffffffffffffffffffffff\n      and\n      dup2\n      mstore\n      0x20\n      add\n      swap1\n      dup2\n      mstore\n      0x20\n      add\n      0x00\n      keccak256\n        /* \"DISNEY/ERC20.sol\":3063:3093  allowed[msg.sender][_delegate] */\n      0x00\n        /* \"DISNEY/ERC20.sol\":3083:3092  _delegate */\n      dup6\n        /* \"DISNEY/ERC20.sol\":3063:3093  allowed[msg.sender][_delegate] */\n      0xffffffffffffffffffffffffffffffffffffffff\n      and\n      0xffffffffffffffffffffffffffffffffffffffff\n      and\n      dup2\n      mstore\n      0x20\n      add\n      swap1\n      dup2\n      mstore\n      0x20\n      add\n      0x00\n      keccak256\n        /* \"DISNEY/ERC20.sol\":3063:3103  allowed[msg.sender][_delegate] = _amount */\n      dup2\n      swap1\n      sstore\n      pop\n        /* \"DISNEY/ERC20.sol\":3140:3149  _delegate */\n      dup3\n        /* \"DISNEY/ERC20.sol\":3119:3159  Approval(msg.sender, _delegate, _amount) */\n      0xffffffffffffffffffffffffffffffffffffffff\n      and\n        /* \"DISNEY/ERC20.sol\":3128:3138  msg.sender */\n      caller\n        /* \"DISNEY/ERC20.sol\":3119:3159  Approval(msg.sender, _delegate, _amount) */\n      0xffffffffffffffffffffffffffffffffffffffff\n      and\n      0x8c5be1e5ebec7d5bd14f71427d1e84f3dd0314c0f7b2291e5b200ac8c7c3b925\n        /* \"DISNEY/ERC20.sol\":3151:3158  _amount */\n      dup5\n        /* \"DISNEY/ERC20.sol\":3119:3159  Approval(msg.sender, _delegate, _amount) */\n      mload(0x40)\n      tag_59\n      swap2\n      swap1\n      tag_27\n      jump\t// in\n    tag_59:\n      mload(0x40)\n      dup1\n      swap2\n      sub\n      swap1\n      log3\n        /* \"DISNEY/ERC20.sol\":3177:3181  true */\n      0x01\n        /* \"DISNEY/ERC20.sol\":3170:3181  return true */\n      swap1\n      pop\n        /* \"DISNEY/ERC20.sol\":2970:3189  function approve(address _delegate, uint256 _amount) public override returns(bool){\r... */\n      swap3\n      swap2\n      pop\n      pop\n      jump\t// out\n        /* \"DISNEY/ERC20.sol\":2009:2107  function totalSupply() public view override returns(uint256){\r... */\n    tag_25:\n        /* \"DISNEY/ERC20.sol\":2061:2068  uint256 */\n      0x00\n        /* \"DISNEY/ERC20.sol\":2087:2099  _totalSupply */\n      sload(0x02)\n        /* \"DISNEY/ERC20.sol\":2080:2099  return _totalSupply */\n      swap1\n      pop\n        /* \"DISNEY/ERC20.sol\":2009:2107  function totalSupply() public view override returns(uint256){\r... */\n      swap1\n      jump\t// out\n        /* \"DISNEY/ERC20.sol\":2115:2319  function increaseTotalSupply (uint _newTokensAmount) public {\r... */\n    tag_31:\n        /* \"DISNEY/ERC20.sol\":2201:2235  _totalSupply.add(_newTokensAmount) */\n      tag_62\n        /* \"DISNEY/ERC20.sol\":2218:2234  _newTokensAmount */\n      dup2\n        /* \"DISNEY/ERC20.sol\":2201:2213  _totalSupply */\n      sload(0x02)\n        /* \"DISNEY/ERC20.sol\":2201:2217  _totalSupply.add */\n      tag_63\n      swap1\n        /* \"DISNEY/ERC20.sol\":2201:2235  _totalSupply.add(_newTokensAmount) */\n      swap2\n      swap1\n      0xffffffff\n      and\n      jump\t// in\n    tag_62:\n        /* \"DISNEY/ERC20.sol\":2186:2198  _totalSupply */\n      0x02\n        /* \"DISNEY/ERC20.sol\":2186:2235  _totalSupply = _totalSupply.add(_newTokensAmount) */\n      dup2\n      swap1\n      sstore\n      pop\n        /* \"DISNEY/ERC20.sol\":2269:2311  balances[msg.sender].add(_newTokensAmount) */\n      tag_64\n        /* \"DISNEY/ERC20.sol\":2294:2310  _newTokensAmount */\n      dup2\n        /* \"DISNEY/ERC20.sol\":2269:2277  balances */\n      0x00\n        /* \"DISNEY/ERC20.sol\":2269:2289  balances[msg.sender] */\n      dup1\n        /* \"DISNEY/ERC20.sol\":2278:2288  msg.sender */\n      caller\n        /* \"DISNEY/ERC20.sol\":2269:2289  balances[msg.sender] */\n      0xffffffffffffffffffffffffffffffffffffffff\n      and\n      0xffffffffffffffffffffffffffffffffffffffff\n      and\n      dup2\n      mstore\n      0x20\n      add\n      swap1\n      dup2\n      mstore\n      0x20\n      add\n      0x00\n      keccak256\n      sload\n        /* \"DISNEY/ERC20.sol\":2269:2293  balances[msg.sender].add */\n      tag_63\n      swap1\n        /* \"DISNEY/ERC20.sol\":2269:2311  balances[msg.sender].add(_newTokensAmount) */\n      swap2\n      swap1\n      0xffffffff\n      and\n      jump\t// in\n    tag_64:\n        /* \"DISNEY/ERC20.sol\":2246:2254  balances */\n      0x00\n        /* \"DISNEY/ERC20.sol\":2246:2266  balances[msg.sender] */\n      dup1\n        /* \"DISNEY/ERC20.sol\":2255:2265  msg.sender */\n      caller\n        /* \"DISNEY/ERC20.sol\":2246:2266  balances[msg.sender] */\n      0xffffffffffffffffffffffffffffffffffffffff\n      and\n      0xffffffffffffffffffffffffffffffffffffffff\n      and\n      dup2\n      mstore\n      0x20\n      add\n      swap1\n      dup2\n      mstore\n      0x20\n      add\n      0x00\n      keccak256\n        /* \"DISNEY/ERC20.sol\":2246:2311  balances[msg.sender] = balances[msg.sender].add(_newTokensAmount) */\n      dup2\n      swap1\n      sstore\n      pop\n        /* \"DISNEY/ERC20.sol\":2115:2319  function increaseTotalSupply (uint _newTokensAmount) public {\r... */\n      pop\n      jump\t// out\n        /* \"DISNEY/ERC20.sol\":3197:3682  function transferFrom(address _owner, address _buyer, uint256 _amount) external override returns(bool){\r... */\n    tag_35:\n        /* \"DISNEY/ERC20.sol\":3294:3298  bool */\n      0x00\n        /* \"DISNEY/ERC20.sol\":3338:3345  _amount */\n      dup2\n        /* \"DISNEY/ERC20.sol\":3318:3326  balances */\n      0x00\n        /* \"DISNEY/ERC20.sol\":3318:3334  balances[_owner] */\n      dup1\n        /* \"DISNEY/ERC20.sol\":3327:3333  _owner */\n      dup7\n        /* \"DISNEY/ERC20.sol\":3318:3334  balances[_owner] */\n      0xffffffffffffffffffffffffffffffffffffffff\n      and\n      0xffffffffffffffffffffffffffffffffffffffff\n      and\n      dup2\n      mstore\n      0x20\n      add\n      swap1\n      dup2\n      mstore\n      0x20\n      add\n      0x00\n      keccak256\n      sload\n        /* \"DISNEY/ERC20.sol\":3318:3345  balances[_owner] >= _amount */\n      lt\n      iszero\n        /* \"DISNEY/ERC20.sol\":3310:3346  require(balances[_owner] >= _amount) */\n      tag_66\n      jumpi\n      0x00\n      dup1\n      revert\n    tag_66:\n        /* \"DISNEY/ERC20.sol\":3396:3403  _amount */\n      dup2\n        /* \"DISNEY/ERC20.sol\":3365:3372  allowed */\n      0x01\n        /* \"DISNEY/ERC20.sol\":3365:3380  allowed[_owner] */\n      0x00\n        /* \"DISNEY/ERC20.sol\":3373:3379  _owner */\n      dup7\n        /* \"DISNEY/ERC20.sol\":3365:3380  allowed[_owner] */\n      0xffffffffffffffffffffffffffffffffffffffff\n      and\n      0xffffffffffffffffffffffffffffffffffffffff\n      and\n      dup2\n      mstore\n      0x20\n      add\n      swap1\n      dup2\n      mstore\n      0x20\n      add\n      0x00\n      keccak256\n        /* \"DISNEY/ERC20.sol\":3365:3392  allowed[_owner][msg.sender] */\n      0x00\n        /* \"DISNEY/ERC20.sol\":3381:3391  msg.sender */\n      caller\n        /* \"DISNEY/ERC20.sol\":3365:3392  allowed[_owner][msg.sender] */\n      0xffffffffffffffffffffffffffffffffffffffff\n      and\n      0xffffffffffffffffffffffffffffffffffffffff\n      and\n      dup2\n      mstore\n      0x20\n      add\n      swap1\n      dup2\n      mstore\n      0x20\n      add\n      0x00\n      keccak256\n      sload\n        /* \"DISNEY/ERC20.sol\":3365:3403  allowed[_owner][msg.sender] >= _amount */\n      lt\n      iszero\n        /* \"DISNEY/ERC20.sol\":3357:3404  require(allowed[_owner][msg.sender] >= _amount) */\n      tag_67\n      jumpi\n      0x00\n      dup1\n      revert\n    tag_67:\n        /* \"DISNEY/ERC20.sol\":3436:3465  balances[_owner].sub(_amount) */\n      tag_68\n        /* \"DISNEY/ERC20.sol\":3457:3464  _amount */\n      dup3\n        /* \"DISNEY/ERC20.sol\":3436:3444  balances */\n      0x00\n        /* \"DISNEY/ERC20.sol\":3436:3452  balances[_owner] */\n      dup1\n        /* \"DISNEY/ERC20.sol\":3445:3451  _owner */\n      dup8\n        /* \"DISNEY/ERC20.sol\":3436:3452  balances[_owner] */\n      0xffffffffffffffffffffffffffffffffffffffff\n      and\n      0xffffffffffffffffffffffffffffffffffffffff\n      and\n      dup2\n      mstore\n      0x20\n      add\n      swap1\n      dup2\n      mstore\n      0x20\n      add\n      0x00\n      keccak256\n      sload\n        /* \"DISNEY/ERC20.sol\":3436:3456  balances[_owner].sub */\n      tag_69\n      swap1\n        /* \"DISNEY/ERC20.sol\":3436:3465  balances[_owner].sub(_amount) */\n      swap2\n      swap1\n      0xffffffff\n      and\n      jump\t// in\n    tag_68:\n        /* \"DISNEY/ERC20.sol\":3417:3425  balances */\n      0x00\n        /* \"DISNEY/ERC20.sol\":3417:3433  balances[_owner] */\n      dup1\n        /* \"DISNEY/ERC20.sol\":3426:3432  _owner */\n      dup7\n        /* \"DISNEY/ERC20.sol\":3417:3433  balances[_owner] */\n      0xffffffffffffffffffffffffffffffffffffffff\n      and\n      0xffffffffffffffffffffffffffffffffffffffff\n      and\n      dup2\n      mstore\n      0x20\n      add\n      swap1\n      dup2\n      mstore\n      0x20\n      add\n      0x00\n      keccak256\n        /* \"DISNEY/ERC20.sol\":3417:3465  balances[_owner] = balances[_owner].sub(_amount) */\n      dup2\n      swap1\n      sstore\n      pop\n        /* \"DISNEY/ERC20.sol\":3506:3546  allowed[_owner][msg.sender].sub(_amount) */\n      tag_70\n        /* \"DISNEY/ERC20.sol\":3538:3545  _amount */\n      dup3\n        /* \"DISNEY/ERC20.sol\":3506:3513  allowed */\n      0x01\n        /* \"DISNEY/ERC20.sol\":3506:3521  allowed[_owner] */\n      0x00\n        /* \"DISNEY/ERC20.sol\":3514:3520  _owner */\n      dup8\n        /* \"DISNEY/ERC20.sol\":3506:3521  allowed[_owner] */\n      0xffffffffffffffffffffffffffffffffffffffff\n      and\n      0xffffffffffffffffffffffffffffffffffffffff\n      and\n      dup2\n      mstore\n      0x20\n      add\n      swap1\n      dup2\n      mstore\n      0x20\n      add\n      0x00\n      keccak256\n        /* \"DISNEY/ERC20.sol\":3506:3533  allowed[_owner][msg.sender] */\n      0x00\n        /* \"DISNEY/ERC20.sol\":3522:3532  msg.sender */\n      caller\n        /* \"DISNEY/ERC20.sol\":3506:3533  allowed[_owner][msg.sender] */\n      0xffffffffffffffffffffffffffffffffffffffff\n      and\n      0xffffffffffffffffffffffffffffffffffffffff\n      and\n      dup2\n      mstore\n      0x20\n      add\n      swap1\n      dup2\n      mstore\n      0x20\n      add\n      0x00\n      keccak256\n      sload\n        /* \"DISNEY/ERC20.sol\":3506:3537  allowed[_owner][msg.sender].sub */\n      tag_69\n      swap1\n        /* \"DISNEY/ERC20.sol\":3506:3546  allowed[_owner][msg.sender].sub(_amount) */\n      swap2\n      swap1\n      0xffffffff\n      and\n      jump\t// in\n    tag_70:\n        /* \"DISNEY/ERC20.sol\":3476:3483  allowed */\n      0x01\n        /* \"DISNEY/ERC20.sol\":3476:3491  allowed[_owner] */\n      0x00\n        /* \"DISNEY/ERC20.sol\":3484:3490  _owner */\n      dup7\n        /* \"DISNEY/ERC20.sol\":3476:3491  allowed[_owner] */\n      0xffffffffffffffffffffffffffffffffffffffff\n      and\n      0xffffffffffffffffffffffffffffffffffffffff\n      and\n      dup2\n      mstore\n      0x20\n      add\n      swap1\n      dup2\n      mstore\n      0x20\n      add\n      0x00\n      keccak256\n        /* \"DISNEY/ERC20.sol\":3476:3503  allowed[_owner][msg.sender] */\n      0x00\n        /* \"DISNEY/ERC20.sol\":3492:3502  msg.sender */\n      caller\n        /* \"DISNEY/ERC20.sol\":3476:3503  allowed[_owner][msg.sender] */\n      0xffffffffffffffffffffffffffffffffffffffff\n      and\n      0xffffffffffffffffffffffffffffffffffffffff\n      and\n      dup2\n      mstore\n      0x20\n      add\n      swap1\n      dup2\n      mstore\n      0x20\n      add\n      0x00\n      keccak256\n        /* \"DISNEY/ERC20.sol\":3476:3546  allowed[_owner][msg.sender] = allowed[_owner][msg.sender].sub(_amount) */\n      dup2\n      swap1\n      sstore\n      pop\n        /* \"DISNEY/ERC20.sol\":3576:3605  balances[_buyer].add(_amount) */\n      tag_71\n        /* \"DISNEY/ERC20.sol\":3597:3604  _amount */\n      dup3\n        /* \"DISNEY/ERC20.sol\":3576:3584  balances */\n      0x00\n        /* \"DISNEY/ERC20.sol\":3576:3592  balances[_buyer] */\n      dup1\n        /* \"DISNEY/ERC20.sol\":3585:3591  _buyer */\n      dup7\n        /* \"DISNEY/ERC20.sol\":3576:3592  balances[_buyer] */\n      0xffffffffffffffffffffffffffffffffffffffff\n      and\n      0xffffffffffffffffffffffffffffffffffffffff\n      and\n      dup2\n      mstore\n      0x20\n      add\n      swap1\n      dup2\n      mstore\n      0x20\n      add\n      0x00\n      keccak256\n      sload\n        /* \"DISNEY/ERC20.sol\":3576:3596  balances[_buyer].add */\n      tag_63\n      swap1\n        /* \"DISNEY/ERC20.sol\":3576:3605  balances[_buyer].add(_amount) */\n      swap2\n      swap1\n      0xffffffff\n      and\n      jump\t// in\n    tag_71:\n        /* \"DISNEY/ERC20.sol\":3557:3565  balances */\n      0x00\n        /* \"DISNEY/ERC20.sol\":3557:3573  balances[_buyer] */\n      dup1\n        /* \"DISNEY/ERC20.sol\":3566:3572  _buyer */\n      dup6\n        /* \"DISNEY/ERC20.sol\":3557:3573  balances[_buyer] */\n      0xffffffffffffffffffffffffffffffffffffffff\n      and\n      0xffffffffffffffffffffffffffffffffffffffff\n      and\n      dup2\n      mstore\n      0x20\n      add\n      swap1\n      dup2\n      mstore\n      0x20\n      add\n      0x00\n      keccak256\n        /* \"DISNEY/ERC20.sol\":3557:3605  balances[_buyer] = balances[_buyer].add(_amount) */\n      dup2\n      swap1\n      sstore\n      pop\n        /* \"DISNEY/ERC20.sol\":3637:3643  _buyer */\n      dup3\n        /* \"DISNEY/ERC20.sol\":3621:3652  Transfer(_owner,_buyer,_amount) */\n      0xffffffffffffffffffffffffffffffffffffffff\n      and\n        /* \"DISNEY/ERC20.sol\":3630:3636  _owner */\n      dup5\n        /* \"DISNEY/ERC20.sol\":3621:3652  Transfer(_owner,_buyer,_amount) */\n      0xffffffffffffffffffffffffffffffffffffffff\n      and\n      0xddf252ad1be2c89b69c2b068fc378daa952ba7f163c4a11628f55a4df523b3ef\n        /* \"DISNEY/ERC20.sol\":3644:3651  _amount */\n      dup5\n        /* \"DISNEY/ERC20.sol\":3621:3652  Transfer(_owner,_buyer,_amount) */\n      mload(0x40)\n      tag_72\n      swap2\n      swap1\n      tag_27\n      jump\t// in\n    tag_72:\n      mload(0x40)\n      dup1\n      swap2\n      sub\n      swap1\n      log3\n        /* \"DISNEY/ERC20.sol\":3670:3674  true */\n      0x01\n        /* \"DISNEY/ERC20.sol\":3663:3674  return true */\n      swap1\n      pop\n        /* \"DISNEY/ERC20.sol\":3197:3682  function transferFrom(address _owner, address _buyer, uint256 _amount) external override returns(bool){\r... */\n      swap4\n      swap3\n      pop\n      pop\n      pop\n      jump\t// out\n        /* \"DISNEY/ERC20.sol\":1397:1431  uint8 public constant decimals = 2 */\n    tag_38:\n        /* \"DISNEY/ERC20.sol\":1430:1431  2 */\n      0x02\n        /* \"DISNEY/ERC20.sol\":1397:1431  uint8 public constant decimals = 2 */\n      dup2\n      jump\t// out\n        /* \"DISNEY/ERC20.sol\":2327:2451  function balanceOf(address _tokenOwner) public view override returns(uint256){\r... */\n    tag_44:\n        /* \"DISNEY/ERC20.sol\":2396:2403  uint256 */\n      0x00\n        /* \"DISNEY/ERC20.sol\":2422:2430  balances */\n      dup1\n        /* \"DISNEY/ERC20.sol\":2422:2443  balances[_tokenOwner] */\n      0x00\n        /* \"DISNEY/ERC20.sol\":2431:2442  _tokenOwner */\n      dup4\n        /* \"DISNEY/ERC20.sol\":2422:2443  balances[_tokenOwner] */\n      0xffffffffffffffffffffffffffffffffffffffff\n      and\n      0xffffffffffffffffffffffffffffffffffffffff\n      and\n      dup2\n      mstore\n      0x20\n      add\n      swap1\n      dup2\n      mstore\n      0x20\n      add\n      0x00\n      keccak256\n      sload\n        /* \"DISNEY/ERC20.sol\":2415:2443  return balances[_tokenOwner] */\n      swap1\n      pop\n        /* \"DISNEY/ERC20.sol\":2327:2451  function balanceOf(address _tokenOwner) public view override returns(uint256){\r... */\n      swap2\n      swap1\n      pop\n      jump\t// out\n        /* \"DISNEY/ERC20.sol\":1354:1390  string public constant symbol = \"GC\" */\n    tag_47:\n      mload(0x40)\n      dup1\n      0x40\n      add\n      0x40\n      mstore\n      dup1\n      0x02\n      dup2\n      mstore\n      0x20\n      add\n      0x4743000000000000000000000000000000000000000000000000000000000000\n      dup2\n      mstore\n      pop\n      dup2\n      jump\t// out\n        /* \"DISNEY/ERC20.sol\":2610:2962  function transfer(address _recipient, uint _amount) public override returns(bool) {\r... */\n    tag_51:\n        /* \"DISNEY/ERC20.sol\":2686:2690  bool */\n      0x00\n        /* \"DISNEY/ERC20.sol\":2735:2742  _amount */\n      dup2\n        /* \"DISNEY/ERC20.sol\":2711:2719  balances */\n      0x00\n        /* \"DISNEY/ERC20.sol\":2711:2731  balances[msg.sender] */\n      dup1\n        /* \"DISNEY/ERC20.sol\":2720:2730  msg.sender */\n      caller\n        /* \"DISNEY/ERC20.sol\":2711:2731  balances[msg.sender] */\n      0xffffffffffffffffffffffffffffffffffffffff\n      and\n      0xffffffffffffffffffffffffffffffffffffffff\n      and\n      dup2\n      mstore\n      0x20\n      add\n      swap1\n      dup2\n      mstore\n      0x20\n      add\n      0x00\n      keccak256\n      sload\n        /* \"DISNEY/ERC20.sol\":2711:2742  balances[msg.sender] >= _amount */\n      lt\n      iszero\n        /* \"DISNEY/ERC20.sol\":2703:2743  require(balances[msg.sender] >= _amount) */\n      tag_75\n      jumpi\n      0x00\n      dup1\n      revert\n    tag_75:\n        /* \"DISNEY/ERC20.sol\":2777:2810  balances[msg.sender].sub(_amount) */\n      tag_76\n        /* \"DISNEY/ERC20.sol\":2802:2809  _amount */\n      dup3\n        /* \"DISNEY/ERC20.sol\":2777:2785  balances */\n      0x00\n        /* \"DISNEY/ERC20.sol\":2777:2797  balances[msg.sender] */\n      dup1\n        /* \"DISNEY/ERC20.sol\":2786:2796  msg.sender */\n      caller\n        /* \"DISNEY/ERC20.sol\":2777:2797  balances[msg.sender] */\n      0xffffffffffffffffffffffffffffffffffffffff\n      and\n      0xffffffffffffffffffffffffffffffffffffffff\n      and\n      dup2\n      mstore\n      0x20\n      add\n      swap1\n      dup2\n      mstore\n      0x20\n      add\n      0x00\n      keccak256\n      sload\n        /* \"DISNEY/ERC20.sol\":2777:2801  balances[msg.sender].sub */\n      tag_69\n      swap1\n        /* \"DISNEY/ERC20.sol\":2777:2810  balances[msg.sender].sub(_amount) */\n      swap2\n      swap1\n      0xffffffff\n      and\n      jump\t// in\n    tag_76:\n        /* \"DISNEY/ERC20.sol\":2754:2762  balances */\n      0x00\n        /* \"DISNEY/ERC20.sol\":2754:2774  balances[msg.sender] */\n      dup1\n        /* \"DISNEY/ERC20.sol\":2763:2773  msg.sender */\n      caller\n        /* \"DISNEY/ERC20.sol\":2754:2774  balances[msg.sender] */\n      0xffffffffffffffffffffffffffffffffffffffff\n      and\n      0xffffffffffffffffffffffffffffffffffffffff\n      and\n      dup2\n      mstore\n      0x20\n      add\n      swap1\n      dup2\n      mstore\n      0x20\n      add\n      0x00\n      keccak256\n        /* \"DISNEY/ERC20.sol\":2754:2810  balances[msg.sender] = balances[msg.sender].sub(_amount) */\n      dup2\n      swap1\n      sstore\n      pop\n        /* \"DISNEY/ERC20.sol\":2844:2877  balances[_recipient].add(_amount) */\n      tag_77\n        /* \"DISNEY/ERC20.sol\":2869:2876  _amount */\n      dup3\n        /* \"DISNEY/ERC20.sol\":2844:2852  balances */\n      0x00\n        /* \"DISNEY/ERC20.sol\":2844:2864  balances[_recipient] */\n      dup1\n        /* \"DISNEY/ERC20.sol\":2853:2863  _recipient */\n      dup7\n        /* \"DISNEY/ERC20.sol\":2844:2864  balances[_recipient] */\n      0xffffffffffffffffffffffffffffffffffffffff\n      and\n      0xffffffffffffffffffffffffffffffffffffffff\n      and\n      dup2\n      mstore\n      0x20\n      add\n      swap1\n      dup2\n      mstore\n      0x20\n      add\n      0x00\n      keccak256\n      sload\n        /* \"DISNEY/ERC20.sol\":2844:2868  balances[_recipient].add */\n      tag_63\n      swap1\n        /* \"DISNEY/ERC20.sol\":2844:2877  balances[_recipient].add(_amount) */\n      swap2\n      swap1\n      0xffffffff\n      and\n      jump\t// in\n    tag_77:\n        /* \"DISNEY/ERC20.sol\":2821:2829  balances */\n      0x00\n        /* \"DISNEY/ERC20.sol\":2821:2841  balances[_recipient] */\n      dup1\n        /* \"DISNEY/ERC20.sol\":2830:2840  _recipient */\n      dup6\n        /* \"DISNEY/ERC20.sol\":2821:2841  balances[_recipient] */\n      0xffffffffffffffffffffffffffffffffffffffff\n      and\n      0xffffffffffffffffffffffffffffffffffffffff\n      and\n      dup2\n      mstore\n      0x20\n      add\n      swap1\n      dup2\n      mstore\n      0x20\n      add\n      0x00\n      keccak256\n        /* \"DISNEY/ERC20.sol\":2821:2877  balances[_recipient] = balances[_recipient].add(_amount) */\n      dup2\n      swap1\n      sstore\n      pop\n        /* \"DISNEY/ERC20.sol\":2913:2923  _recipient */\n      dup3\n        /* \"DISNEY/ERC20.sol\":2893:2932  Transfer(msg.sender,_recipient,_amount) */\n      0xffffffffffffffffffffffffffffffffffffffff\n      and\n        /* \"DISNEY/ERC20.sol\":2902:2912  msg.sender */\n      caller\n        /* \"DISNEY/ERC20.sol\":2893:2932  Transfer(msg.sender,_recipient,_amount) */\n      0xffffffffffffffffffffffffffffffffffffffff\n      and\n      0xddf252ad1be2c89b69c2b068fc378daa952ba7f163c4a11628f55a4df523b3ef\n        /* \"DISNEY/ERC20.sol\":2924:2931  _amount */\n      dup5\n        /* \"DISNEY/ERC20.sol\":2893:2932  Transfer(msg.sender,_recipient,_amount) */\n      mload(0x40)\n      tag_78\n      swap2\n      swap1\n      tag_27\n      jump\t// in\n    tag_78:\n      mload(0x40)\n      dup1\n      swap2\n      sub\n      swap1\n      log3\n        /* \"DISNEY/ERC20.sol\":2950:2954  true */\n      0x01\n        /* \"DISNEY/ERC20.sol\":2943:2954  return true */\n      swap1\n      pop\n        /* \"DISNEY/ERC20.sol\":2610:2962  function transfer(address _recipient, uint _amount) public override returns(bool) {\r... */\n      swap3\n      swap2\n      pop\n      pop\n      jump\t// out\n        /* \"DISNEY/ERC20.sol\":2459:2602  function allowance(address _owner, address _delegate) public view override returns(uint256){\r... */\n    tag_56:\n        /* \"DISNEY/ERC20.sol\":2542:2549  uint256 */\n      0x00\n        /* \"DISNEY/ERC20.sol\":2568:2575  allowed */\n      0x01\n        /* \"DISNEY/ERC20.sol\":2568:2583  allowed[_owner] */\n      0x00\n        /* \"DISNEY/ERC20.sol\":2576:2582  _owner */\n      dup5\n        /* \"DISNEY/ERC20.sol\":2568:2583  allowed[_owner] */\n      0xffffffffffffffffffffffffffffffffffffffff\n      and\n      0xffffffffffffffffffffffffffffffffffffffff\n      and\n      dup2\n      mstore\n      0x20\n      add\n      swap1\n      dup2\n      mstore\n      0x20\n      add\n      0x00\n      keccak256\n        /* \"DISNEY/ERC20.sol\":2568:2594  allowed[_owner][_delegate] */\n      0x00\n        /* \"DISNEY/ERC20.sol\":2584:2593  _delegate */\n      dup4\n        /* \"DISNEY/ERC20.sol\":2568:2594  allowed[_owner][_delegate] */\n      0xffffffffffffffffffffffffffffffffffffffff\n      and\n      0xffffffffffffffffffffffffffffffffffffffff\n      and\n      dup2\n      mstore\n      0x20\n      add\n      swap1\n      dup2\n      mstore\n      0x20\n      add\n      0x00\n      keccak256\n      sload\n        /* \"DISNEY/ERC20.sol\":2561:2594  return allowed[_owner][_delegate] */\n      swap1\n      pop\n        /* \"DISNEY/ERC20.sol\":2459:2602  function allowance(address _owner, address _delegate) public view override returns(uint256){\r... */\n      swap3\n      swap2\n      pop\n      pop\n      jump\t// out\n        /* \"DISNEY/SafeMath.sol\":463:604  function add(uint256 a, uint256 b) internal pure returns (uint256) {\r... */\n    tag_63:\n        /* \"DISNEY/SafeMath.sol\":521:528  uint256 */\n      0x00\n        /* \"DISNEY/SafeMath.sol\":539:548  uint256 c */\n      dup1\n        /* \"DISNEY/SafeMath.sol\":555:556  b */\n      dup3\n        /* \"DISNEY/SafeMath.sol\":551:552  a */\n      dup5\n        /* \"DISNEY/SafeMath.sol\":551:556  a + b */\n      add\n        /* \"DISNEY/SafeMath.sol\":539:556  uint256 c = a + b */\n      swap1\n      pop\n        /* \"DISNEY/SafeMath.sol\":577:578  a */\n      dup4\n        /* \"DISNEY/SafeMath.sol\":572:573  c */\n      dup2\n        /* \"DISNEY/SafeMath.sol\":572:578  c >= a */\n      lt\n      iszero\n        /* \"DISNEY/SafeMath.sol\":565:579  assert(c >= a) */\n      tag_81\n      jumpi\n      invalid\n    tag_81:\n        /* \"DISNEY/SafeMath.sol\":595:596  c */\n      dup1\n        /* \"DISNEY/SafeMath.sol\":588:596  return c */\n      swap2\n      pop\n      pop\n        /* \"DISNEY/SafeMath.sol\":463:604  function add(uint256 a, uint256 b) internal pure returns (uint256) {\r... */\n      swap3\n      swap2\n      pop\n      pop\n      jump\t// out\n        /* \"DISNEY/SafeMath.sol\":318:437  function sub(uint256 a, uint256 b) internal pure returns (uint256) {\r... */\n    tag_69:\n        /* \"DISNEY/SafeMath.sol\":376:383  uint256 */\n      0x00\n        /* \"DISNEY/SafeMath.sol\":406:407  a */\n      dup3\n        /* \"DISNEY/SafeMath.sol\":401:402  b */\n      dup3\n        /* \"DISNEY/SafeMath.sol\":401:407  b <= a */\n      gt\n      iszero\n        /* \"DISNEY/SafeMath.sol\":394:408  assert(b <= a) */\n      tag_83\n      jumpi\n      invalid\n    tag_83:\n        /* \"DISNEY/SafeMath.sol\":428:429  b */\n      dup2\n        /* \"DISNEY/SafeMath.sol\":424:425  a */\n      dup4\n        /* \"DISNEY/SafeMath.sol\":424:429  a - b */\n      sub\n        /* \"DISNEY/SafeMath.sol\":417:429  return a - b */\n      swap1\n      pop\n        /* \"DISNEY/SafeMath.sol\":318:437  function sub(uint256 a, uint256 b) internal pure returns (uint256) {\r... */\n      swap3\n      swap2\n      pop\n      pop\n      jump\t// out\n        /* \"--CODEGEN--\":5:135   */\n    tag_85:\n      0x00\n        /* \"--CODEGEN--\":85:91   */\n      dup2\n        /* \"--CODEGEN--\":72:92   */\n      calldataload\n        /* \"--CODEGEN--\":63:92   */\n      swap1\n      pop\n        /* \"--CODEGEN--\":97:130   */\n      tag_87\n        /* \"--CODEGEN--\":124:129   */\n      dup2\n        /* \"--CODEGEN--\":97:130   */\n      tag_88\n      jump\t// in\n    tag_87:\n        /* \"--CODEGEN--\":57:135   */\n      swap3\n      swap2\n      pop\n      pop\n      jump\t// out\n        /* \"--CODEGEN--\":142:272   */\n    tag_89:\n      0x00\n        /* \"--CODEGEN--\":222:228   */\n      dup2\n        /* \"--CODEGEN--\":209:229   */\n      calldataload\n        /* \"--CODEGEN--\":200:229   */\n      swap1\n      pop\n        /* \"--CODEGEN--\":234:267   */\n      tag_91\n        /* \"--CODEGEN--\":261:266   */\n      dup2\n        /* \"--CODEGEN--\":234:267   */\n      tag_92\n      jump\t// in\n    tag_91:\n        /* \"--CODEGEN--\":194:272   */\n      swap3\n      swap2\n      pop\n      pop\n      jump\t// out\n        /* \"--CODEGEN--\":279:520   */\n    tag_43:\n      0x00\n        /* \"--CODEGEN--\":383:385   */\n      0x20\n        /* \"--CODEGEN--\":371:380   */\n      dup3\n        /* \"--CODEGEN--\":362:369   */\n      dup5\n        /* \"--CODEGEN--\":358:381   */\n      sub\n        /* \"--CODEGEN--\":354:386   */\n      slt\n        /* \"--CODEGEN--\":351:353   */\n      iszero\n      tag_94\n      jumpi\n        /* \"--CODEGEN--\":399:400   */\n      0x00\n        /* \"--CODEGEN--\":396:397   */\n      dup1\n        /* \"--CODEGEN--\":389:401   */\n      revert\n        /* \"--CODEGEN--\":351:353   */\n    tag_94:\n        /* \"--CODEGEN--\":434:435   */\n      0x00\n        /* \"--CODEGEN--\":451:504   */\n      tag_95\n        /* \"--CODEGEN--\":496:503   */\n      dup5\n        /* \"--CODEGEN--\":487:493   */\n      dup3\n        /* \"--CODEGEN--\":476:485   */\n      dup6\n        /* \"--CODEGEN--\":472:494   */\n      add\n        /* \"--CODEGEN--\":451:504   */\n      tag_85\n      jump\t// in\n    tag_95:\n        /* \"--CODEGEN--\":441:504   */\n      swap2\n      pop\n        /* \"--CODEGEN--\":413:510   */\n      pop\n        /* \"--CODEGEN--\":345:520   */\n      swap3\n      swap2\n      pop\n      pop\n      jump\t// out\n        /* \"--CODEGEN--\":527:893   */\n    tag_55:\n      0x00\n      dup1\n        /* \"--CODEGEN--\":648:650   */\n      0x40\n        /* \"--CODEGEN--\":636:645   */\n      dup4\n        /* \"--CODEGEN--\":627:634   */\n      dup6\n        /* \"--CODEGEN--\":623:646   */\n      sub\n        /* \"--CODEGEN--\":619:651   */\n      slt\n        /* \"--CODEGEN--\":616:618   */\n      iszero\n      tag_97\n      jumpi\n        /* \"--CODEGEN--\":664:665   */\n      0x00\n        /* \"--CODEGEN--\":661:662   */\n      dup1\n        /* \"--CODEGEN--\":654:666   */\n      revert\n        /* \"--CODEGEN--\":616:618   */\n    tag_97:\n        /* \"--CODEGEN--\":699:700   */\n      0x00\n        /* \"--CODEGEN--\":716:769   */\n      tag_98\n        /* \"--CODEGEN--\":761:768   */\n      dup6\n        /* \"--CODEGEN--\":752:758   */\n      dup3\n        /* \"--CODEGEN--\":741:750   */\n      dup7\n        /* \"--CODEGEN--\":737:759   */\n      add\n        /* \"--CODEGEN--\":716:769   */\n      tag_85\n      jump\t// in\n    tag_98:\n        /* \"--CODEGEN--\":706:769   */\n      swap3\n      pop\n        /* \"--CODEGEN--\":678:775   */\n      pop\n        /* \"--CODEGEN--\":806:808   */\n      0x20\n        /* \"--CODEGEN--\":824:877   */\n      tag_99\n        /* \"--CODEGEN--\":869:876   */\n      dup6\n        /* \"--CODEGEN--\":860:866   */\n      dup3\n        /* \"--CODEGEN--\":849:858   */\n      dup7\n        /* \"--CODEGEN--\":845:867   */\n      add\n        /* \"--CODEGEN--\":824:877   */\n      tag_85\n      jump\t// in\n    tag_99:\n        /* \"--CODEGEN--\":814:877   */\n      swap2\n      pop\n        /* \"--CODEGEN--\":785:883   */\n      pop\n        /* \"--CODEGEN--\":610:893   */\n      swap3\n      pop\n      swap3\n      swap1\n      pop\n      jump\t// out\n        /* \"--CODEGEN--\":900:1391   */\n    tag_34:\n      0x00\n      dup1\n      0x00\n        /* \"--CODEGEN--\":1038:1040   */\n      0x60\n        /* \"--CODEGEN--\":1026:1035   */\n      dup5\n        /* \"--CODEGEN--\":1017:1024   */\n      dup7\n        /* \"--CODEGEN--\":1013:1036   */\n      sub\n        /* \"--CODEGEN--\":1009:1041   */\n      slt\n        /* \"--CODEGEN--\":1006:1008   */\n      iszero\n      tag_101\n      jumpi\n        /* \"--CODEGEN--\":1054:1055   */\n      0x00\n        /* \"--CODEGEN--\":1051:1052   */\n      dup1\n        /* \"--CODEGEN--\":1044:1056   */\n      revert\n        /* \"--CODEGEN--\":1006:1008   */\n    tag_101:\n        /* \"--CODEGEN--\":1089:1090   */\n      0x00\n        /* \"--CODEGEN--\":1106:1159   */\n      tag_102\n        /* \"--CODEGEN--\":1151:1158   */\n      dup7\n        /* \"--CODEGEN--\":1142:1148   */\n      dup3\n        /* \"--CODEGEN--\":1131:1140   */\n      dup8\n        /* \"--CODEGEN--\":1127:1149   */\n      add\n        /* \"--CODEGEN--\":1106:1159   */\n      tag_85\n      jump\t// in\n    tag_102:\n        /* \"--CODEGEN--\":1096:1159   */\n      swap4\n      pop\n        /* \"--CODEGEN--\":1068:1165   */\n      pop\n        /* \"--CODEGEN--\":1196:1198   */\n      0x20\n        /* \"--CODEGEN--\":1214:1267   */\n      tag_103\n        /* \"--CODEGEN--\":1259:1266   */\n      dup7\n        /* \"--CODEGEN--\":1250:1256   */\n      dup3\n        /* \"--CODEGEN--\":1239:1248   */\n      dup8\n        /* \"--CODEGEN--\":1235:1257   */\n      add\n        /* \"--CODEGEN--\":1214:1267   */\n      tag_85\n      jump\t// in\n    tag_103:\n        /* \"--CODEGEN--\":1204:1267   */\n      swap3\n      pop\n        /* \"--CODEGEN--\":1175:1273   */\n      pop\n        /* \"--CODEGEN--\":1304:1306   */\n      0x40\n        /* \"--CODEGEN--\":1322:1375   */\n      tag_104\n        /* \"--CODEGEN--\":1367:1374   */\n      dup7\n        /* \"--CODEGEN--\":1358:1364   */\n      dup3\n        /* \"--CODEGEN--\":1347:1356   */\n      dup8\n        /* \"--CODEGEN--\":1343:1365   */\n      add\n        /* \"--CODEGEN--\":1322:1375   */\n      tag_89\n      jump\t// in\n    tag_104:\n        /* \"--CODEGEN--\":1312:1375   */\n      swap2\n      pop\n        /* \"--CODEGEN--\":1283:1381   */\n      pop\n        /* \"--CODEGEN--\":1000:1391   */\n      swap3\n      pop\n      swap3\n      pop\n      swap3\n      jump\t// out\n        /* \"--CODEGEN--\":1398:1764   */\n    tag_20:\n      0x00\n      dup1\n        /* \"--CODEGEN--\":1519:1521   */\n      0x40\n        /* \"--CODEGEN--\":1507:1516   */\n      dup4\n        /* \"--CODEGEN--\":1498:1505   */\n      dup6\n        /* \"--CODEGEN--\":1494:1517   */\n      sub\n        /* \"--CODEGEN--\":1490:1522   */\n      slt\n        /* \"--CODEGEN--\":1487:1489   */\n      iszero\n      tag_106\n      jumpi\n        /* \"--CODEGEN--\":1535:1536   */\n      0x00\n        /* \"--CODEGEN--\":1532:1533   */\n      dup1\n        /* \"--CODEGEN--\":1525:1537   */\n      revert\n        /* \"--CODEGEN--\":1487:1489   */\n    tag_106:\n        /* \"--CODEGEN--\":1570:1571   */\n      0x00\n        /* \"--CODEGEN--\":1587:1640   */\n      tag_107\n        /* \"--CODEGEN--\":1632:1639   */\n      dup6\n        /* \"--CODEGEN--\":1623:1629   */\n      dup3\n        /* \"--CODEGEN--\":1612:1621   */\n      dup7\n        /* \"--CODEGEN--\":1608:1630   */\n      add\n        /* \"--CODEGEN--\":1587:1640   */\n      tag_85\n      jump\t// in\n    tag_107:\n        /* \"--CODEGEN--\":1577:1640   */\n      swap3\n      pop\n        /* \"--CODEGEN--\":1549:1646   */\n      pop\n        /* \"--CODEGEN--\":1677:1679   */\n      0x20\n        /* \"--CODEGEN--\":1695:1748   */\n      tag_108\n        /* \"--CODEGEN--\":1740:1747   */\n      dup6\n        /* \"--CODEGEN--\":1731:1737   */\n      dup3\n        /* \"--CODEGEN--\":1720:1729   */\n      dup7\n        /* \"--CODEGEN--\":1716:1738   */\n      add\n        /* \"--CODEGEN--\":1695:1748   */\n      tag_89\n      jump\t// in\n    tag_108:\n        /* \"--CODEGEN--\":1685:1748   */\n      swap2\n      pop\n        /* \"--CODEGEN--\":1656:1754   */\n      pop\n        /* \"--CODEGEN--\":1481:1764   */\n      swap3\n      pop\n      swap3\n      swap1\n      pop\n      jump\t// out\n        /* \"--CODEGEN--\":1771:2012   */\n    tag_30:\n      0x00\n        /* \"--CODEGEN--\":1875:1877   */\n      0x20\n        /* \"--CODEGEN--\":1863:1872   */\n      dup3\n        /* \"--CODEGEN--\":1854:1861   */\n      dup5\n        /* \"--CODEGEN--\":1850:1873   */\n      sub\n        /* \"--CODEGEN--\":1846:1878   */\n      slt\n        /* \"--CODEGEN--\":1843:1845   */\n      iszero\n      tag_110\n      jumpi\n        /* \"--CODEGEN--\":1891:1892   */\n      0x00\n        /* \"--CODEGEN--\":1888:1889   */\n      dup1\n        /* \"--CODEGEN--\":1881:1893   */\n      revert\n        /* \"--CODEGEN--\":1843:1845   */\n    tag_110:\n        /* \"--CODEGEN--\":1926:1927   */\n      0x00\n        /* \"--CODEGEN--\":1943:1996   */\n      tag_111\n        /* \"--CODEGEN--\":1988:1995   */\n      dup5\n        /* \"--CODEGEN--\":1979:1985   */\n      dup3\n        /* \"--CODEGEN--\":1968:1977   */\n      dup6\n        /* \"--CODEGEN--\":1964:1986   */\n      add\n        /* \"--CODEGEN--\":1943:1996   */\n      tag_89\n      jump\t// in\n    tag_111:\n        /* \"--CODEGEN--\":1933:1996   */\n      swap2\n      pop\n        /* \"--CODEGEN--\":1905:2002   */\n      pop\n        /* \"--CODEGEN--\":1837:2012   */\n      swap3\n      swap2\n      pop\n      pop\n      jump\t// out\n        /* \"--CODEGEN--\":2019:2123   */\n    tag_112:\n        /* \"--CODEGEN--\":2096:2117   */\n      tag_114\n        /* \"--CODEGEN--\":2111:2116   */\n      dup2\n        /* \"--CODEGEN--\":2096:2117   */\n      tag_115\n      jump\t// in\n    tag_114:\n        /* \"--CODEGEN--\":2091:2094   */\n      dup3\n        /* \"--CODEGEN--\":2084:2118   */\n      mstore\n        /* \"--CODEGEN--\":2078:2123   */\n      pop\n      pop\n      jump\t// out\n        /* \"--CODEGEN--\":2130:2477   */\n    tag_116:\n      0x00\n        /* \"--CODEGEN--\":2242:2281   */\n      tag_118\n        /* \"--CODEGEN--\":2275:2280   */\n      dup3\n        /* \"--CODEGEN--\":2242:2281   */\n      tag_119\n      jump\t// in\n    tag_118:\n        /* \"--CODEGEN--\":2293:2364   */\n      tag_120\n        /* \"--CODEGEN--\":2357:2363   */\n      dup2\n        /* \"--CODEGEN--\":2352:2355   */\n      dup6\n        /* \"--CODEGEN--\":2293:2364   */\n      tag_121\n      jump\t// in\n    tag_120:\n        /* \"--CODEGEN--\":2286:2364   */\n      swap4\n      pop\n        /* \"--CODEGEN--\":2369:2421   */\n      tag_122\n        /* \"--CODEGEN--\":2414:2420   */\n      dup2\n        /* \"--CODEGEN--\":2409:2412   */\n      dup6\n        /* \"--CODEGEN--\":2402:2406   */\n      0x20\n        /* \"--CODEGEN--\":2395:2400   */\n      dup7\n        /* \"--CODEGEN--\":2391:2407   */\n      add\n        /* \"--CODEGEN--\":2369:2421   */\n      tag_123\n      jump\t// in\n    tag_122:\n        /* \"--CODEGEN--\":2442:2471   */\n      tag_124\n        /* \"--CODEGEN--\":2464:2470   */\n      dup2\n        /* \"--CODEGEN--\":2442:2471   */\n      tag_125\n      jump\t// in\n    tag_124:\n        /* \"--CODEGEN--\":2437:2440   */\n      dup5\n        /* \"--CODEGEN--\":2433:2472   */\n      add\n        /* \"--CODEGEN--\":2426:2472   */\n      swap2\n      pop\n        /* \"--CODEGEN--\":2222:2477   */\n      pop\n      swap3\n      swap2\n      pop\n      pop\n      jump\t// out\n        /* \"--CODEGEN--\":2484:2597   */\n    tag_126:\n        /* \"--CODEGEN--\":2567:2591   */\n      tag_128\n        /* \"--CODEGEN--\":2585:2590   */\n      dup2\n        /* \"--CODEGEN--\":2567:2591   */\n      tag_129\n      jump\t// in\n    tag_128:\n        /* \"--CODEGEN--\":2562:2565   */\n      dup3\n        /* \"--CODEGEN--\":2555:2592   */\n      mstore\n        /* \"--CODEGEN--\":2549:2597   */\n      pop\n      pop\n      jump\t// out\n        /* \"--CODEGEN--\":2604:2711   */\n    tag_130:\n        /* \"--CODEGEN--\":2683:2705   */\n      tag_132\n        /* \"--CODEGEN--\":2699:2704   */\n      dup2\n        /* \"--CODEGEN--\":2683:2705   */\n      tag_133\n      jump\t// in\n    tag_132:\n        /* \"--CODEGEN--\":2678:2681   */\n      dup3\n        /* \"--CODEGEN--\":2671:2706   */\n      mstore\n        /* \"--CODEGEN--\":2665:2711   */\n      pop\n      pop\n      jump\t// out\n        /* \"--CODEGEN--\":2718:2928   */\n    tag_23:\n      0x00\n        /* \"--CODEGEN--\":2839:2841   */\n      0x20\n        /* \"--CODEGEN--\":2828:2837   */\n      dup3\n        /* \"--CODEGEN--\":2824:2842   */\n      add\n        /* \"--CODEGEN--\":2816:2842   */\n      swap1\n      pop\n        /* \"--CODEGEN--\":2853:2918   */\n      tag_135\n        /* \"--CODEGEN--\":2915:2916   */\n      0x00\n        /* \"--CODEGEN--\":2904:2913   */\n      dup4\n        /* \"--CODEGEN--\":2900:2917   */\n      add\n        /* \"--CODEGEN--\":2891:2897   */\n      dup5\n        /* \"--CODEGEN--\":2853:2918   */\n      tag_112\n      jump\t// in\n    tag_135:\n        /* \"--CODEGEN--\":2810:2928   */\n      swap3\n      swap2\n      pop\n      pop\n      jump\t// out\n        /* \"--CODEGEN--\":2935:3245   */\n    tag_17:\n      0x00\n        /* \"--CODEGEN--\":3082:3084   */\n      0x20\n        /* \"--CODEGEN--\":3071:3080   */\n      dup3\n        /* \"--CODEGEN--\":3067:3085   */\n      add\n        /* \"--CODEGEN--\":3059:3085   */\n      swap1\n      pop\n        /* \"--CODEGEN--\":3132:3141   */\n      dup2\n        /* \"--CODEGEN--\":3126:3130   */\n      dup2\n        /* \"--CODEGEN--\":3122:3142   */\n      sub\n        /* \"--CODEGEN--\":3118:3119   */\n      0x00\n        /* \"--CODEGEN--\":3107:3116   */\n      dup4\n        /* \"--CODEGEN--\":3103:3120   */\n      add\n        /* \"--CODEGEN--\":3096:3143   */\n      mstore\n        /* \"--CODEGEN--\":3157:3235   */\n      tag_137\n        /* \"--CODEGEN--\":3230:3234   */\n      dup2\n        /* \"--CODEGEN--\":3221:3227   */\n      dup5\n        /* \"--CODEGEN--\":3157:3235   */\n      tag_116\n      jump\t// in\n    tag_137:\n        /* \"--CODEGEN--\":3149:3235   */\n      swap1\n      pop\n        /* \"--CODEGEN--\":3053:3245   */\n      swap3\n      swap2\n      pop\n      pop\n      jump\t// out\n        /* \"--CODEGEN--\":3252:3474   */\n    tag_27:\n      0x00\n        /* \"--CODEGEN--\":3379:3381   */\n      0x20\n        /* \"--CODEGEN--\":3368:3377   */\n      dup3\n        /* \"--CODEGEN--\":3364:3382   */\n      add\n        /* \"--CODEGEN--\":3356:3382   */\n      swap1\n      pop\n        /* \"--CODEGEN--\":3393:3464   */\n      tag_139\n        /* \"--CODEGEN--\":3461:3462   */\n      0x00\n        /* \"--CODEGEN--\":3450:3459   */\n      dup4\n        /* \"--CODEGEN--\":3446:3463   */\n      add\n        /* \"--CODEGEN--\":3437:3443   */\n      dup5\n        /* \"--CODEGEN--\":3393:3464   */\n      tag_126\n      jump\t// in\n    tag_139:\n        /* \"--CODEGEN--\":3350:3474   */\n      swap3\n      swap2\n      pop\n      pop\n      jump\t// out\n        /* \"--CODEGEN--\":3481:3695   */\n    tag_40:\n      0x00\n        /* \"--CODEGEN--\":3604:3606   */\n      0x20\n        /* \"--CODEGEN--\":3593:3602   */\n      dup3\n        /* \"--CODEGEN--\":3589:3607   */\n      add\n        /* \"--CODEGEN--\":3581:3607   */\n      swap1\n      pop\n        /* \"--CODEGEN--\":3618:3685   */\n      tag_141\n        /* \"--CODEGEN--\":3682:3683   */\n      0x00\n        /* \"--CODEGEN--\":3671:3680   */\n      dup4\n        /* \"--CODEGEN--\":3667:3684   */\n      add\n        /* \"--CODEGEN--\":3658:3664   */\n      dup5\n        /* \"--CODEGEN--\":3618:3685   */\n      tag_130\n      jump\t// in\n    tag_141:\n        /* \"--CODEGEN--\":3575:3695   */\n      swap3\n      swap2\n      pop\n      pop\n      jump\t// out\n        /* \"--CODEGEN--\":3702:3824   */\n    tag_119:\n      0x00\n        /* \"--CODEGEN--\":3796:3801   */\n      dup2\n        /* \"--CODEGEN--\":3790:3802   */\n      mload\n        /* \"--CODEGEN--\":3780:3802   */\n      swap1\n      pop\n        /* \"--CODEGEN--\":3761:3824   */\n      swap2\n      swap1\n      pop\n      jump\t// out\n        /* \"--CODEGEN--\":3832:3995   */\n    tag_121:\n      0x00\n        /* \"--CODEGEN--\":3947:3953   */\n      dup3\n        /* \"--CODEGEN--\":3942:3945   */\n      dup3\n        /* \"--CODEGEN--\":3935:3954   */\n      mstore\n        /* \"--CODEGEN--\":3984:3988   */\n      0x20\n        /* \"--CODEGEN--\":3979:3982   */\n      dup3\n        /* \"--CODEGEN--\":3975:3989   */\n      add\n        /* \"--CODEGEN--\":3960:3989   */\n      swap1\n      pop\n        /* \"--CODEGEN--\":3928:3995   */\n      swap3\n      swap2\n      pop\n      pop\n      jump\t// out\n        /* \"--CODEGEN--\":4003:4094   */\n    tag_144:\n      0x00\n        /* \"--CODEGEN--\":4065:4089   */\n      tag_146\n        /* \"--CODEGEN--\":4083:4088   */\n      dup3\n        /* \"--CODEGEN--\":4065:4089   */\n      tag_147\n      jump\t// in\n    tag_146:\n        /* \"--CODEGEN--\":4054:4089   */\n      swap1\n      pop\n        /* \"--CODEGEN--\":4048:4094   */\n      swap2\n      swap1\n      pop\n      jump\t// out\n        /* \"--CODEGEN--\":4101:4186   */\n    tag_115:\n      0x00\n        /* \"--CODEGEN--\":4174:4179   */\n      dup2\n        /* \"--CODEGEN--\":4167:4180   */\n      iszero\n        /* \"--CODEGEN--\":4160:4181   */\n      iszero\n        /* \"--CODEGEN--\":4149:4181   */\n      swap1\n      pop\n        /* \"--CODEGEN--\":4143:4186   */\n      swap2\n      swap1\n      pop\n      jump\t// out\n        /* \"--CODEGEN--\":4193:4314   */\n    tag_147:\n      0x00\n        /* \"--CODEGEN--\":4266:4308   */\n      0xffffffffffffffffffffffffffffffffffffffff\n        /* \"--CODEGEN--\":4259:4264   */\n      dup3\n        /* \"--CODEGEN--\":4255:4309   */\n      and\n        /* \"--CODEGEN--\":4244:4309   */\n      swap1\n      pop\n        /* \"--CODEGEN--\":4238:4314   */\n      swap2\n      swap1\n      pop\n      jump\t// out\n        /* \"--CODEGEN--\":4321:4393   */\n    tag_129:\n      0x00\n        /* \"--CODEGEN--\":4383:4388   */\n      dup2\n        /* \"--CODEGEN--\":4372:4388   */\n      swap1\n      pop\n        /* \"--CODEGEN--\":4366:4393   */\n      swap2\n      swap1\n      pop\n      jump\t// out\n        /* \"--CODEGEN--\":4400:4481   */\n    tag_133:\n      0x00\n        /* \"--CODEGEN--\":4471:4475   */\n      0xff\n        /* \"--CODEGEN--\":4464:4469   */\n      dup3\n        /* \"--CODEGEN--\":4460:4476   */\n      and\n        /* \"--CODEGEN--\":4449:4476   */\n      swap1\n      pop\n        /* \"--CODEGEN--\":4443:4481   */\n      swap2\n      swap1\n      pop\n      jump\t// out\n        /* \"--CODEGEN--\":4489:4757   */\n    tag_123:\n        /* \"--CODEGEN--\":4554:4555   */\n      0x00\n        /* \"--CODEGEN--\":4561:4662   */\n    tag_153:\n        /* \"--CODEGEN--\":4575:4581   */\n      dup4\n        /* \"--CODEGEN--\":4572:4573   */\n      dup2\n        /* \"--CODEGEN--\":4569:4582   */\n      lt\n        /* \"--CODEGEN--\":4561:4662   */\n      iszero\n      tag_155\n      jumpi\n        /* \"--CODEGEN--\":4651:4652   */\n      dup1\n        /* \"--CODEGEN--\":4646:4649   */\n      dup3\n        /* \"--CODEGEN--\":4642:4653   */\n      add\n        /* \"--CODEGEN--\":4636:4654   */\n      mload\n        /* \"--CODEGEN--\":4632:4633   */\n      dup2\n        /* \"--CODEGEN--\":4627:4630   */\n      dup5\n        /* \"--CODEGEN--\":4623:4634   */\n      add\n        /* \"--CODEGEN--\":4616:4655   */\n      mstore\n        /* \"--CODEGEN--\":4597:4599   */\n      0x20\n        /* \"--CODEGEN--\":4594:4595   */\n      dup2\n        /* \"--CODEGEN--\":4590:4600   */\n      add\n        /* \"--CODEGEN--\":4585:4600   */\n      swap1\n      pop\n        /* \"--CODEGEN--\":4561:4662   */\n      jump(tag_153)\n    tag_155:\n        /* \"--CODEGEN--\":4677:4683   */\n      dup4\n        /* \"--CODEGEN--\":4674:4675   */\n      dup2\n        /* \"--CODEGEN--\":4671:4684   */\n      gt\n        /* \"--CODEGEN--\":4668:4670   */\n      iszero\n      tag_156\n      jumpi\n        /* \"--CODEGEN--\":4742:4743   */\n      0x00\n        /* \"--CODEGEN--\":4733:4739   */\n      dup5\n        /* \"--CODEGEN--\":4728:4731   */\n      dup5\n        /* \"--CODEGEN--\":4724:4740   */\n      add\n        /* \"--CODEGEN--\":4717:4744   */\n      mstore\n        /* \"--CODEGEN--\":4668:4670   */\n    tag_156:\n        /* \"--CODEGEN--\":4538:4757   */\n      pop\n      pop\n      pop\n      pop\n      jump\t// out\n        /* \"--CODEGEN--\":4765:4862   */\n    tag_125:\n      0x00\n        /* \"--CODEGEN--\":4853:4855   */\n      0x1f\n        /* \"--CODEGEN--\":4849:4856   */\n      not\n        /* \"--CODEGEN--\":4844:4846   */\n      0x1f\n        /* \"--CODEGEN--\":4837:4842   */\n      dup4\n        /* \"--CODEGEN--\":4833:4847   */\n      add\n        /* \"--CODEGEN--\":4829:4857   */\n      and\n        /* \"--CODEGEN--\":4819:4857   */\n      swap1\n      pop\n        /* \"--CODEGEN--\":4813:4862   */\n      swap2\n      swap1\n      pop\n      jump\t// out\n        /* \"--CODEGEN--\":4870:4987   */\n    tag_88:\n        /* \"--CODEGEN--\":4939:4963   */\n      tag_159\n        /* \"--CODEGEN--\":4957:4962   */\n      dup2\n        /* \"--CODEGEN--\":4939:4963   */\n      tag_144\n      jump\t// in\n    tag_159:\n        /* \"--CODEGEN--\":4932:4937   */\n      dup2\n        /* \"--CODEGEN--\":4929:4964   */\n      eq\n        /* \"--CODEGEN--\":4919:4921   */\n      tag_160\n      jumpi\n        /* \"--CODEGEN--\":4978:4979   */\n      0x00\n        /* \"--CODEGEN--\":4975:4976   */\n      dup1\n        /* \"--CODEGEN--\":4968:4980   */\n      revert\n        /* \"--CODEGEN--\":4919:4921   */\n    tag_160:\n        /* \"--CODEGEN--\":4913:4987   */\n      pop\n      jump\t// out\n        /* \"--CODEGEN--\":4994:5111   */\n    tag_92:\n        /* \"--CODEGEN--\":5063:5087   */\n      tag_162\n        /* \"--CODEGEN--\":5081:5086   */\n      dup2\n        /* \"--CODEGEN--\":5063:5087   */\n      tag_129\n      jump\t// in\n    tag_162:\n        /* \"--CODEGEN--\":5056:5061   */\n      dup2\n        /* \"--CODEGEN--\":5053:5088   */\n      eq\n        /* \"--CODEGEN--\":5043:5045   */\n      tag_163\n      jumpi\n        /* \"--CODEGEN--\":5102:5103   */\n      0x00\n        /* \"--CODEGEN--\":5099:5100   */\n      dup1\n        /* \"--CODEGEN--\":5092:5104   */\n      revert\n        /* \"--CODEGEN--\":5043:5045   */\n    tag_163:\n        /* \"--CODEGEN--\":5037:5111   */\n      pop\n      jump\t// out\n\n    auxdata: 0xa26469706673582212205c8d22a7d431daa47e0c199ea0702790dc8b2aed80dc304690a5a1200878c23f64736f6c634300060c0033\n}\n",
				"bytecode": {
					"linkReferences": {},
					"object": "608060405234801561001057600080fd5b50604051610ecf380380610ecf83398181016040528101906100329190610097565b80600281905550806000803373ffffffffffffffffffffffffffffffffffffffff1673ffffffffffffffffffffffffffffffffffffffff16815260200190815260200160002081905550506100e1565b600081519050610091816100ca565b92915050565b6000602082840312156100a957600080fd5b60006100b784828501610082565b91505092915050565b6000819050919050565b6100d3816100c0565b81146100de57600080fd5b50565b610ddf806100f06000396000f3fe608060405234801561001057600080fd5b506004361061009e5760003560e01c8063313ce56711610066578063313ce5671461015b57806370a082311461017957806395d89b41146101a9578063a9059cbb146101c7578063dd62ed3e146101f75761009e565b806306fdde03146100a3578063095ea7b3146100c157806318160ddd146100f15780631d43cc981461010f57806323b872dd1461012b575b600080fd5b6100ab610227565b6040516100b89190610c6e565b60405180910390f35b6100db60048036038101906100d69190610b88565b610260565b6040516100e89190610c53565b60405180910390f35b6100f9610352565b6040516101069190610c90565b60405180910390f35b61012960048036038101906101249190610bc4565b61035c565b005b61014560048036038101906101409190610b39565b61040d565b6040516101529190610c53565b60405180910390f35b610163610788565b6040516101709190610cab565b60405180910390f35b610193600480360381019061018e9190610ad4565b61078d565b6040516101a09190610c90565b60405180910390f35b6101b16107d5565b6040516101be9190610c6e565b60405180910390f35b6101e160048036038101906101dc9190610b88565b61080e565b6040516101ee9190610c53565b60405180910390f35b610211600480360381019061020c9190610afd565b6109f0565b60405161021e9190610c90565b60405180910390f35b6040518060400160405280600981526020017f4755475549434f494e000000000000000000000000000000000000000000000081525081565b600081600160003373ffffffffffffffffffffffffffffffffffffffff1673ffffffffffffffffffffffffffffffffffffffff16815260200190815260200160002060008573ffffffffffffffffffffffffffffffffffffffff1673ffffffffffffffffffffffffffffffffffffffff168152602001908152602001600020819055508273ffffffffffffffffffffffffffffffffffffffff163373ffffffffffffffffffffffffffffffffffffffff167f8c5be1e5ebec7d5bd14f71427d1e84f3dd0314c0f7b2291e5b200ac8c7c3b925846040516103409190610c90565b60405180910390a36001905092915050565b6000600254905090565b61037181600254610a7790919063ffffffff16565b6002819055506103c8816000803373ffffffffffffffffffffffffffffffffffffffff1673ffffffffffffffffffffffffffffffffffffffff16815260200190815260200160002054610a7790919063ffffffff16565b6000803373ffffffffffffffffffffffffffffffffffffffff1673ffffffffffffffffffffffffffffffffffffffff1681526020019081526020016000208190555050565b6000816000808673ffffffffffffffffffffffffffffffffffffffff1673ffffffffffffffffffffffffffffffffffffffff16815260200190815260200160002054101561045a57600080fd5b81600160008673ffffffffffffffffffffffffffffffffffffffff1673ffffffffffffffffffffffffffffffffffffffff16815260200190815260200160002060003373ffffffffffffffffffffffffffffffffffffffff1673ffffffffffffffffffffffffffffffffffffffff1681526020019081526020016000205410156104e357600080fd5b610534826000808773ffffffffffffffffffffffffffffffffffffffff1673ffffffffffffffffffffffffffffffffffffffff16815260200190815260200160002054610a9390919063ffffffff16565b6000808673ffffffffffffffffffffffffffffffffffffffff1673ffffffffffffffffffffffffffffffffffffffff1681526020019081526020016000208190555061060582600160008773ffffffffffffffffffffffffffffffffffffffff1673ffffffffffffffffffffffffffffffffffffffff16815260200190815260200160002060003373ffffffffffffffffffffffffffffffffffffffff1673ffffffffffffffffffffffffffffffffffffffff16815260200190815260200160002054610a9390919063ffffffff16565b600160008673ffffffffffffffffffffffffffffffffffffffff1673ffffffffffffffffffffffffffffffffffffffff16815260200190815260200160002060003373ffffffffffffffffffffffffffffffffffffffff1673ffffffffffffffffffffffffffffffffffffffff168152602001908152602001600020819055506106d6826000808673ffffffffffffffffffffffffffffffffffffffff1673ffffffffffffffffffffffffffffffffffffffff16815260200190815260200160002054610a7790919063ffffffff16565b6000808573ffffffffffffffffffffffffffffffffffffffff1673ffffffffffffffffffffffffffffffffffffffff168152602001908152602001600020819055508273ffffffffffffffffffffffffffffffffffffffff168473ffffffffffffffffffffffffffffffffffffffff167fddf252ad1be2c89b69c2b068fc378daa952ba7f163c4a11628f55a4df523b3ef846040516107759190610c90565b60405180910390a3600190509392505050565b600281565b60008060008373ffffffffffffffffffffffffffffffffffffffff1673ffffffffffffffffffffffffffffffffffffffff168152602001908152602001600020549050919050565b6040518060400160405280600281526020017f474300000000000000000000000000000000000000000000000000000000000081525081565b6000816000803373ffffffffffffffffffffffffffffffffffffffff1673ffffffffffffffffffffffffffffffffffffffff16815260200190815260200160002054101561085b57600080fd5b6108ac826000803373ffffffffffffffffffffffffffffffffffffffff1673ffffffffffffffffffffffffffffffffffffffff16815260200190815260200160002054610a9390919063ffffffff16565b6000803373ffffffffffffffffffffffffffffffffffffffff1673ffffffffffffffffffffffffffffffffffffffff1681526020019081526020016000208190555061093f826000808673ffffffffffffffffffffffffffffffffffffffff1673ffffffffffffffffffffffffffffffffffffffff16815260200190815260200160002054610a7790919063ffffffff16565b6000808573ffffffffffffffffffffffffffffffffffffffff1673ffffffffffffffffffffffffffffffffffffffff168152602001908152602001600020819055508273ffffffffffffffffffffffffffffffffffffffff163373ffffffffffffffffffffffffffffffffffffffff167fddf252ad1be2c89b69c2b068fc378daa952ba7f163c4a11628f55a4df523b3ef846040516109de9190610c90565b60405180910390a36001905092915050565b6000600160008473ffffffffffffffffffffffffffffffffffffffff1673ffffffffffffffffffffffffffffffffffffffff16815260200190815260200160002060008373ffffffffffffffffffffffffffffffffffffffff1673ffffffffffffffffffffffffffffffffffffffff16815260200190815260200160002054905092915050565b600080828401905083811015610a8957fe5b8091505092915050565b600082821115610a9f57fe5b818303905092915050565b600081359050610ab981610d7b565b92915050565b600081359050610ace81610d92565b92915050565b600060208284031215610ae657600080fd5b6000610af484828501610aaa565b91505092915050565b60008060408385031215610b1057600080fd5b6000610b1e85828601610aaa565b9250506020610b2f85828601610aaa565b9150509250929050565b600080600060608486031215610b4e57600080fd5b6000610b5c86828701610aaa565b9350506020610b6d86828701610aaa565b9250506040610b7e86828701610abf565b9150509250925092565b60008060408385031215610b9b57600080fd5b6000610ba985828601610aaa565b9250506020610bba85828601610abf565b9150509250929050565b600060208284031215610bd657600080fd5b6000610be484828501610abf565b91505092915050565b610bf681610cf4565b82525050565b6000610c0782610cc6565b610c118185610cd1565b9350610c21818560208601610d37565b610c2a81610d6a565b840191505092915050565b610c3e81610d20565b82525050565b610c4d81610d2a565b82525050565b6000602082019050610c686000830184610bed565b92915050565b60006020820190508181036000830152610c888184610bfc565b905092915050565b6000602082019050610ca56000830184610c35565b92915050565b6000602082019050610cc06000830184610c44565b92915050565b600081519050919050565b600082825260208201905092915050565b6000610ced82610d00565b9050919050565b60008115159050919050565b600073ffffffffffffffffffffffffffffffffffffffff82169050919050565b6000819050919050565b600060ff82169050919050565b60005b83811015610d55578082015181840152602081019050610d3a565b83811115610d64576000848401525b50505050565b6000601f19601f8301169050919050565b610d8481610ce2565b8114610d8f57600080fd5b50565b610d9b81610d20565b8114610da657600080fd5b5056fea26469706673582212205c8d22a7d431daa47e0c199ea0702790dc8b2aed80dc304690a5a1200878c23f64736f6c634300060c0033",
					"opcodes": "PUSH1 0x80 PUSH1 0x40 MSTORE CALLVALUE DUP1 ISZERO PUSH2 0x10 JUMPI PUSH1 0x0 DUP1 REVERT JUMPDEST POP PUSH1 0x40 MLOAD PUSH2 0xECF CODESIZE SUB DUP1 PUSH2 0xECF DUP4 CODECOPY DUP2 DUP2 ADD PUSH1 0x40 MSTORE DUP2 ADD SWAP1 PUSH2 0x32 SWAP2 SWAP1 PUSH2 0x97 JUMP JUMPDEST DUP1 PUSH1 0x2 DUP2 SWAP1 SSTORE POP DUP1 PUSH1 0x0 DUP1 CALLER PUSH20 0xFFFFFFFFFFFFFFFFFFFFFFFFFFFFFFFFFFFFFFFF AND PUSH20 0xFFFFFFFFFFFFFFFFFFFFFFFFFFFFFFFFFFFFFFFF AND DUP2 MSTORE PUSH1 0x20 ADD SWAP1 DUP2 MSTORE PUSH1 0x20 ADD PUSH1 0x0 KECCAK256 DUP2 SWAP1 SSTORE POP POP PUSH2 0xE1 JUMP JUMPDEST PUSH1 0x0 DUP2 MLOAD SWAP1 POP PUSH2 0x91 DUP2 PUSH2 0xCA JUMP JUMPDEST SWAP3 SWAP2 POP POP JUMP JUMPDEST PUSH1 0x0 PUSH1 0x20 DUP3 DUP5 SUB SLT ISZERO PUSH2 0xA9 JUMPI PUSH1 0x0 DUP1 REVERT JUMPDEST PUSH1 0x0 PUSH2 0xB7 DUP5 DUP3 DUP6 ADD PUSH2 0x82 JUMP JUMPDEST SWAP2 POP POP SWAP3 SWAP2 POP POP JUMP JUMPDEST PUSH1 0x0 DUP2 SWAP1 POP SWAP2 SWAP1 POP JUMP JUMPDEST PUSH2 0xD3 DUP2 PUSH2 0xC0 JUMP JUMPDEST DUP2 EQ PUSH2 0xDE JUMPI PUSH1 0x0 DUP1 REVERT JUMPDEST POP JUMP JUMPDEST PUSH2 0xDDF DUP1 PUSH2 0xF0 PUSH1 0x0 CODECOPY PUSH1 0x0 RETURN INVALID PUSH1 0x80 PUSH1 0x40 MSTORE CALLVALUE DUP1 ISZERO PUSH2 0x10 JUMPI PUSH1 0x0 DUP1 REVERT JUMPDEST POP PUSH1 0x4 CALLDATASIZE LT PUSH2 0x9E JUMPI PUSH1 0x0 CALLDATALOAD PUSH1 0xE0 SHR DUP1 PUSH4 0x313CE567 GT PUSH2 0x66 JUMPI DUP1 PUSH4 0x313CE567 EQ PUSH2 0x15B JUMPI DUP1 PUSH4 0x70A08231 EQ PUSH2 0x179 JUMPI DUP1 PUSH4 0x95D89B41 EQ PUSH2 0x1A9 JUMPI DUP1 PUSH4 0xA9059CBB EQ PUSH2 0x1C7 JUMPI DUP1 PUSH4 0xDD62ED3E EQ PUSH2 0x1F7 JUMPI PUSH2 0x9E JUMP JUMPDEST DUP1 PUSH4 0x6FDDE03 EQ PUSH2 0xA3 JUMPI DUP1 PUSH4 0x95EA7B3 EQ PUSH2 0xC1 JUMPI DUP1 PUSH4 0x18160DDD EQ PUSH2 0xF1 JUMPI DUP1 PUSH4 0x1D43CC98 EQ PUSH2 0x10F JUMPI DUP1 PUSH4 0x23B872DD EQ PUSH2 0x12B JUMPI JUMPDEST PUSH1 0x0 DUP1 REVERT JUMPDEST PUSH2 0xAB PUSH2 0x227 JUMP JUMPDEST PUSH1 0x40 MLOAD PUSH2 0xB8 SWAP2 SWAP1 PUSH2 0xC6E JUMP JUMPDEST PUSH1 0x40 MLOAD DUP1 SWAP2 SUB SWAP1 RETURN JUMPDEST PUSH2 0xDB PUSH1 0x4 DUP1 CALLDATASIZE SUB DUP2 ADD SWAP1 PUSH2 0xD6 SWAP2 SWAP1 PUSH2 0xB88 JUMP JUMPDEST PUSH2 0x260 JUMP JUMPDEST PUSH1 0x40 MLOAD PUSH2 0xE8 SWAP2 SWAP1 PUSH2 0xC53 JUMP JUMPDEST PUSH1 0x40 MLOAD DUP1 SWAP2 SUB SWAP1 RETURN JUMPDEST PUSH2 0xF9 PUSH2 0x352 JUMP JUMPDEST PUSH1 0x40 MLOAD PUSH2 0x106 SWAP2 SWAP1 PUSH2 0xC90 JUMP JUMPDEST PUSH1 0x40 MLOAD DUP1 SWAP2 SUB SWAP1 RETURN JUMPDEST PUSH2 0x129 PUSH1 0x4 DUP1 CALLDATASIZE SUB DUP2 ADD SWAP1 PUSH2 0x124 SWAP2 SWAP1 PUSH2 0xBC4 JUMP JUMPDEST PUSH2 0x35C JUMP JUMPDEST STOP JUMPDEST PUSH2 0x145 PUSH1 0x4 DUP1 CALLDATASIZE SUB DUP2 ADD SWAP1 PUSH2 0x140 SWAP2 SWAP1 PUSH2 0xB39 JUMP JUMPDEST PUSH2 0x40D JUMP JUMPDEST PUSH1 0x40 MLOAD PUSH2 0x152 SWAP2 SWAP1 PUSH2 0xC53 JUMP JUMPDEST PUSH1 0x40 MLOAD DUP1 SWAP2 SUB SWAP1 RETURN JUMPDEST PUSH2 0x163 PUSH2 0x788 JUMP JUMPDEST PUSH1 0x40 MLOAD PUSH2 0x170 SWAP2 SWAP1 PUSH2 0xCAB JUMP JUMPDEST PUSH1 0x40 MLOAD DUP1 SWAP2 SUB SWAP1 RETURN JUMPDEST PUSH2 0x193 PUSH1 0x4 DUP1 CALLDATASIZE SUB DUP2 ADD SWAP1 PUSH2 0x18E SWAP2 SWAP1 PUSH2 0xAD4 JUMP JUMPDEST PUSH2 0x78D JUMP JUMPDEST PUSH1 0x40 MLOAD PUSH2 0x1A0 SWAP2 SWAP1 PUSH2 0xC90 JUMP JUMPDEST PUSH1 0x40 MLOAD DUP1 SWAP2 SUB SWAP1 RETURN JUMPDEST PUSH2 0x1B1 PUSH2 0x7D5 JUMP JUMPDEST PUSH1 0x40 MLOAD PUSH2 0x1BE SWAP2 SWAP1 PUSH2 0xC6E JUMP JUMPDEST PUSH1 0x40 MLOAD DUP1 SWAP2 SUB SWAP1 RETURN JUMPDEST PUSH2 0x1E1 PUSH1 0x4 DUP1 CALLDATASIZE SUB DUP2 ADD SWAP1 PUSH2 0x1DC SWAP2 SWAP1 PUSH2 0xB88 JUMP JUMPDEST PUSH2 0x80E JUMP JUMPDEST PUSH1 0x40 MLOAD PUSH2 0x1EE SWAP2 SWAP1 PUSH2 0xC53 JUMP JUMPDEST PUSH1 0x40 MLOAD DUP1 SWAP2 SUB SWAP1 RETURN JUMPDEST PUSH2 0x211 PUSH1 0x4 DUP1 CALLDATASIZE SUB DUP2 ADD SWAP1 PUSH2 0x20C SWAP2 SWAP1 PUSH2 0xAFD JUMP JUMPDEST PUSH2 0x9F0 JUMP JUMPDEST PUSH1 0x40 MLOAD PUSH2 0x21E SWAP2 SWAP1 PUSH2 0xC90 JUMP JUMPDEST PUSH1 0x40 MLOAD DUP1 SWAP2 SUB SWAP1 RETURN JUMPDEST PUSH1 0x40 MLOAD DUP1 PUSH1 0x40 ADD PUSH1 0x40 MSTORE DUP1 PUSH1 0x9 DUP2 MSTORE PUSH1 0x20 ADD PUSH32 0x4755475549434F494E0000000000000000000000000000000000000000000000 DUP2 MSTORE POP DUP2 JUMP JUMPDEST PUSH1 0x0 DUP2 PUSH1 0x1 PUSH1 0x0 CALLER PUSH20 0xFFFFFFFFFFFFFFFFFFFFFFFFFFFFFFFFFFFFFFFF AND PUSH20 0xFFFFFFFFFFFFFFFFFFFFFFFFFFFFFFFFFFFFFFFF AND DUP2 MSTORE PUSH1 0x20 ADD SWAP1 DUP2 MSTORE PUSH1 0x20 ADD PUSH1 0x0 KECCAK256 PUSH1 0x0 DUP6 PUSH20 0xFFFFFFFFFFFFFFFFFFFFFFFFFFFFFFFFFFFFFFFF AND PUSH20 0xFFFFFFFFFFFFFFFFFFFFFFFFFFFFFFFFFFFFFFFF AND DUP2 MSTORE PUSH1 0x20 ADD SWAP1 DUP2 MSTORE PUSH1 0x20 ADD PUSH1 0x0 KECCAK256 DUP2 SWAP1 SSTORE POP DUP3 PUSH20 0xFFFFFFFFFFFFFFFFFFFFFFFFFFFFFFFFFFFFFFFF AND CALLER PUSH20 0xFFFFFFFFFFFFFFFFFFFFFFFFFFFFFFFFFFFFFFFF AND PUSH32 0x8C5BE1E5EBEC7D5BD14F71427D1E84F3DD0314C0F7B2291E5B200AC8C7C3B925 DUP5 PUSH1 0x40 MLOAD PUSH2 0x340 SWAP2 SWAP1 PUSH2 0xC90 JUMP JUMPDEST PUSH1 0x40 MLOAD DUP1 SWAP2 SUB SWAP1 LOG3 PUSH1 0x1 SWAP1 POP SWAP3 SWAP2 POP POP JUMP JUMPDEST PUSH1 0x0 PUSH1 0x2 SLOAD SWAP1 POP SWAP1 JUMP JUMPDEST PUSH2 0x371 DUP2 PUSH1 0x2 SLOAD PUSH2 0xA77 SWAP1 SWAP2 SWAP1 PUSH4 0xFFFFFFFF AND JUMP JUMPDEST PUSH1 0x2 DUP2 SWAP1 SSTORE POP PUSH2 0x3C8 DUP2 PUSH1 0x0 DUP1 CALLER PUSH20 0xFFFFFFFFFFFFFFFFFFFFFFFFFFFFFFFFFFFFFFFF AND PUSH20 0xFFFFFFFFFFFFFFFFFFFFFFFFFFFFFFFFFFFFFFFF AND DUP2 MSTORE PUSH1 0x20 ADD SWAP1 DUP2 MSTORE PUSH1 0x20 ADD PUSH1 0x0 KECCAK256 SLOAD PUSH2 0xA77 SWAP1 SWAP2 SWAP1 PUSH4 0xFFFFFFFF AND JUMP JUMPDEST PUSH1 0x0 DUP1 CALLER PUSH20 0xFFFFFFFFFFFFFFFFFFFFFFFFFFFFFFFFFFFFFFFF AND PUSH20 0xFFFFFFFFFFFFFFFFFFFFFFFFFFFFFFFFFFFFFFFF AND DUP2 MSTORE PUSH1 0x20 ADD SWAP1 DUP2 MSTORE PUSH1 0x20 ADD PUSH1 0x0 KECCAK256 DUP2 SWAP1 SSTORE POP POP JUMP JUMPDEST PUSH1 0x0 DUP2 PUSH1 0x0 DUP1 DUP7 PUSH20 0xFFFFFFFFFFFFFFFFFFFFFFFFFFFFFFFFFFFFFFFF AND PUSH20 0xFFFFFFFFFFFFFFFFFFFFFFFFFFFFFFFFFFFFFFFF AND DUP2 MSTORE PUSH1 0x20 ADD SWAP1 DUP2 MSTORE PUSH1 0x20 ADD PUSH1 0x0 KECCAK256 SLOAD LT ISZERO PUSH2 0x45A JUMPI PUSH1 0x0 DUP1 REVERT JUMPDEST DUP2 PUSH1 0x1 PUSH1 0x0 DUP7 PUSH20 0xFFFFFFFFFFFFFFFFFFFFFFFFFFFFFFFFFFFFFFFF AND PUSH20 0xFFFFFFFFFFFFFFFFFFFFFFFFFFFFFFFFFFFFFFFF AND DUP2 MSTORE PUSH1 0x20 ADD SWAP1 DUP2 MSTORE PUSH1 0x20 ADD PUSH1 0x0 KECCAK256 PUSH1 0x0 CALLER PUSH20 0xFFFFFFFFFFFFFFFFFFFFFFFFFFFFFFFFFFFFFFFF AND PUSH20 0xFFFFFFFFFFFFFFFFFFFFFFFFFFFFFFFFFFFFFFFF AND DUP2 MSTORE PUSH1 0x20 ADD SWAP1 DUP2 MSTORE PUSH1 0x20 ADD PUSH1 0x0 KECCAK256 SLOAD LT ISZERO PUSH2 0x4E3 JUMPI PUSH1 0x0 DUP1 REVERT JUMPDEST PUSH2 0x534 DUP3 PUSH1 0x0 DUP1 DUP8 PUSH20 0xFFFFFFFFFFFFFFFFFFFFFFFFFFFFFFFFFFFFFFFF AND PUSH20 0xFFFFFFFFFFFFFFFFFFFFFFFFFFFFFFFFFFFFFFFF AND DUP2 MSTORE PUSH1 0x20 ADD SWAP1 DUP2 MSTORE PUSH1 0x20 ADD PUSH1 0x0 KECCAK256 SLOAD PUSH2 0xA93 SWAP1 SWAP2 SWAP1 PUSH4 0xFFFFFFFF AND JUMP JUMPDEST PUSH1 0x0 DUP1 DUP7 PUSH20 0xFFFFFFFFFFFFFFFFFFFFFFFFFFFFFFFFFFFFFFFF AND PUSH20 0xFFFFFFFFFFFFFFFFFFFFFFFFFFFFFFFFFFFFFFFF AND DUP2 MSTORE PUSH1 0x20 ADD SWAP1 DUP2 MSTORE PUSH1 0x20 ADD PUSH1 0x0 KECCAK256 DUP2 SWAP1 SSTORE POP PUSH2 0x605 DUP3 PUSH1 0x1 PUSH1 0x0 DUP8 PUSH20 0xFFFFFFFFFFFFFFFFFFFFFFFFFFFFFFFFFFFFFFFF AND PUSH20 0xFFFFFFFFFFFFFFFFFFFFFFFFFFFFFFFFFFFFFFFF AND DUP2 MSTORE PUSH1 0x20 ADD SWAP1 DUP2 MSTORE PUSH1 0x20 ADD PUSH1 0x0 KECCAK256 PUSH1 0x0 CALLER PUSH20 0xFFFFFFFFFFFFFFFFFFFFFFFFFFFFFFFFFFFFFFFF AND PUSH20 0xFFFFFFFFFFFFFFFFFFFFFFFFFFFFFFFFFFFFFFFF AND DUP2 MSTORE PUSH1 0x20 ADD SWAP1 DUP2 MSTORE PUSH1 0x20 ADD PUSH1 0x0 KECCAK256 SLOAD PUSH2 0xA93 SWAP1 SWAP2 SWAP1 PUSH4 0xFFFFFFFF AND JUMP JUMPDEST PUSH1 0x1 PUSH1 0x0 DUP7 PUSH20 0xFFFFFFFFFFFFFFFFFFFFFFFFFFFFFFFFFFFFFFFF AND PUSH20 0xFFFFFFFFFFFFFFFFFFFFFFFFFFFFFFFFFFFFFFFF AND DUP2 MSTORE PUSH1 0x20 ADD SWAP1 DUP2 MSTORE PUSH1 0x20 ADD PUSH1 0x0 KECCAK256 PUSH1 0x0 CALLER PUSH20 0xFFFFFFFFFFFFFFFFFFFFFFFFFFFFFFFFFFFFFFFF AND PUSH20 0xFFFFFFFFFFFFFFFFFFFFFFFFFFFFFFFFFFFFFFFF AND DUP2 MSTORE PUSH1 0x20 ADD SWAP1 DUP2 MSTORE PUSH1 0x20 ADD PUSH1 0x0 KECCAK256 DUP2 SWAP1 SSTORE POP PUSH2 0x6D6 DUP3 PUSH1 0x0 DUP1 DUP7 PUSH20 0xFFFFFFFFFFFFFFFFFFFFFFFFFFFFFFFFFFFFFFFF AND PUSH20 0xFFFFFFFFFFFFFFFFFFFFFFFFFFFFFFFFFFFFFFFF AND DUP2 MSTORE PUSH1 0x20 ADD SWAP1 DUP2 MSTORE PUSH1 0x20 ADD PUSH1 0x0 KECCAK256 SLOAD PUSH2 0xA77 SWAP1 SWAP2 SWAP1 PUSH4 0xFFFFFFFF AND JUMP JUMPDEST PUSH1 0x0 DUP1 DUP6 PUSH20 0xFFFFFFFFFFFFFFFFFFFFFFFFFFFFFFFFFFFFFFFF AND PUSH20 0xFFFFFFFFFFFFFFFFFFFFFFFFFFFFFFFFFFFFFFFF AND DUP2 MSTORE PUSH1 0x20 ADD SWAP1 DUP2 MSTORE PUSH1 0x20 ADD PUSH1 0x0 KECCAK256 DUP2 SWAP1 SSTORE POP DUP3 PUSH20 0xFFFFFFFFFFFFFFFFFFFFFFFFFFFFFFFFFFFFFFFF AND DUP5 PUSH20 0xFFFFFFFFFFFFFFFFFFFFFFFFFFFFFFFFFFFFFFFF AND PUSH32 0xDDF252AD1BE2C89B69C2B068FC378DAA952BA7F163C4A11628F55A4DF523B3EF DUP5 PUSH1 0x40 MLOAD PUSH2 0x775 SWAP2 SWAP1 PUSH2 0xC90 JUMP JUMPDEST PUSH1 0x40 MLOAD DUP1 SWAP2 SUB SWAP1 LOG3 PUSH1 0x1 SWAP1 POP SWAP4 SWAP3 POP POP POP JUMP JUMPDEST PUSH1 0x2 DUP2 JUMP JUMPDEST PUSH1 0x0 DUP1 PUSH1 0x0 DUP4 PUSH20 0xFFFFFFFFFFFFFFFFFFFFFFFFFFFFFFFFFFFFFFFF AND PUSH20 0xFFFFFFFFFFFFFFFFFFFFFFFFFFFFFFFFFFFFFFFF AND DUP2 MSTORE PUSH1 0x20 ADD SWAP1 DUP2 MSTORE PUSH1 0x20 ADD PUSH1 0x0 KECCAK256 SLOAD SWAP1 POP SWAP2 SWAP1 POP JUMP JUMPDEST PUSH1 0x40 MLOAD DUP1 PUSH1 0x40 ADD PUSH1 0x40 MSTORE DUP1 PUSH1 0x2 DUP2 MSTORE PUSH1 0x20 ADD PUSH32 0x4743000000000000000000000000000000000000000000000000000000000000 DUP2 MSTORE POP DUP2 JUMP JUMPDEST PUSH1 0x0 DUP2 PUSH1 0x0 DUP1 CALLER PUSH20 0xFFFFFFFFFFFFFFFFFFFFFFFFFFFFFFFFFFFFFFFF AND PUSH20 0xFFFFFFFFFFFFFFFFFFFFFFFFFFFFFFFFFFFFFFFF AND DUP2 MSTORE PUSH1 0x20 ADD SWAP1 DUP2 MSTORE PUSH1 0x20 ADD PUSH1 0x0 KECCAK256 SLOAD LT ISZERO PUSH2 0x85B JUMPI PUSH1 0x0 DUP1 REVERT JUMPDEST PUSH2 0x8AC DUP3 PUSH1 0x0 DUP1 CALLER PUSH20 0xFFFFFFFFFFFFFFFFFFFFFFFFFFFFFFFFFFFFFFFF AND PUSH20 0xFFFFFFFFFFFFFFFFFFFFFFFFFFFFFFFFFFFFFFFF AND DUP2 MSTORE PUSH1 0x20 ADD SWAP1 DUP2 MSTORE PUSH1 0x20 ADD PUSH1 0x0 KECCAK256 SLOAD PUSH2 0xA93 SWAP1 SWAP2 SWAP1 PUSH4 0xFFFFFFFF AND JUMP JUMPDEST PUSH1 0x0 DUP1 CALLER PUSH20 0xFFFFFFFFFFFFFFFFFFFFFFFFFFFFFFFFFFFFFFFF AND PUSH20 0xFFFFFFFFFFFFFFFFFFFFFFFFFFFFFFFFFFFFFFFF AND DUP2 MSTORE PUSH1 0x20 ADD SWAP1 DUP2 MSTORE PUSH1 0x20 ADD PUSH1 0x0 KECCAK256 DUP2 SWAP1 SSTORE POP PUSH2 0x93F DUP3 PUSH1 0x0 DUP1 DUP7 PUSH20 0xFFFFFFFFFFFFFFFFFFFFFFFFFFFFFFFFFFFFFFFF AND PUSH20 0xFFFFFFFFFFFFFFFFFFFFFFFFFFFFFFFFFFFFFFFF AND DUP2 MSTORE PUSH1 0x20 ADD SWAP1 DUP2 MSTORE PUSH1 0x20 ADD PUSH1 0x0 KECCAK256 SLOAD PUSH2 0xA77 SWAP1 SWAP2 SWAP1 PUSH4 0xFFFFFFFF AND JUMP JUMPDEST PUSH1 0x0 DUP1 DUP6 PUSH20 0xFFFFFFFFFFFFFFFFFFFFFFFFFFFFFFFFFFFFFFFF AND PUSH20 0xFFFFFFFFFFFFFFFFFFFFFFFFFFFFFFFFFFFFFFFF AND DUP2 MSTORE PUSH1 0x20 ADD SWAP1 DUP2 MSTORE PUSH1 0x20 ADD PUSH1 0x0 KECCAK256 DUP2 SWAP1 SSTORE POP DUP3 PUSH20 0xFFFFFFFFFFFFFFFFFFFFFFFFFFFFFFFFFFFFFFFF AND CALLER PUSH20 0xFFFFFFFFFFFFFFFFFFFFFFFFFFFFFFFFFFFFFFFF AND PUSH32 0xDDF252AD1BE2C89B69C2B068FC378DAA952BA7F163C4A11628F55A4DF523B3EF DUP5 PUSH1 0x40 MLOAD PUSH2 0x9DE SWAP2 SWAP1 PUSH2 0xC90 JUMP JUMPDEST PUSH1 0x40 MLOAD DUP1 SWAP2 SUB SWAP1 LOG3 PUSH1 0x1 SWAP1 POP SWAP3 SWAP2 POP POP JUMP JUMPDEST PUSH1 0x0 PUSH1 0x1 PUSH1 0x0 DUP5 PUSH20 0xFFFFFFFFFFFFFFFFFFFFFFFFFFFFFFFFFFFFFFFF AND PUSH20 0xFFFFFFFFFFFFFFFFFFFFFFFFFFFFFFFFFFFFFFFF AND DUP2 MSTORE PUSH1 0x20 ADD SWAP1 DUP2 MSTORE PUSH1 0x20 ADD PUSH1 0x0 KECCAK256 PUSH1 0x0 DUP4 PUSH20 0xFFFFFFFFFFFFFFFFFFFFFFFFFFFFFFFFFFFFFFFF AND PUSH20 0xFFFFFFFFFFFFFFFFFFFFFFFFFFFFFFFFFFFFFFFF AND DUP2 MSTORE PUSH1 0x20 ADD SWAP1 DUP2 MSTORE PUSH1 0x20 ADD PUSH1 0x0 KECCAK256 SLOAD SWAP1 POP SWAP3 SWAP2 POP POP JUMP JUMPDEST PUSH1 0x0 DUP1 DUP3 DUP5 ADD SWAP1 POP DUP4 DUP2 LT ISZERO PUSH2 0xA89 JUMPI INVALID JUMPDEST DUP1 SWAP2 POP POP SWAP3 SWAP2 POP POP JUMP JUMPDEST PUSH1 0x0 DUP3 DUP3 GT ISZERO PUSH2 0xA9F JUMPI INVALID JUMPDEST DUP2 DUP4 SUB SWAP1 POP SWAP3 SWAP2 POP POP JUMP JUMPDEST PUSH1 0x0 DUP2 CALLDATALOAD SWAP1 POP PUSH2 0xAB9 DUP2 PUSH2 0xD7B JUMP JUMPDEST SWAP3 SWAP2 POP POP JUMP JUMPDEST PUSH1 0x0 DUP2 CALLDATALOAD SWAP1 POP PUSH2 0xACE DUP2 PUSH2 0xD92 JUMP JUMPDEST SWAP3 SWAP2 POP POP JUMP JUMPDEST PUSH1 0x0 PUSH1 0x20 DUP3 DUP5 SUB SLT ISZERO PUSH2 0xAE6 JUMPI PUSH1 0x0 DUP1 REVERT JUMPDEST PUSH1 0x0 PUSH2 0xAF4 DUP5 DUP3 DUP6 ADD PUSH2 0xAAA JUMP JUMPDEST SWAP2 POP POP SWAP3 SWAP2 POP POP JUMP JUMPDEST PUSH1 0x0 DUP1 PUSH1 0x40 DUP4 DUP6 SUB SLT ISZERO PUSH2 0xB10 JUMPI PUSH1 0x0 DUP1 REVERT JUMPDEST PUSH1 0x0 PUSH2 0xB1E DUP6 DUP3 DUP7 ADD PUSH2 0xAAA JUMP JUMPDEST SWAP3 POP POP PUSH1 0x20 PUSH2 0xB2F DUP6 DUP3 DUP7 ADD PUSH2 0xAAA JUMP JUMPDEST SWAP2 POP POP SWAP3 POP SWAP3 SWAP1 POP JUMP JUMPDEST PUSH1 0x0 DUP1 PUSH1 0x0 PUSH1 0x60 DUP5 DUP7 SUB SLT ISZERO PUSH2 0xB4E JUMPI PUSH1 0x0 DUP1 REVERT JUMPDEST PUSH1 0x0 PUSH2 0xB5C DUP7 DUP3 DUP8 ADD PUSH2 0xAAA JUMP JUMPDEST SWAP4 POP POP PUSH1 0x20 PUSH2 0xB6D DUP7 DUP3 DUP8 ADD PUSH2 0xAAA JUMP JUMPDEST SWAP3 POP POP PUSH1 0x40 PUSH2 0xB7E DUP7 DUP3 DUP8 ADD PUSH2 0xABF JUMP JUMPDEST SWAP2 POP POP SWAP3 POP SWAP3 POP SWAP3 JUMP JUMPDEST PUSH1 0x0 DUP1 PUSH1 0x40 DUP4 DUP6 SUB SLT ISZERO PUSH2 0xB9B JUMPI PUSH1 0x0 DUP1 REVERT JUMPDEST PUSH1 0x0 PUSH2 0xBA9 DUP6 DUP3 DUP7 ADD PUSH2 0xAAA JUMP JUMPDEST SWAP3 POP POP PUSH1 0x20 PUSH2 0xBBA DUP6 DUP3 DUP7 ADD PUSH2 0xABF JUMP JUMPDEST SWAP2 POP POP SWAP3 POP SWAP3 SWAP1 POP JUMP JUMPDEST PUSH1 0x0 PUSH1 0x20 DUP3 DUP5 SUB SLT ISZERO PUSH2 0xBD6 JUMPI PUSH1 0x0 DUP1 REVERT JUMPDEST PUSH1 0x0 PUSH2 0xBE4 DUP5 DUP3 DUP6 ADD PUSH2 0xABF JUMP JUMPDEST SWAP2 POP POP SWAP3 SWAP2 POP POP JUMP JUMPDEST PUSH2 0xBF6 DUP2 PUSH2 0xCF4 JUMP JUMPDEST DUP3 MSTORE POP POP JUMP JUMPDEST PUSH1 0x0 PUSH2 0xC07 DUP3 PUSH2 0xCC6 JUMP JUMPDEST PUSH2 0xC11 DUP2 DUP6 PUSH2 0xCD1 JUMP JUMPDEST SWAP4 POP PUSH2 0xC21 DUP2 DUP6 PUSH1 0x20 DUP7 ADD PUSH2 0xD37 JUMP JUMPDEST PUSH2 0xC2A DUP2 PUSH2 0xD6A JUMP JUMPDEST DUP5 ADD SWAP2 POP POP SWAP3 SWAP2 POP POP JUMP JUMPDEST PUSH2 0xC3E DUP2 PUSH2 0xD20 JUMP JUMPDEST DUP3 MSTORE POP POP JUMP JUMPDEST PUSH2 0xC4D DUP2 PUSH2 0xD2A JUMP JUMPDEST DUP3 MSTORE POP POP JUMP JUMPDEST PUSH1 0x0 PUSH1 0x20 DUP3 ADD SWAP1 POP PUSH2 0xC68 PUSH1 0x0 DUP4 ADD DUP5 PUSH2 0xBED JUMP JUMPDEST SWAP3 SWAP2 POP POP JUMP JUMPDEST PUSH1 0x0 PUSH1 0x20 DUP3 ADD SWAP1 POP DUP2 DUP2 SUB PUSH1 0x0 DUP4 ADD MSTORE PUSH2 0xC88 DUP2 DUP5 PUSH2 0xBFC JUMP JUMPDEST SWAP1 POP SWAP3 SWAP2 POP POP JUMP JUMPDEST PUSH1 0x0 PUSH1 0x20 DUP3 ADD SWAP1 POP PUSH2 0xCA5 PUSH1 0x0 DUP4 ADD DUP5 PUSH2 0xC35 JUMP JUMPDEST SWAP3 SWAP2 POP POP JUMP JUMPDEST PUSH1 0x0 PUSH1 0x20 DUP3 ADD SWAP1 POP PUSH2 0xCC0 PUSH1 0x0 DUP4 ADD DUP5 PUSH2 0xC44 JUMP JUMPDEST SWAP3 SWAP2 POP POP JUMP JUMPDEST PUSH1 0x0 DUP2 MLOAD SWAP1 POP SWAP2 SWAP1 POP JUMP JUMPDEST PUSH1 0x0 DUP3 DUP3 MSTORE PUSH1 0x20 DUP3 ADD SWAP1 POP SWAP3 SWAP2 POP POP JUMP JUMPDEST PUSH1 0x0 PUSH2 0xCED DUP3 PUSH2 0xD00 JUMP JUMPDEST SWAP1 POP SWAP2 SWAP1 POP JUMP JUMPDEST PUSH1 0x0 DUP2 ISZERO ISZERO SWAP1 POP SWAP2 SWAP1 POP JUMP JUMPDEST PUSH1 0x0 PUSH20 0xFFFFFFFFFFFFFFFFFFFFFFFFFFFFFFFFFFFFFFFF DUP3 AND SWAP1 POP SWAP2 SWAP1 POP JUMP JUMPDEST PUSH1 0x0 DUP2 SWAP1 POP SWAP2 SWAP1 POP JUMP JUMPDEST PUSH1 0x0 PUSH1 0xFF DUP3 AND SWAP1 POP SWAP2 SWAP1 POP JUMP JUMPDEST PUSH1 0x0 JUMPDEST DUP4 DUP2 LT ISZERO PUSH2 0xD55 JUMPI DUP1 DUP3 ADD MLOAD DUP2 DUP5 ADD MSTORE PUSH1 0x20 DUP2 ADD SWAP1 POP PUSH2 0xD3A JUMP JUMPDEST DUP4 DUP2 GT ISZERO PUSH2 0xD64 JUMPI PUSH1 0x0 DUP5 DUP5 ADD MSTORE JUMPDEST POP POP POP POP JUMP JUMPDEST PUSH1 0x0 PUSH1 0x1F NOT PUSH1 0x1F DUP4 ADD AND SWAP1 POP SWAP2 SWAP1 POP JUMP JUMPDEST PUSH2 0xD84 DUP2 PUSH2 0xCE2 JUMP JUMPDEST DUP2 EQ PUSH2 0xD8F JUMPI PUSH1 0x0 DUP1 REVERT JUMPDEST POP JUMP JUMPDEST PUSH2 0xD9B DUP2 PUSH2 0xD20 JUMP JUMPDEST DUP2 EQ PUSH2 0xDA6 JUMPI PUSH1 0x0 DUP1 REVERT JUMPDEST POP JUMP INVALID LOG2 PUSH5 0x6970667358 0x22 SLT KECCAK256 0x5C DUP14 0x22 0xA7 0xD4 BALANCE 0xDA LOG4 PUSH31 0xC199EA0702790DC8B2AED80DC304690A5A1200878C23F64736F6C63430006 0xC STOP CALLER "
				},
				"gasEstimates": {
					"creation": {
						"codeDepositCost": "710200",
						"executionCost": "infinite",
						"totalCost": "infinite"
					},
					"external": {
						"allowance(address,address)": "infinite",
						"approve(address,uint256)": "infinite",
						"balanceOf(address)": "1563",
						"decimals()": "335",
						"increaseTotalSupply(uint256)": "infinite",
						"name()": "infinite",
						"symbol()": "infinite",
						"totalSupply()": "1182",
						"transfer(address,uint256)": "infinite",
						"transferFrom(address,address,uint256)": "infinite"
					}
				},
				"methodIdentifiers": {
					"allowance(address,address)": "dd62ed3e",
					"approve(address,uint256)": "095ea7b3",
					"balanceOf(address)": "70a08231",
					"decimals()": "313ce567",
					"increaseTotalSupply(uint256)": "1d43cc98",
					"name()": "06fdde03",
					"symbol()": "95d89b41",
					"totalSupply()": "18160ddd",
					"transfer(address,uint256)": "a9059cbb",
					"transferFrom(address,address,uint256)": "23b872dd"
				}
			},
			"storageLayout": {
				"storage": [
					{
						"astId": 85,
						"contract": "DISNEY/ERC20.sol:ERC20Basic",
						"label": "balances",
						"offset": 0,
						"slot": "0",
						"type": "t_mapping(t_address,t_uint256)"
					},
					{
						"astId": 91,
						"contract": "DISNEY/ERC20.sol:ERC20Basic",
						"label": "allowed",
						"offset": 0,
						"slot": "1",
						"type": "t_mapping(t_address,t_mapping(t_address,t_uint256))"
					},
					{
						"astId": 93,
						"contract": "DISNEY/ERC20.sol:ERC20Basic",
						"label": "_totalSupply",
						"offset": 0,
						"slot": "2",
						"type": "t_uint256"
					}
				],
				"types": {
					"t_address": {
						"encoding": "inplace",
						"label": "address",
						"numberOfBytes": "20"
					},
					"t_mapping(t_address,t_mapping(t_address,t_uint256))": {
						"encoding": "mapping",
						"key": "t_address",
						"label": "mapping(address => mapping(address => uint256))",
						"numberOfBytes": "32",
						"value": "t_mapping(t_address,t_uint256)"
					},
					"t_mapping(t_address,t_uint256)": {
						"encoding": "mapping",
						"key": "t_address",
						"label": "mapping(address => uint256)",
						"numberOfBytes": "32",
						"value": "t_uint256"
					},
					"t_uint256": {
						"encoding": "inplace",
						"label": "uint256",
						"numberOfBytes": "32"
					}
				}
			},
			"userdoc": {
				"kind": "user",
				"methods": {},
				"version": 1
			}
		}
	}
}