{
	"Factory/factory.sol": {
		"SmartContract1": {
			"abi": [
				{
					"inputs": [],
					"name": "Factory",
					"outputs": [],
					"stateMutability": "nonpayable",
					"type": "function"
				},
				{
					"inputs": [
						{
							"internalType": "address",
							"name": "",
							"type": "address"
						}
					],
					"name": "MiContratoPersonal",
					"outputs": [
						{
							"internalType": "address",
							"name": "",
							"type": "address"
						}
					],
					"stateMutability": "view",
					"type": "function"
				}
			],
			"devdoc": {
				"kind": "dev",
				"methods": {},
				"version": 1
			},
			"evm": {
				"assembly": "    /* \"Factory/factory.sol\":109:458  contract SmartContract1 {\r... */\n  mstore(0x40, 0x80)\n  callvalue\n  dup1\n  iszero\n  tag_1\n  jumpi\n  0x00\n  dup1\n  revert\ntag_1:\n  pop\n  dataSize(sub_0)\n  dup1\n  dataOffset(sub_0)\n  0x00\n  codecopy\n  0x00\n  return\nstop\n\nsub_0: assembly {\n        /* \"Factory/factory.sol\":109:458  contract SmartContract1 {\r... */\n      mstore(0x40, 0x80)\n      callvalue\n      dup1\n      iszero\n      tag_1\n      jumpi\n      0x00\n      dup1\n      revert\n    tag_1:\n      pop\n      jumpi(tag_2, lt(calldatasize, 0x04))\n      shr(0xe0, calldataload(0x00))\n      dup1\n      0x1b03b2c9\n      eq\n      tag_3\n      jumpi\n      dup1\n      0xc83dd231\n      eq\n      tag_4\n      jumpi\n    tag_2:\n      0x00\n      dup1\n      revert\n        /* \"Factory/factory.sol\":199:253  mapping (address => address) public MiContratoPersonal */\n    tag_3:\n      tag_5\n      0x04\n      dup1\n      calldatasize\n      sub\n      dup2\n      add\n      swap1\n      tag_6\n      swap2\n      swap1\n      tag_7\n      jump\t// in\n    tag_6:\n      tag_8\n      jump\t// in\n    tag_5:\n      mload(0x40)\n      tag_9\n      swap2\n      swap1\n      tag_10\n      jump\t// in\n    tag_9:\n      mload(0x40)\n      dup1\n      swap2\n      sub\n      swap1\n      return\n        /* \"Factory/factory.sol\":266:455  function Factory() public {\r... */\n    tag_4:\n      tag_11\n      tag_12\n      jump\t// in\n    tag_11:\n      stop\n        /* \"Factory/factory.sol\":199:253  mapping (address => address) public MiContratoPersonal */\n    tag_8:\n      mstore(0x20, 0x00)\n      dup1\n      0x00\n      mstore\n      keccak256(0x00, 0x40)\n      0x00\n      swap2\n      pop\n      sload\n      swap1\n      0x0100\n      exp\n      swap1\n      div\n      0xffffffffffffffffffffffffffffffffffffffff\n      and\n      dup2\n      jump\t// out\n        /* \"Factory/factory.sol\":266:455  function Factory() public {\r... */\n    tag_12:\n        /* \"Factory/factory.sol\":303:335  address direccion_nuevo_contrato */\n      0x00\n        /* \"Factory/factory.sol\":366:376  msg.sender */\n      caller\n        /* \"Factory/factory.sol\":347:377  new SmartContract2(msg.sender) */\n      mload(0x40)\n      tag_14\n      swap1\n      tag_15\n      jump\t// in\n    tag_14:\n      tag_16\n      swap2\n      swap1\n      tag_17\n      jump\t// in\n    tag_16:\n      mload(0x40)\n      dup1\n      swap2\n      sub\n      swap1\n      0x00\n      create\n      dup1\n      iszero\n      dup1\n      iszero\n      tag_18\n      jumpi\n      returndatasize\n      0x00\n      dup1\n      returndatacopy\n      revert(0x00, returndatasize)\n    tag_18:\n      pop\n        /* \"Factory/factory.sol\":303:378  address direccion_nuevo_contrato = address (new SmartContract2(msg.sender)) */\n      swap1\n      pop\n        /* \"Factory/factory.sol\":423:447  direccion_nuevo_contrato */\n      dup1\n        /* \"Factory/factory.sol\":390:408  MiContratoPersonal */\n      0x00\n        /* \"Factory/factory.sol\":390:420  MiContratoPersonal[msg.sender] */\n      dup1\n        /* \"Factory/factory.sol\":409:419  msg.sender */\n      caller\n        /* \"Factory/factory.sol\":390:420  MiContratoPersonal[msg.sender] */\n      0xffffffffffffffffffffffffffffffffffffffff\n      and\n      0xffffffffffffffffffffffffffffffffffffffff\n      and\n      dup2\n      mstore\n      0x20\n      add\n      swap1\n      dup2\n      mstore\n      0x20\n      add\n      0x00\n      keccak256\n      0x00\n        /* \"Factory/factory.sol\":390:447  MiContratoPersonal[msg.sender] = direccion_nuevo_contrato */\n      0x0100\n      exp\n      dup2\n      sload\n      dup2\n      0xffffffffffffffffffffffffffffffffffffffff\n      mul\n      not\n      and\n      swap1\n      dup4\n      0xffffffffffffffffffffffffffffffffffffffff\n      and\n      mul\n      or\n      swap1\n      sstore\n      pop\n        /* \"Factory/factory.sol\":266:455  function Factory() public {\r... */\n      pop\n      jump\t// out\n    tag_15:\n      dataSize(sub_0)\n      dup1\n      dataOffset(sub_0)\n      dup4\n      codecopy\n      add\n      swap1\n      jump\t// out\n        /* \"--CODEGEN--\":5:135   */\n    tag_20:\n      0x00\n        /* \"--CODEGEN--\":85:91   */\n      dup2\n        /* \"--CODEGEN--\":72:92   */\n      calldataload\n        /* \"--CODEGEN--\":63:92   */\n      swap1\n      pop\n        /* \"--CODEGEN--\":97:130   */\n      tag_22\n        /* \"--CODEGEN--\":124:129   */\n      dup2\n        /* \"--CODEGEN--\":97:130   */\n      tag_23\n      jump\t// in\n    tag_22:\n        /* \"--CODEGEN--\":57:135   */\n      swap3\n      swap2\n      pop\n      pop\n      jump\t// out\n        /* \"--CODEGEN--\":142:383   */\n    tag_7:\n      0x00\n        /* \"--CODEGEN--\":246:248   */\n      0x20\n        /* \"--CODEGEN--\":234:243   */\n      dup3\n        /* \"--CODEGEN--\":225:232   */\n      dup5\n        /* \"--CODEGEN--\":221:244   */\n      sub\n        /* \"--CODEGEN--\":217:249   */\n      slt\n        /* \"--CODEGEN--\":214:216   */\n      iszero\n      tag_25\n      jumpi\n        /* \"--CODEGEN--\":262:263   */\n      0x00\n        /* \"--CODEGEN--\":259:260   */\n      dup1\n        /* \"--CODEGEN--\":252:264   */\n      revert\n        /* \"--CODEGEN--\":214:216   */\n    tag_25:\n        /* \"--CODEGEN--\":297:298   */\n      0x00\n        /* \"--CODEGEN--\":314:367   */\n      tag_26\n        /* \"--CODEGEN--\":359:366   */\n      dup5\n        /* \"--CODEGEN--\":350:356   */\n      dup3\n        /* \"--CODEGEN--\":339:348   */\n      dup6\n        /* \"--CODEGEN--\":335:357   */\n      add\n        /* \"--CODEGEN--\":314:367   */\n      tag_20\n      jump\t// in\n    tag_26:\n        /* \"--CODEGEN--\":304:367   */\n      swap2\n      pop\n        /* \"--CODEGEN--\":276:373   */\n      pop\n        /* \"--CODEGEN--\":208:383   */\n      swap3\n      swap2\n      pop\n      pop\n      jump\t// out\n        /* \"--CODEGEN--\":390:532   */\n    tag_27:\n        /* \"--CODEGEN--\":481:526   */\n      tag_29\n        /* \"--CODEGEN--\":520:525   */\n      dup2\n        /* \"--CODEGEN--\":481:526   */\n      tag_30\n      jump\t// in\n    tag_29:\n        /* \"--CODEGEN--\":476:479   */\n      dup3\n        /* \"--CODEGEN--\":469:527   */\n      mstore\n        /* \"--CODEGEN--\":463:532   */\n      pop\n      pop\n      jump\t// out\n        /* \"--CODEGEN--\":539:652   */\n    tag_31:\n        /* \"--CODEGEN--\":622:646   */\n      tag_33\n        /* \"--CODEGEN--\":640:645   */\n      dup2\n        /* \"--CODEGEN--\":622:646   */\n      tag_34\n      jump\t// in\n    tag_33:\n        /* \"--CODEGEN--\":617:620   */\n      dup3\n        /* \"--CODEGEN--\":610:647   */\n      mstore\n        /* \"--CODEGEN--\":604:652   */\n      pop\n      pop\n      jump\t// out\n        /* \"--CODEGEN--\":659:881   */\n    tag_10:\n      0x00\n        /* \"--CODEGEN--\":786:788   */\n      0x20\n        /* \"--CODEGEN--\":775:784   */\n      dup3\n        /* \"--CODEGEN--\":771:789   */\n      add\n        /* \"--CODEGEN--\":763:789   */\n      swap1\n      pop\n        /* \"--CODEGEN--\":800:871   */\n      tag_36\n        /* \"--CODEGEN--\":868:869   */\n      0x00\n        /* \"--CODEGEN--\":857:866   */\n      dup4\n        /* \"--CODEGEN--\":853:870   */\n      add\n        /* \"--CODEGEN--\":844:850   */\n      dup5\n        /* \"--CODEGEN--\":800:871   */\n      tag_31\n      jump\t// in\n    tag_36:\n        /* \"--CODEGEN--\":757:881   */\n      swap3\n      swap2\n      pop\n      pop\n      jump\t// out\n        /* \"--CODEGEN--\":888:1126   */\n    tag_17:\n      0x00\n        /* \"--CODEGEN--\":1023:1025   */\n      0x20\n        /* \"--CODEGEN--\":1012:1021   */\n      dup3\n        /* \"--CODEGEN--\":1008:1026   */\n      add\n        /* \"--CODEGEN--\":1000:1026   */\n      swap1\n      pop\n        /* \"--CODEGEN--\":1037:1116   */\n      tag_38\n        /* \"--CODEGEN--\":1113:1114   */\n      0x00\n        /* \"--CODEGEN--\":1102:1111   */\n      dup4\n        /* \"--CODEGEN--\":1098:1115   */\n      add\n        /* \"--CODEGEN--\":1089:1095   */\n      dup5\n        /* \"--CODEGEN--\":1037:1116   */\n      tag_27\n      jump\t// in\n    tag_38:\n        /* \"--CODEGEN--\":994:1126   */\n      swap3\n      swap2\n      pop\n      pop\n      jump\t// out\n        /* \"--CODEGEN--\":1133:1224   */\n    tag_34:\n      0x00\n        /* \"--CODEGEN--\":1195:1219   */\n      tag_40\n        /* \"--CODEGEN--\":1213:1218   */\n      dup3\n        /* \"--CODEGEN--\":1195:1219   */\n      tag_41\n      jump\t// in\n    tag_40:\n        /* \"--CODEGEN--\":1184:1219   */\n      swap1\n      pop\n        /* \"--CODEGEN--\":1178:1224   */\n      swap2\n      swap1\n      pop\n      jump\t// out\n        /* \"--CODEGEN--\":1231:1352   */\n    tag_41:\n      0x00\n        /* \"--CODEGEN--\":1304:1346   */\n      0xffffffffffffffffffffffffffffffffffffffff\n        /* \"--CODEGEN--\":1297:1302   */\n      dup3\n        /* \"--CODEGEN--\":1293:1347   */\n      and\n        /* \"--CODEGEN--\":1282:1347   */\n      swap1\n      pop\n        /* \"--CODEGEN--\":1276:1352   */\n      swap2\n      swap1\n      pop\n      jump\t// out\n        /* \"--CODEGEN--\":1359:1488   */\n    tag_30:\n      0x00\n        /* \"--CODEGEN--\":1446:1483   */\n      tag_44\n        /* \"--CODEGEN--\":1477:1482   */\n      dup3\n        /* \"--CODEGEN--\":1446:1483   */\n      tag_45\n      jump\t// in\n    tag_44:\n        /* \"--CODEGEN--\":1433:1483   */\n      swap1\n      pop\n        /* \"--CODEGEN--\":1427:1488   */\n      swap2\n      swap1\n      pop\n      jump\t// out\n        /* \"--CODEGEN--\":1495:1616   */\n    tag_45:\n      0x00\n        /* \"--CODEGEN--\":1574:1611   */\n      tag_47\n        /* \"--CODEGEN--\":1605:1610   */\n      dup3\n        /* \"--CODEGEN--\":1574:1611   */\n      tag_48\n      jump\t// in\n    tag_47:\n        /* \"--CODEGEN--\":1561:1611   */\n      swap1\n      pop\n        /* \"--CODEGEN--\":1555:1616   */\n      swap2\n      swap1\n      pop\n      jump\t// out\n        /* \"--CODEGEN--\":1623:1731   */\n    tag_48:\n      0x00\n        /* \"--CODEGEN--\":1702:1726   */\n      tag_50\n        /* \"--CODEGEN--\":1720:1725   */\n      dup3\n        /* \"--CODEGEN--\":1702:1726   */\n      tag_41\n      jump\t// in\n    tag_50:\n        /* \"--CODEGEN--\":1689:1726   */\n      swap1\n      pop\n        /* \"--CODEGEN--\":1683:1731   */\n      swap2\n      swap1\n      pop\n      jump\t// out\n        /* \"--CODEGEN--\":1738:1855   */\n    tag_23:\n        /* \"--CODEGEN--\":1807:1831   */\n      tag_52\n        /* \"--CODEGEN--\":1825:1830   */\n      dup2\n        /* \"--CODEGEN--\":1807:1831   */\n      tag_34\n      jump\t// in\n    tag_52:\n        /* \"--CODEGEN--\":1800:1805   */\n      dup2\n        /* \"--CODEGEN--\":1797:1832   */\n      eq\n        /* \"--CODEGEN--\":1787:1789   */\n      tag_53\n      jumpi\n        /* \"--CODEGEN--\":1846:1847   */\n      0x00\n        /* \"--CODEGEN--\":1843:1844   */\n      dup1\n        /* \"--CODEGEN--\":1836:1848   */\n      revert\n        /* \"--CODEGEN--\":1787:1789   */\n    tag_53:\n        /* \"--CODEGEN--\":1781:1855   */\n      pop\n      jump\t// out\n    stop\n\n    sub_0: assembly {\n            /* \"Factory/factory.sol\":462:614  contract SmartContract2 {\r... */\n          mstore(0x40, 0x80)\n            /* \"Factory/factory.sol\":528:605  constructor (address _direccion) public {\r... */\n          callvalue\n          dup1\n          iszero\n          tag_1\n          jumpi\n          0x00\n          dup1\n          revert\n        tag_1:\n          pop\n          mload(0x40)\n          sub(codesize, bytecodeSize)\n          dup1\n          bytecodeSize\n          dup4\n          codecopy\n          dup2\n          dup2\n          add\n          0x40\n          mstore\n          dup2\n          add\n          swap1\n          tag_2\n          swap2\n          swap1\n          tag_3\n          jump\t// in\n        tag_2:\n            /* \"Factory/factory.sol\":587:597  _direccion */\n          dup1\n            /* \"Factory/factory.sol\":579:584  owner */\n          0x00\n          dup1\n            /* \"Factory/factory.sol\":579:597  owner = _direccion */\n          0x0100\n          exp\n          dup2\n          sload\n          dup2\n          0xffffffffffffffffffffffffffffffffffffffff\n          mul\n          not\n          and\n          swap1\n          dup4\n          0xffffffffffffffffffffffffffffffffffffffff\n          and\n          mul\n          or\n          swap1\n          sstore\n          pop\n            /* \"Factory/factory.sol\":528:605  constructor (address _direccion) public {\r... */\n          pop\n            /* \"Factory/factory.sol\":462:614  contract SmartContract2 {\r... */\n          jump(tag_6)\n            /* \"--CODEGEN--\":5:139   */\n        tag_8:\n          0x00\n            /* \"--CODEGEN--\":89:95   */\n          dup2\n            /* \"--CODEGEN--\":83:96   */\n          mload\n            /* \"--CODEGEN--\":74:96   */\n          swap1\n          pop\n            /* \"--CODEGEN--\":101:134   */\n          tag_10\n            /* \"--CODEGEN--\":128:133   */\n          dup2\n            /* \"--CODEGEN--\":101:134   */\n          tag_11\n          jump\t// in\n        tag_10:\n            /* \"--CODEGEN--\":68:139   */\n          swap3\n          swap2\n          pop\n          pop\n          jump\t// out\n            /* \"--CODEGEN--\":146:409   */\n        tag_3:\n          0x00\n            /* \"--CODEGEN--\":261:263   */\n          0x20\n            /* \"--CODEGEN--\":249:258   */\n          dup3\n            /* \"--CODEGEN--\":240:247   */\n          dup5\n            /* \"--CODEGEN--\":236:259   */\n          sub\n            /* \"--CODEGEN--\":232:264   */\n          slt\n            /* \"--CODEGEN--\":229:231   */\n          iszero\n          tag_13\n          jumpi\n            /* \"--CODEGEN--\":277:278   */\n          0x00\n            /* \"--CODEGEN--\":274:275   */\n          dup1\n            /* \"--CODEGEN--\":267:279   */\n          revert\n            /* \"--CODEGEN--\":229:231   */\n        tag_13:\n            /* \"--CODEGEN--\":312:313   */\n          0x00\n            /* \"--CODEGEN--\":329:393   */\n          tag_14\n            /* \"--CODEGEN--\":385:392   */\n          dup5\n            /* \"--CODEGEN--\":376:382   */\n          dup3\n            /* \"--CODEGEN--\":365:374   */\n          dup6\n            /* \"--CODEGEN--\":361:383   */\n          add\n            /* \"--CODEGEN--\":329:393   */\n          tag_8\n          jump\t// in\n        tag_14:\n            /* \"--CODEGEN--\":319:393   */\n          swap2\n          pop\n            /* \"--CODEGEN--\":291:399   */\n          pop\n            /* \"--CODEGEN--\":223:409   */\n          swap3\n          swap2\n          pop\n          pop\n          jump\t// out\n            /* \"--CODEGEN--\":416:507   */\n        tag_15:\n          0x00\n            /* \"--CODEGEN--\":478:502   */\n          tag_17\n            /* \"--CODEGEN--\":496:501   */\n          dup3\n            /* \"--CODEGEN--\":478:502   */\n          tag_18\n          jump\t// in\n        tag_17:\n            /* \"--CODEGEN--\":467:502   */\n          swap1\n          pop\n            /* \"--CODEGEN--\":461:507   */\n          swap2\n          swap1\n          pop\n          jump\t// out\n            /* \"--CODEGEN--\":514:635   */\n        tag_18:\n          0x00\n            /* \"--CODEGEN--\":587:629   */\n          0xffffffffffffffffffffffffffffffffffffffff\n            /* \"--CODEGEN--\":580:585   */\n          dup3\n            /* \"--CODEGEN--\":576:630   */\n          and\n            /* \"--CODEGEN--\":565:630   */\n          swap1\n          pop\n            /* \"--CODEGEN--\":559:635   */\n          swap2\n          swap1\n          pop\n          jump\t// out\n            /* \"--CODEGEN--\":642:759   */\n        tag_11:\n            /* \"--CODEGEN--\":711:735   */\n          tag_21\n            /* \"--CODEGEN--\":729:734   */\n          dup2\n            /* \"--CODEGEN--\":711:735   */\n          tag_15\n          jump\t// in\n        tag_21:\n            /* \"--CODEGEN--\":704:709   */\n          dup2\n            /* \"--CODEGEN--\":701:736   */\n          eq\n            /* \"--CODEGEN--\":691:693   */\n          tag_22\n          jumpi\n            /* \"--CODEGEN--\":750:751   */\n          0x00\n            /* \"--CODEGEN--\":747:748   */\n          dup1\n            /* \"--CODEGEN--\":740:752   */\n          revert\n            /* \"--CODEGEN--\":691:693   */\n        tag_22:\n            /* \"--CODEGEN--\":685:759   */\n          pop\n          jump\t// out\n            /* \"Factory/factory.sol\":462:614  contract SmartContract2 {\r... */\n        tag_6:\n          dataSize(sub_0)\n          dup1\n          dataOffset(sub_0)\n          0x00\n          codecopy\n          0x00\n          return\n        stop\n\n        sub_0: assembly {\n                /* \"Factory/factory.sol\":462:614  contract SmartContract2 {\r... */\n              mstore(0x40, 0x80)\n              callvalue\n              dup1\n              iszero\n              tag_1\n              jumpi\n              0x00\n              dup1\n              revert\n            tag_1:\n              pop\n              jumpi(tag_2, lt(calldatasize, 0x04))\n              shr(0xe0, calldataload(0x00))\n              dup1\n              0x8da5cb5b\n              eq\n              tag_3\n              jumpi\n            tag_2:\n              0x00\n              dup1\n              revert\n                /* \"Factory/factory.sol\":499:519  address public owner */\n            tag_3:\n              tag_4\n              tag_5\n              jump\t// in\n            tag_4:\n              mload(0x40)\n              tag_6\n              swap2\n              swap1\n              tag_7\n              jump\t// in\n            tag_6:\n              mload(0x40)\n              dup1\n              swap2\n              sub\n              swap1\n              return\n            tag_5:\n              0x00\n              dup1\n              sload\n              swap1\n              0x0100\n              exp\n              swap1\n              div\n              0xffffffffffffffffffffffffffffffffffffffff\n              and\n              dup2\n              jump\t// out\n                /* \"--CODEGEN--\":5:118   */\n            tag_9:\n                /* \"--CODEGEN--\":88:112   */\n              tag_11\n                /* \"--CODEGEN--\":106:111   */\n              dup2\n                /* \"--CODEGEN--\":88:112   */\n              tag_12\n              jump\t// in\n            tag_11:\n                /* \"--CODEGEN--\":83:86   */\n              dup3\n                /* \"--CODEGEN--\":76:113   */\n              mstore\n                /* \"--CODEGEN--\":70:118   */\n              pop\n              pop\n              jump\t// out\n                /* \"--CODEGEN--\":125:347   */\n            tag_7:\n              0x00\n                /* \"--CODEGEN--\":252:254   */\n              0x20\n                /* \"--CODEGEN--\":241:250   */\n              dup3\n                /* \"--CODEGEN--\":237:255   */\n              add\n                /* \"--CODEGEN--\":229:255   */\n              swap1\n              pop\n                /* \"--CODEGEN--\":266:337   */\n              tag_14\n                /* \"--CODEGEN--\":334:335   */\n              0x00\n                /* \"--CODEGEN--\":323:332   */\n              dup4\n                /* \"--CODEGEN--\":319:336   */\n              add\n                /* \"--CODEGEN--\":310:316   */\n              dup5\n                /* \"--CODEGEN--\":266:337   */\n              tag_9\n              jump\t// in\n            tag_14:\n                /* \"--CODEGEN--\":223:347   */\n              swap3\n              swap2\n              pop\n              pop\n              jump\t// out\n                /* \"--CODEGEN--\":354:445   */\n            tag_12:\n              0x00\n                /* \"--CODEGEN--\":416:440   */\n              tag_16\n                /* \"--CODEGEN--\":434:439   */\n              dup3\n                /* \"--CODEGEN--\":416:440   */\n              tag_17\n              jump\t// in\n            tag_16:\n                /* \"--CODEGEN--\":405:440   */\n              swap1\n              pop\n                /* \"--CODEGEN--\":399:445   */\n              swap2\n              swap1\n              pop\n              jump\t// out\n                /* \"--CODEGEN--\":452:573   */\n            tag_17:\n              0x00\n                /* \"--CODEGEN--\":525:567   */\n              0xffffffffffffffffffffffffffffffffffffffff\n                /* \"--CODEGEN--\":518:523   */\n              dup3\n                /* \"--CODEGEN--\":514:568   */\n              and\n                /* \"--CODEGEN--\":503:568   */\n              swap1\n              pop\n                /* \"--CODEGEN--\":497:573   */\n              swap2\n              swap1\n              pop\n              jump\t// out\n\n            auxdata: 0xa2646970667358221220a53cdb019289aa225c0cf0b8a7a4b05111f16ab58875ed653878ac2fecf4ffd464736f6c634300060c0033\n        }\n    }\n\n    auxdata: 0xa2646970667358221220744ba91d6fd425a92671068c0ec15a89e3dd6d56288bda279d68d0e04a65419564736f6c634300060c0033\n}\n",
				"bytecode": {
					"linkReferences": {},
					"object": "608060405234801561001057600080fd5b506104b8806100206000396000f3fe608060405234801561001057600080fd5b50600436106100365760003560e01c80631b03b2c91461003b578063c83dd2311461006b575b600080fd5b61005560048036038101906100509190610182565b610075565b60405161006291906101c9565b60405180910390f35b6100736100a8565b005b60006020528060005260406000206000915054906101000a900473ffffffffffffffffffffffffffffffffffffffff1681565b6000336040516100b790610160565b6100c191906101e4565b604051809103906000f0801580156100dd573d6000803e3d6000fd5b509050806000803373ffffffffffffffffffffffffffffffffffffffff1673ffffffffffffffffffffffffffffffffffffffff16815260200190815260200160002060006101000a81548173ffffffffffffffffffffffffffffffffffffffff021916908373ffffffffffffffffffffffffffffffffffffffff16021790555050565b6102048061027f83390190565b60008135905061017c81610267565b92915050565b60006020828403121561019457600080fd5b60006101a28482850161016d565b91505092915050565b6101b481610231565b82525050565b6101c3816101ff565b82525050565b60006020820190506101de60008301846101ba565b92915050565b60006020820190506101f960008301846101ab565b92915050565b600061020a82610211565b9050919050565b600073ffffffffffffffffffffffffffffffffffffffff82169050919050565b600061023c82610243565b9050919050565b600061024e82610255565b9050919050565b600061026082610211565b9050919050565b610270816101ff565b811461027b57600080fd5b5056fe608060405234801561001057600080fd5b506040516102043803806102048339818101604052810190610032919061008d565b806000806101000a81548173ffffffffffffffffffffffffffffffffffffffff021916908373ffffffffffffffffffffffffffffffffffffffff160217905550506100ff565b600081519050610087816100e8565b92915050565b60006020828403121561009f57600080fd5b60006100ad84828501610078565b91505092915050565b60006100c1826100c8565b9050919050565b600073ffffffffffffffffffffffffffffffffffffffff82169050919050565b6100f1816100b6565b81146100fc57600080fd5b50565b60f78061010d6000396000f3fe6080604052348015600f57600080fd5b506004361060285760003560e01c80638da5cb5b14602d575b600080fd5b60336047565b604051603e91906078565b60405180910390f35b60008054906101000a900473ffffffffffffffffffffffffffffffffffffffff1681565b6072816091565b82525050565b6000602082019050608b6000830184606b565b92915050565b6000609a8260a1565b9050919050565b600073ffffffffffffffffffffffffffffffffffffffff8216905091905056fea2646970667358221220a53cdb019289aa225c0cf0b8a7a4b05111f16ab58875ed653878ac2fecf4ffd464736f6c634300060c0033a2646970667358221220744ba91d6fd425a92671068c0ec15a89e3dd6d56288bda279d68d0e04a65419564736f6c634300060c0033",
					"opcodes": "PUSH1 0x80 PUSH1 0x40 MSTORE CALLVALUE DUP1 ISZERO PUSH2 0x10 JUMPI PUSH1 0x0 DUP1 REVERT JUMPDEST POP PUSH2 0x4B8 DUP1 PUSH2 0x20 PUSH1 0x0 CODECOPY PUSH1 0x0 RETURN INVALID PUSH1 0x80 PUSH1 0x40 MSTORE CALLVALUE DUP1 ISZERO PUSH2 0x10 JUMPI PUSH1 0x0 DUP1 REVERT JUMPDEST POP PUSH1 0x4 CALLDATASIZE LT PUSH2 0x36 JUMPI PUSH1 0x0 CALLDATALOAD PUSH1 0xE0 SHR DUP1 PUSH4 0x1B03B2C9 EQ PUSH2 0x3B JUMPI DUP1 PUSH4 0xC83DD231 EQ PUSH2 0x6B JUMPI JUMPDEST PUSH1 0x0 DUP1 REVERT JUMPDEST PUSH2 0x55 PUSH1 0x4 DUP1 CALLDATASIZE SUB DUP2 ADD SWAP1 PUSH2 0x50 SWAP2 SWAP1 PUSH2 0x182 JUMP JUMPDEST PUSH2 0x75 JUMP JUMPDEST PUSH1 0x40 MLOAD PUSH2 0x62 SWAP2 SWAP1 PUSH2 0x1C9 JUMP JUMPDEST PUSH1 0x40 MLOAD DUP1 SWAP2 SUB SWAP1 RETURN JUMPDEST PUSH2 0x73 PUSH2 0xA8 JUMP JUMPDEST STOP JUMPDEST PUSH1 0x0 PUSH1 0x20 MSTORE DUP1 PUSH1 0x0 MSTORE PUSH1 0x40 PUSH1 0x0 KECCAK256 PUSH1 0x0 SWAP2 POP SLOAD SWAP1 PUSH2 0x100 EXP SWAP1 DIV PUSH20 0xFFFFFFFFFFFFFFFFFFFFFFFFFFFFFFFFFFFFFFFF AND DUP2 JUMP JUMPDEST PUSH1 0x0 CALLER PUSH1 0x40 MLOAD PUSH2 0xB7 SWAP1 PUSH2 0x160 JUMP JUMPDEST PUSH2 0xC1 SWAP2 SWAP1 PUSH2 0x1E4 JUMP JUMPDEST PUSH1 0x40 MLOAD DUP1 SWAP2 SUB SWAP1 PUSH1 0x0 CREATE DUP1 ISZERO DUP1 ISZERO PUSH2 0xDD JUMPI RETURNDATASIZE PUSH1 0x0 DUP1 RETURNDATACOPY RETURNDATASIZE PUSH1 0x0 REVERT JUMPDEST POP SWAP1 POP DUP1 PUSH1 0x0 DUP1 CALLER PUSH20 0xFFFFFFFFFFFFFFFFFFFFFFFFFFFFFFFFFFFFFFFF AND PUSH20 0xFFFFFFFFFFFFFFFFFFFFFFFFFFFFFFFFFFFFFFFF AND DUP2 MSTORE PUSH1 0x20 ADD SWAP1 DUP2 MSTORE PUSH1 0x20 ADD PUSH1 0x0 KECCAK256 PUSH1 0x0 PUSH2 0x100 EXP DUP2 SLOAD DUP2 PUSH20 0xFFFFFFFFFFFFFFFFFFFFFFFFFFFFFFFFFFFFFFFF MUL NOT AND SWAP1 DUP4 PUSH20 0xFFFFFFFFFFFFFFFFFFFFFFFFFFFFFFFFFFFFFFFF AND MUL OR SWAP1 SSTORE POP POP JUMP JUMPDEST PUSH2 0x204 DUP1 PUSH2 0x27F DUP4 CODECOPY ADD SWAP1 JUMP JUMPDEST PUSH1 0x0 DUP2 CALLDATALOAD SWAP1 POP PUSH2 0x17C DUP2 PUSH2 0x267 JUMP JUMPDEST SWAP3 SWAP2 POP POP JUMP JUMPDEST PUSH1 0x0 PUSH1 0x20 DUP3 DUP5 SUB SLT ISZERO PUSH2 0x194 JUMPI PUSH1 0x0 DUP1 REVERT JUMPDEST PUSH1 0x0 PUSH2 0x1A2 DUP5 DUP3 DUP6 ADD PUSH2 0x16D JUMP JUMPDEST SWAP2 POP POP SWAP3 SWAP2 POP POP JUMP JUMPDEST PUSH2 0x1B4 DUP2 PUSH2 0x231 JUMP JUMPDEST DUP3 MSTORE POP POP JUMP JUMPDEST PUSH2 0x1C3 DUP2 PUSH2 0x1FF JUMP JUMPDEST DUP3 MSTORE POP POP JUMP JUMPDEST PUSH1 0x0 PUSH1 0x20 DUP3 ADD SWAP1 POP PUSH2 0x1DE PUSH1 0x0 DUP4 ADD DUP5 PUSH2 0x1BA JUMP JUMPDEST SWAP3 SWAP2 POP POP JUMP JUMPDEST PUSH1 0x0 PUSH1 0x20 DUP3 ADD SWAP1 POP PUSH2 0x1F9 PUSH1 0x0 DUP4 ADD DUP5 PUSH2 0x1AB JUMP JUMPDEST SWAP3 SWAP2 POP POP JUMP JUMPDEST PUSH1 0x0 PUSH2 0x20A DUP3 PUSH2 0x211 JUMP JUMPDEST SWAP1 POP SWAP2 SWAP1 POP JUMP JUMPDEST PUSH1 0x0 PUSH20 0xFFFFFFFFFFFFFFFFFFFFFFFFFFFFFFFFFFFFFFFF DUP3 AND SWAP1 POP SWAP2 SWAP1 POP JUMP JUMPDEST PUSH1 0x0 PUSH2 0x23C DUP3 PUSH2 0x243 JUMP JUMPDEST SWAP1 POP SWAP2 SWAP1 POP JUMP JUMPDEST PUSH1 0x0 PUSH2 0x24E DUP3 PUSH2 0x255 JUMP JUMPDEST SWAP1 POP SWAP2 SWAP1 POP JUMP JUMPDEST PUSH1 0x0 PUSH2 0x260 DUP3 PUSH2 0x211 JUMP JUMPDEST SWAP1 POP SWAP2 SWAP1 POP JUMP JUMPDEST PUSH2 0x270 DUP2 PUSH2 0x1FF JUMP JUMPDEST DUP2 EQ PUSH2 0x27B JUMPI PUSH1 0x0 DUP1 REVERT JUMPDEST POP JUMP INVALID PUSH1 0x80 PUSH1 0x40 MSTORE CALLVALUE DUP1 ISZERO PUSH2 0x10 JUMPI PUSH1 0x0 DUP1 REVERT JUMPDEST POP PUSH1 0x40 MLOAD PUSH2 0x204 CODESIZE SUB DUP1 PUSH2 0x204 DUP4 CODECOPY DUP2 DUP2 ADD PUSH1 0x40 MSTORE DUP2 ADD SWAP1 PUSH2 0x32 SWAP2 SWAP1 PUSH2 0x8D JUMP JUMPDEST DUP1 PUSH1 0x0 DUP1 PUSH2 0x100 EXP DUP2 SLOAD DUP2 PUSH20 0xFFFFFFFFFFFFFFFFFFFFFFFFFFFFFFFFFFFFFFFF MUL NOT AND SWAP1 DUP4 PUSH20 0xFFFFFFFFFFFFFFFFFFFFFFFFFFFFFFFFFFFFFFFF AND MUL OR SWAP1 SSTORE POP POP PUSH2 0xFF JUMP JUMPDEST PUSH1 0x0 DUP2 MLOAD SWAP1 POP PUSH2 0x87 DUP2 PUSH2 0xE8 JUMP JUMPDEST SWAP3 SWAP2 POP POP JUMP JUMPDEST PUSH1 0x0 PUSH1 0x20 DUP3 DUP5 SUB SLT ISZERO PUSH2 0x9F JUMPI PUSH1 0x0 DUP1 REVERT JUMPDEST PUSH1 0x0 PUSH2 0xAD DUP5 DUP3 DUP6 ADD PUSH2 0x78 JUMP JUMPDEST SWAP2 POP POP SWAP3 SWAP2 POP POP JUMP JUMPDEST PUSH1 0x0 PUSH2 0xC1 DUP3 PUSH2 0xC8 JUMP JUMPDEST SWAP1 POP SWAP2 SWAP1 POP JUMP JUMPDEST PUSH1 0x0 PUSH20 0xFFFFFFFFFFFFFFFFFFFFFFFFFFFFFFFFFFFFFFFF DUP3 AND SWAP1 POP SWAP2 SWAP1 POP JUMP JUMPDEST PUSH2 0xF1 DUP2 PUSH2 0xB6 JUMP JUMPDEST DUP2 EQ PUSH2 0xFC JUMPI PUSH1 0x0 DUP1 REVERT JUMPDEST POP JUMP JUMPDEST PUSH1 0xF7 DUP1 PUSH2 0x10D PUSH1 0x0 CODECOPY PUSH1 0x0 RETURN INVALID PUSH1 0x80 PUSH1 0x40 MSTORE CALLVALUE DUP1 ISZERO PUSH1 0xF JUMPI PUSH1 0x0 DUP1 REVERT JUMPDEST POP PUSH1 0x4 CALLDATASIZE LT PUSH1 0x28 JUMPI PUSH1 0x0 CALLDATALOAD PUSH1 0xE0 SHR DUP1 PUSH4 0x8DA5CB5B EQ PUSH1 0x2D JUMPI JUMPDEST PUSH1 0x0 DUP1 REVERT JUMPDEST PUSH1 0x33 PUSH1 0x47 JUMP JUMPDEST PUSH1 0x40 MLOAD PUSH1 0x3E SWAP2 SWAP1 PUSH1 0x78 JUMP JUMPDEST PUSH1 0x40 MLOAD DUP1 SWAP2 SUB SWAP1 RETURN JUMPDEST PUSH1 0x0 DUP1 SLOAD SWAP1 PUSH2 0x100 EXP SWAP1 DIV PUSH20 0xFFFFFFFFFFFFFFFFFFFFFFFFFFFFFFFFFFFFFFFF AND DUP2 JUMP JUMPDEST PUSH1 0x72 DUP2 PUSH1 0x91 JUMP JUMPDEST DUP3 MSTORE POP POP JUMP JUMPDEST PUSH1 0x0 PUSH1 0x20 DUP3 ADD SWAP1 POP PUSH1 0x8B PUSH1 0x0 DUP4 ADD DUP5 PUSH1 0x6B JUMP JUMPDEST SWAP3 SWAP2 POP POP JUMP JUMPDEST PUSH1 0x0 PUSH1 0x9A DUP3 PUSH1 0xA1 JUMP JUMPDEST SWAP1 POP SWAP2 SWAP1 POP JUMP JUMPDEST PUSH1 0x0 PUSH20 0xFFFFFFFFFFFFFFFFFFFFFFFFFFFFFFFFFFFFFFFF DUP3 AND SWAP1 POP SWAP2 SWAP1 POP JUMP INVALID LOG2 PUSH5 0x6970667358 0x22 SLT KECCAK256 0xA5 EXTCODECOPY 0xDB ADD SWAP3 DUP10 0xAA 0x22 0x5C 0xC CREATE 0xB8 0xA7 LOG4 0xB0 MLOAD GT CALL PUSH11 0xB58875ED653878AC2FECF4 SELFDESTRUCT 0xD4 PUSH5 0x736F6C6343 STOP MOD 0xC STOP CALLER LOG2 PUSH5 0x6970667358 0x22 SLT KECCAK256 PUSH21 0x4BA91D6FD425A92671068C0EC15A89E3DD6D56288B 0xDA 0x27 SWAP14 PUSH9 0xD0E04A65419564736F PUSH13 0x634300060C0033000000000000 "
				},
				"gasEstimates": {
					"creation": {
						"codeDepositCost": "241600",
						"executionCost": "281",
						"totalCost": "241881"
					},
					"external": {
						"Factory()": "infinite",
						"MiContratoPersonal(address)": "infinite"
					}
				},
				"methodIdentifiers": {
					"Factory()": "c83dd231",
					"MiContratoPersonal(address)": "1b03b2c9"
				}
			},
			"storageLayout": {
				"storage": [
					{
						"astId": 6,
						"contract": "Factory/factory.sol:SmartContract1",
						"label": "MiContratoPersonal",
						"offset": 0,
						"slot": "0",
						"type": "t_mapping(t_address,t_address)"
					}
				],
				"types": {
					"t_address": {
						"encoding": "inplace",
						"label": "address",
						"numberOfBytes": "20"
					},
					"t_mapping(t_address,t_address)": {
						"encoding": "mapping",
						"key": "t_address",
						"label": "mapping(address => address)",
						"numberOfBytes": "32",
						"value": "t_address"
					}
				}
			},
			"userdoc": {
				"kind": "user",
				"methods": {},
				"version": 1
			}
		}
	}
}